S00E000051414D4465632E737265632B
S11300000C941E010C9447010C9447010C94470175
S11300100C9447010C9447010C9447010C9447013C
S11300200C94C61D0C94061E0C9447010C944701B5
S11300300C9447010C9447010C9457050C94470108
S11300400C9447010C9447010C9447010C9447010C
S11300500C9447010C9447010C9447010C944701FC
S11300600C9447010C9447010C9447010C944701EC
S11300700C9447010C9447010C9447010C944701DC
S11300800C9447010C9447010C9447010C944701CC
S11300900C9447010C9447010C9447010C944701BC
S11300A00C9447010C9447010C9447010C944701AC
S11300B00C9447010C9447010C9447010C9447019C
S11300C00C9447010C9447010C9447010C9447018C
S11300D00C9447010C9447010C9447010C9447017C
S11300E00C9447010C9447010C9447010C9447016C
S11300F00C9447010C9447010C9447010C9447015C
S11301000C9447010C9447010C9447010C9447014B
S11301100C9447010C9447010C9447010C9447013B
S11301200C9447010C9447010C9447010C9447012B
S11301300C9447010C9447010C9447010C9447011B
S11301400C9447010C9447010C9447010C9447010B
S11301500C9447010C9447010C9447010C944701FB
S11301600C9447010C9447010C9447010C944701EB
S11301700C9447010C9447010C9447010C944701DB
S11301800C9447010C9447010C9447010C944701CB
S11301900C9447010C9447010C9447010C944701BB
S11301A00C9447010C9447010C9447010C944701AB
S11301B00C94C8120C9447010C9447010C94470109
S11301C00C9447010C9447010C9447010C9447018B
S11301D00C9447010C9447010C9447010C9447017B
S11301E00C9447010C9447010C9447010C9447016B
S11301F00C9447010C9447010C944701B210B210BF
S1130200B21053109B10ED10B210B21053109B108B
S11302100C94E5080C9436030C9453100C94ED10D4
S11302200C9485140C9409100C94DC1C0C949B10F5
S11302300C94D2110C94E9180C94B21011241FBE22
S1130240CFEFCDBFDFE3DEBF00E00CBFE7EAFEE2A5
S11302508AEA90E48193E030F907E0F311E2A0E048
S1130260B0E2EEE2F2E400E00BBF02C007900D92B0
S1130270A638B107D9F72EE2A6E8B1E201C01D9273
S1130280A73AB207E1F70E9489120C9415210C9445
S11302900000611106C090E0842B892B80935200EA
S11302A0089590E2842B892B8093520008956F71F6
S11302B0862B809355000895E0E5F0E09081282F87
S11302C02095922390839081892308950F93CF934F
S11302D0DF931F92CDB7DEB79FB79983F8941BBE07
S11302E0862B21E430E0F90108ED04BF8083898185
S11302F08FBF0F90DF91CF910F9108950F93CF93FC
S1130300DF931F92CDB7DEB7A0E4B0E09C912FB786
S11303102983F8941BBE987F982B20E430E0F901E0
S113032008ED04BF908399819FBF9C9189230F900E
S1130330DF91CF910F910895FC019081907F692BFB
S113034060830895FC019081907F692B60830895F8
S1130350FC019181987F692B61830895FC0191814F
S1130360987F692B61830895FC0196819C7F692B9A
S113037066830895000088ED84BF81E0809379004E
S11303800895CF93DF9380E190E00E944503EC0150
S1130390009741F0FC011192119211921192CF0138
S11303A00E946E03CE01DF91CF9108952F923F9268
S11303B04F925F926F927F928F929F92AF92BF9271
S11303C0CF92DF92EF92FF920F931F93CF93DF931D
S11303D0EC014A015B01622E702E0E945A0B2880A8
S11303E039804A805B80D201C10188219921AA21E8
S11303F0BB2101111DC0892B8A2B8B2BF1F06110BD
S113040066C00E945C0CC201B101DF91CF911F91C3
S11304100F91FF90EF90DF90CF90BF90AF909F909F
S11304208F907F906F905F904F903F902F900895A2
S113043088169906AA06BB0611F3C114D104E10477
S1130440F104F9F2611050C040E050E0BA017110BB
S11304507460482959296A297B2997018601CE01AC
S113046004960E941B0D0E945C0C882309F441C071
S11304700E94690E91FD27C0F091A200FF93F87FBE
S1130480F093A200688179818A819B81750164015E
S1130490C622D722E822F92271102EC0CD28CE28F8
S11304A0CF2871F0662061F080949094A094B09469
S11304B086229722A822B92288829982AA82BB82A4
S11304C0FF91F093A2001B012C0155249CCF809432
S11304D09094A094B09482209320A420B520888284
S11304E09982AA82BB828DCF40E050E060E071E047
S11304F0AECF0E94D104BCCF8C149D04AE04BF04C3
S1130500F9F6D0CF0F931F93F091A200FF93F87FD9
S1130510F093A200FC010081118122813381409576
S11305205095609570954023512362237323408333
S1130530518362837383FF91F093A200C901B801D0
S11305401F910F9108952F923F924F925F926F9255
S11305507F928F929F92AF92BF92CF92DF92EF924F
S1130560FF920F931F93CF93DF931C016A017B01CA
S11305708C01095F1F4F0E945A0BD1011B96ED910C
S1130580FC911C974D915D916D917C9113974C2931
S11305905D296E297F294D935D936D937C93139709
S11305A00E171F0709F45DC0C12CD12C760117C0AA
S11305B045284628472879F0B0FF04C0C828D92820
S11305C0EA28FB287260CF010E94A60DF101408148
S11305D0518162817381FE010C171D07D1F0C48122
S11305E0D58180819181A281B3814C015D01BB24BD
S11305F0240135014422552266227722B2FFD8CF46
S113060084149504A604B704B9F2FE010C171D075F
S113061031F7C094D094E094F0944C215D216E2184
S11306207F21D1014D935D936D937C9313970E9429
S11306305C0CF1016081718182819381DF91CF91A2
S11306401F910F91FF90EF90DF90CF90BF90AF90EC
S11306509F908F907F906F905F904F903F902F90DE
S11306600895CC24CA94DC2C7601D7CF0C94A30231
S11306700F931F9389019A01AB01BC0186E393E0B8
S11306800E9474111F910F910895CF93DF93EC0191
S11306900E945A0B2091862130918721C9018C0F29
S11306A09D1F883B4BE0940780F42817390768F4B2
S11306B0E901C857DE4D80938621909387210E94DB
S11306C05C0CCE01DF91CF910895C0E0D0E00E9490
S11306D05C0CCE01DF91CF9108950895FC0103963F
S11306E0818392834FEF5FEFBA0143835483658321
S11306F07683878390878187928710820895FC018F
S1130700128613860895CF93DF939C01FB01DC01CD
S11307101196CD91DC911297C483D5838E819F81EC
S1130720868397838E819F81DC0114966D937C93DD
S113073015976E837F8322873387F90180818F5FCA
S11307408083DF91CF9108950F931F93CF93DF930D
S1130750EC01CB01FB0100811181228133810F3F28
S1130760FFEF1F072F073F0749F1DE01139601C072
S1130770DF011496ED91FC911597408151816281BE
S11307807381041715072607370790F79F01FC01AB
S113079024833583F90186839783FC01A683B78379
S11307A014968D939C931597C287D38788818F5F06
S11307B08883DF91CF911F910F910895A985BA8500
S11307C014962D913C911597E2CFCF93DF93FC01C2
S11307D0A285B3852481358186819781E9018E8341
S11307E09F8386819781EC012C833D8311962D9103
S11307F03C911297E217F30749F0128613868C9105
S113080081508C938C91DF91CF91089511968D93A3
S11308109C931297F2CFE0EAF0E082819281987F74
S113082092830895CF92DF92EF92FF920F931F93DA
S113083031E1FC013083319722E220833197A3E335
S1130840A0836B01319760833197D08231971082F6
S1130850319761E36083319760E86083319767E89B
S113086060833197108231971082319762E0608300
S1130870319763E06083319764E06083319765E08A
S11308806083319766E06083319767E060833197D6
S113089068E06083319769E06083319760E1608349
S11308A031973083319732E13083319733E13083AC
S11308B0319734E13083319735E13083319736E134
S11308C03083319737E13083319738E13083319782
S11308D039E13083319730E23083319731E230832C
S11308E031972083319723E220838A013197408313
S11308F031971083319726E22083319727E22083B2
S1130900319728E22083319729E22083319720E32D
S1130910208388971F910F91FF90EF90DF90CF90E5
S1130920089583EF91E0809326089093270865E06B
S113093080E098E00E949C0161E080E098E00E94E1
S1130940B401A091AE2DB091AF2D0D900DBE0D90C0
S11309500EBEEF91DF91CF91BF91AF919F918F9197
S11309607F916F915F914F913F912F911F910F91C3
S1130970FF90EF90DF90CF90BF90AF909F908F90BB
S11309807F906F905F904F903F902F901F900F90AB
S1130990FF91F093A200FF91FFBFFF91089581E0C2
S11309A00895FF93FFB7FF93F091A200FF93F87FA0
S11309B0F093A2000F921F9211242F923F924F9214
S11309C05F926F927F928F929F92AF92BF92CF92DB
S11309D0DF92EF92FF920F931F932F933F934F93C6
S11309E05F936F937F938F939F93AF93BF93CF93B3
S11309F0DF93EF93A091AE2DB091AF2D0DB60D9274
S1130A000EB60D920E94FA0CA091AE2DB091AF2DAE
S1130A100D900DBE0D900EBEEF91DF91CF91BF9161
S1130A20AF919F918F917F916F915F914F913F9182
S1130A302F911F910F91FF90EF90DF90CF90BF9077
S1130A40AF909F908F907F906F905F904F903F906A
S1130A502F901F900F90FF91F093A200FF91FFBF82
S1130A60FF910895CF9390911C2E892B80931C2E77
S1130A709091A000913051F09091A000923031F00B
S1130A809091A000943011F0CF9108958823E1F360
S1130A90C091A2008091A200887F8093A20010924E
S1130AA01C2E0E94FA0CC093A200CF910895FF93CC
S1130AB0FFB7FF93F091A200FF93F87FF093A20099
S1130AC00F921F9211242F923F924F925F926F9236
S1130AD07F928F929F92AF92BF92CF92DF92EF92CA
S1130AE0FF920F931F932F933F934F935F936F93B3
S1130AF07F938F939F93AF93BF93CF93DF93EF93A2
S1130B00A091AE2DB091AF2D0DB60D920EB60D92F3
S1130B10C0EAD0E01A818A81887F8A830E94720B9E
S1130B201A8381E00E943205A091AE2DB091AF2DC1
S1130B300D900DBE0D900EBEEF91DF91CF91BF9140
S1130B40AF919F918F917F916F915F914F913F9161
S1130B502F911F910F91FF90EF90DF90CF90BF9056
S1130B60AF909F908F907F906F905F904F903F9049
S1130B702F901F900F90FF91F093A200FF91FFBF61
S1130B80FF9118950F931F93CF93DF93EC01042FDC
S1130B901E8D48A1442399F050E0011118C08C81A6
S1130BA09D810E94C12028A18C819D81820F911D6D
S1130BB08C839D832A813B818217930740F51F5FB5
S1130BC01E8F80E0DF91CF911F910F9108958E8148
S1130BD09F810E94C12088A190E0919581959109FF
S1130BE02E813F81280F391F2E833F8348815981ED
S1130BF02417350730F42A813B81820F931F8E839B
S1130C009F830230E1F61111DBCF11E0D9CF888147
S1130C1099818C839D831F5F1E8F80E0DF91CF912C
S1130C201F910F910895FC01CB0140A1442391F041
S1130C3050E066817781640F751F66837783228114
S1130C4033816217730720F0608171816683778333
S1130C500C94C1200895EF92FF920F931F93CF93AA
S1130C608C01F091A200FF93F87FF093A200FC01A5
S1130C70C2A11C16C4F4FC0183898823A1F0780165
S1130C80F3E1EF0EF11C06C0C15069F0F80183894D
S1130C90882349F0C7010E945F0D8823A9F30E94AD
S1130CA0570EC15099F78FEFF80182A3FF91F0938B
S1130CB0A200F091A200FF93F87FF093A200F80144
S1130CC0C1A11C16C4F4F80180858823A1F0780121
S1130CD0F8E0EF0EF11C06C0C15069F0F801808500
S1130CE0882349F0C7010E945F0D8823A9F30E945D
S1130CF0570EC15099F78FEFF80181A3FF91F0933C
S1130D00A200CF911F910F91FF90EF900895CF9380
S1130D10DF93EC01F091A200FF93F87FF093A2001F
S1130D20288139819F8D48A1949FC0011124F90124
S1130D30E80FF91FEA83FB831E8E2C833D83841BFB
S1130D409109820F931F8E839F838FEF89A38AA3B8
S1130D50611113C08885811107C0FF91F093A2002F
S1130D6081E0DF91CF910895CE0108960E945F0D36
S1130D70882399F30E94D104F0CFCE0108960E94F3
S1130D806E03CE0143960E946E03E7CFFF920F934A
S1130D901F93CF93DF93082F162FF42E6623D1F0E1
S1130DA0869FC001112485960E944503EC0100979B
S1130DB051F08596888399830F8F18A361E0CE0143
S1130DC00E948706FCA2CE01DF91CF911F910F9163
S1130DD0FF90089585E290E00E944503EC01892B81
S1130DE091F3C883D9830F8F18A361E0CE010E94C9
S1130DF08706FCA2CE01DF91CF911F910F91FF9046
S1130E000895AF92BF92CF92DF92EF92FF920F9329
S1130E10CF93DF93CDB7DEB72997CDBFDEBF7C017B
S1130E205B012E833F834887598720E06C0188E06B
S1130E30C80ED11CF091A200FF93F87FF093A2009A
S1130E40F701968D878D981708F463C0023009F472
S1130E5060C08E819F81A885B985892B8A2B8B2BB5
S1130E6009F473C0222309F44BC0FF91F093A2004C
S1130E700E945A0BF091A200FF93F87FF093A20016
S1130E80F70181A18F3F09F442C0F70182A18F3F8E
S1130E9009F43BC0FF91F093A200BE016A5F7F4F4B
S1130EA0CE0101960E94EB0D811154C0F091A20075
S1130EB0FF93F87FF093A200F701968DFF91F093D2
S1130EC0A200F701878D981314C04E815F81688555
S1130ED07985C6010E94040DC7010E942B060E9459
S1130EE05C0C882311F021E0A5CF0E94D10421E0FD
S1130EF0A1CFC7010E942B060E945C0C21E09ACF6F
S1130F00CE0101960E94DA0DB0CF12A2C3CF11A276
S1130F10BCCF402FB501C7010E94C205F7019389D8
S1130F20911122C081111DC0FF91F093A20081E0B4
S1130F302996CDBFDEBFDF91CF910F91FF90EF9047
S1130F40DF90CF90BF90AF900895FF91F093A200EF
S1130F5080E0EECFC7010E942B060E945C0C80E06B
S1130F60E7CF0E94D104E0CFC70143960E945F0DF2
S1130F708823D1F2F6CFAF92BF92CF92DF92FF9245
S1130F800F931F93CF93DF93EC016B015A01022F50
S1130F900E940B04F82E9E8D8F8D981778F00230E6
S1130FA069F080E0F092A200DF91CF911F910F9140
S1130FB0FF90DF90CF90BF90AF9008951AA1402F7B
S1130FC0B601CE010E94C2051F3F21F01F5F1AA384
S1130FD081E0E8CF8B898823D9F3CE0143960E9420
S1130FE05F0D8823A9F3A114B10491F381E0F50105
S1130FF08083D8CFAF92BF92CF92DF92FF920F93AC
S11310001F93CF93DF93CDB7DEB72997CDBFDEBF54
S11310108C015B012E833F834887598720E06C0154
S113102083E1C80ED11CF091A200FF93F87FF093E6
S1131030A200F801F68CF1107DC08E819F81A885F5
S1131040B985892B8A2B8B2B09F483C0222309F4BD
S113105068C0FF91F093A2000E945A0BF091A20085
S1131060FF93F87FF093A200F80181A18F3F09F468
S11310705FC0F80182A18F3F09F458C0FF91F0933B
S1131080A200BE016A5F7F4FCE0101960E94EB0D64
S1131090811128C0F091A200FF93F87FF093A20081
S11310A0F801868DFF91F093A200811114C04E8146
S11310B05F8168857985C6010E94040DC8010E947C
S11310C02B060E945C0C882311F021E0ACCF0E9417
S11310D0D10421E0A8CFC8010E942B060E945C0C19
S11310E021E0A1CFC8010E942B060E945C0CF09164
S11310F0A200FF93F87FF093A200F801868DFF9180
S1131100F093A2008111E1CF2996CDBFDEBFDF911C
S1131110CF911F910F91FF90DF90CF90BF90AF9030
S11311200895CE0101960E94DA0D93CF12A2A6CFA4
S113113011A29FCFB501C8010E941306FA94F801C9
S1131140F68E808581110AC0FF91F093A20081E0A0
S1131150DBCFFF91F093A20080E0D6CFC8010896C0
S11311600E945F0D882381F30E94D104EDCFF0919A
S1131170A200FF93F87FF093A200FC01868DFF91FB
S1131180F093A2000895CF93DF93EC01F091A200B5
S1131190FF93F87FF093A20089A18F3FA1F08AA169
S11311A08F3F79F0FF91F093A2008E8D811104C0DE
S11311B0CE0143960E943F0DCE01DF91CF910C9456
S11311C02B061AA2EFCF19A2EACF8091822D82308A
S11311D010F00E94D1040E948812F7CFE0916A2D8A
S11311E0F0916B2D0780F085E02D0084F185E02DD2
S11311F082819381A481B5818093432D9093442D62
S1131200A093452DB093462D08958F929F92AF924F
S1131210BF92CF92DF92EF92FF92CF936B017C014A
S1131220C42F80904D2D90904E2DA0904F2DB090B6
S1131230502D8091AE2D9091AF2D02960E94E50322
S11312408FEFC816D806E806F80609F44DC0C80C96
S1131250D91CEA1CFB1CE091AE2DF091AF2DC2828B
S1131260D382E482F5826091AE2D7091AF2DC814C3
S1131270D904EA04FB0438F180916A2D90916B2D16
S11312806E5F7F4F0E94A4038091432D9091442D63
S1131290A091452DB091462DC816D906EA06FB0645
S11312A040F4C092432DD092442DE092452DF0920B
S11312B0462DCF91FF90EF90DF90CF90BF90AF90ED
S11312C09F908F9008958091682D9091692D6E5F05
S11312D07F4FCF91FF90EF90DF90CF90BF90AF9072
S11312E09F908F900C94A403CC2309F4B0CF609109
S11312F0AE2D7091AF2D6E5F7F4F82E59DE2CF9151
S1131300FF90EF90DF90CF90BF90AF909F908F9021
S11313100C9483031092492DE091AE2DF091AF2DE2
S1131320038CF48DE02D80819181A281B381853A73
S1131330954AA54AB54A09F449C06091AE2D709109
S1131340AF2D8091AE2D9091AF2D635E7F4F0E94A3
S1131350BA0180914C2D282F30E09BE0899FF00149
S11313601124EE57F24D908191110EC04BE0815043
S1131370282F30E0429FF001439FF00D1124EE57D7
S1131380F24D9081992399F39BE0929FA001939F42
S1131390500D1124DA01AE57B24D1196ED91FC9126
S11313A012970480F581E02D1196ED93FC9312972A
S11313B04B57524DE417F50741F1208531852093B1
S11313C0AE2D3093AF2D80934C2D0895848195815B
S11313D0A681B781853A954AA54AB54A09F0ADCFA9
S11313E080859185A285B385853A954AA54AB54AF3
S11313F009F0A3CF84859585A685B785853A954A56
S1131400A54AB54A09F099CFA4CF0480F581E02D0F
S11314101196ED93FC931297D0CF5F926F927F92C7
S11314208F929F92AF92BF92CF92DF92EF92FF92F0
S11314300F931F93CF93DF934C01762E672E6A018F
S11314405901502ECA010E9445038C01892B09F4CD
S1131450F4C08CE290E00E944503EC01892B09F46E
S1131460E9C00B8F1C8FA60165EA70E0C8010E94D9
S1131470CA2021E0C21AD1088B8D9C8DC80ED91EBA
S1131480BE01635E7F4FE72DF62D9F01285F3F4F1E
S1131490CF014191DB014D93BD01DC018C91882387
S11314A019F0E217F307A1F71CA2052D043008F088
S11314B0BBC00A8F3E01B2E06B0E711CC3010E94D7
S11314C07F03CE010E960E947F03CA87DB8784E0E8
S11314D090E0A0E0B0E0801B9109A109B1098E87DA
S11314E09F87A88BB98BCE8BDF8B1FA218A619A65A
S11314F01AA61BA6A501B401C6010E941204888382
S11315009983E114F10419F0F701C083D183F091B8
S1131510A200FF93F87FF093A2008091512D8F5F7A
S11315208093512D8091AE2D9091AF2D892B89F010
S113153080914B2D811141C0E091AE2DF091AF2DE2
S11315408A8D928D8917D0F1C093AE2DD093AF2D93
S113155035C0C093AE2DD093AF2D8091512D8130E5
S113156061F582E89DE20E946E038DE89DE20E948F
S11315706E0388E99DE20E946E0383EA9DE20E9465
S11315806E0387E79DE20E946E038CE69DE20E9453
S11315906E038DE59DE20E946E0382E59DE20E944A
S11315A06E0387E79DE280936A2D90936B2D8CE602
S11315B09DE28093682D9093692D8A8D9091472D9B
S11315C09F5F9093472D9DA390914C2D981748F1C0
S11315D0FBE08F9FC0011124B3018E57924D0E94EE
S11315E08303FF91F093A20080914B2D882341F057
S11315F0E091AE2DF091AF2D928D8A8D9817B0F0B9
S113160081E0DF91CF911F910F91FF90EF90DF90D8
S1131610CF90BF90AF909F908F907F906F905F908E
S1131620089580934C2DD4CF03E043CF0E94D1047E
S113163081E0E7CFC8010E946D038FEFE2CFEF9204
S1131640FF920F9381E4E82E8DE2F82E00E020E073
S113165030E048EC50E064E071E285EE98E00E94EE
S11316600D0A813021F00F91FF90EF9008950E94B0
S1131670230F8130C1F79091A200987F9093A2002C
S11316804FEF5FEFBA014093432D5093442D609385
S1131690452D7093462D80934B2D10924D2D109215
S11316A04E2D10924F2D1092502D0F91FF90EF90D0
S11316B00C9491048091402D8F5F8093402D089568
S11316C0F091A200FF93F87FF093A20060914D2D5A
S11316D070914E2D80914F2D9091502DFF91F0934C
S11316E0A2000895AF92BF92CF92DF92EF92FF9241
S11316F00F931F93CF93DF938091402D8111C9C025
S1131700C0904D2DD0904E2DE0904F2DF090502D47
S11317108FEFC81AD80AE80AF80AC0924D2DD09261
S11317204E2DE0924F2DF092502DC114D104E104BE
S1131730F10439F580916A2D90916B2D2091682DDB
S11317403091692D20936A2D30936B2D8093682DF1
S11317509093692D8091482D8F5F8093482DE0915F
S11317606A2DF0916B2D808181119AC08FEF9FEFCC
S1131770DC018093432D9093442DA093452DB09389
S1131780462D8091432D9091442DA091452DB091EB
S1131790462DB12CC816D906EA06FB0608F457C034
S11317A08BE0A82EE0916A2DF0916B2D8081882327
S11317B009F442C0E0916A2DF0916B2D0780F08509
S11317C0E02DC085D1858A819B81AC81BD81C816FD
S11317D0D906EA06FB0608F466C08E010E5F1F4FA9
S11317E0C8010E94E503888D998D892B21F0CE01D3
S11317F00E960E94E5038A8D90914C2D981710F453
S113180080934C2DA89EC0011124B8018E57924D8F
S11318100E948303E091AE2DF091AF2D9A8D828DBD
S1131820981708F4BFCFBB24B394E0916A2DF091CC
S11318306B2D80818111BECF8FEF9FEFDC018093F0
S1131840432D9093442DA093452DB093462DE091C4
S1131850AE2DF091AF2DE28D8BE0E89FF0011124C5
S1131860EE57F24D8081823010F0BB24B394809106
S1131870492D882311F0BB24B3948B2DDF91CF9194
S11318801F910F91FF90EF90DF90CF90BF90AF909A
S1131890089580914A2D8F5F80934A2DB12CE7CF14
S11318A00E94EE086ECF8093432D9093442DA09315
S11318B0452DB093462DCBCFEF92FF920F931F93FC
S11318C0CF93DF93F091A200FF93F87FF093A200EF
S11318D08091402D81508093402D8091402D811125
S11318E062C08091512D882309F45DC0C0E0D0E02E
S11318F08BE0F82EEE24E39480915D2D882369F12A
S1131900E091642DF091652DC085D185CE010E96B0
S11319100E94E5038E010E5F1F4FC8010E94E5037C
S11319208A8D90914C2D981710F480934C2DF89E2D
S1131930C0011124B8018E57924D0E948303E09197
S1131940AE2DF091AF2D9A8D828D9817A8F2E0926A
S1131950492D80915D2D8111D3CFCD2B91F0E09154
S11319606A2DF0916B2D808181112CC08FEF9FEF38
S1131970DC018093432D9093442DA093452DB09387
S1131980462DC0914A2DCC2351F0D1E00E94720B18
S11319908111D093492DC150C9F710924A2D8091DD
S11319A0492D81110BC080E0FF91F093A200DF91DB
S11319B0CF911F910F91FF90EF9008950E94D10451
S11319C081E0F2CF0E94EE08DCCF6115710581053C
S11319D0910519F40E94D10408952091402D2F5FA0
S11319E02093402D40E00E9405090E945C0C88234E
S11319F089F308958091402D811102C00C948A09C5
S1131A0081E08093492D0895CF92DF92EF92FF9267
S1131A106A017B016091AE2D7091AF2D625F7F4FA3
S1131A200E94A40341E0C701B601FF90EF90DF904C
S1131A30CF900C940509CF92DF92EF92FF920F930F
S1131A401F9368017901E091AE2DF091AF2D70687C
S1131A5046875787608B718B6091AE2D7091AF2D47
S1131A60625F7F4F0E94830341E0C701B6011F916B
S1131A700F91FF90EF90DF90CF900C940509CF92D7
S1131A80DF92EF92FF92CF936A017B01C22F6091A4
S1131A90AE2D7091AF2D625F7F4F0E948303CC23E4
S1131AA021F0CC24CA94DC2C76014C2FC701B6015A
S1131AB0CF91FF90EF90DF90CF900C9405090F9396
S1131AC01F93CF93DF93DC011796ED91FC91189748
S1131AD0C085D1858E01025F1F4FC8010E94E503B6
S1131AE08091402D811123C00C501109C8010E941E
S1131AF0E5038A8D90914C2D9817F8F0BBE08B9FED
S1131B00C0011124B8018E57924D0E948303E091C5
S1131B10AE2DF091AF2D9A8D828D891788F481E0D6
S1131B208093492DDF91CF911F910F910895B801B2
S1131B308DE59DE20E948303EACF80934C2DDECF96
S1131B4080E0DF91CF911F910F9108950F931F9320
S1131B50CF93DF937068FC01408351836283738366
S1131B60C085D1850E94E5038E010E5F1F4FC80119
S1131B700E94E5038A8D90914C2D981710F4809360
S1131B804C2DFBE08F9FC0011124B8018E57924D5C
S1131B900E948303E091AE2DF091AF2D9A8D828D3A
S1131BA0891718F481E08093492DDF91CF911F911B
S1131BB00F9108952091482DFC01208340914D2DD3
S1131BC050914E2D60914F2D7091502D4183528331
S1131BD0638374830895CF92DF92EF92FF920F9301
S1131BE01F93CF93DF93DC01EB01F091A200FF93ED
S1131BF0F87FF093A20040914D2D50914E2D6091AD
S1131C004F2D7091502D088119812A813B810F3FFE
S1131C108FEF18072807380709F447C01196CD90AD
S1131C20DD90ED90FC9014978091482D9C9198172D
S1131C3029F04C155D056E057F05D0F44C195D093E
S1131C406E097F09401751076207730798F01882DD
S1131C5019821A821B8281E0FF91F093A200DF9126
S1131C60CF911F910F91FF90EF90DF90CF90089547
S1131C7081E0F2CF041B150B260B370B0883198365
S1131C802A833B838091482D8C9340914D2D509114
S1131C904E2D60914F2D7091502D11964D935D9363
S1131CA06D937C93149780E0D7CF80E0D5CF81E00B
S1131CB08093492D089580914B2D882341F0809184
S1131CC0402D811102C082E0089580E0089581E0F2
S1131CD008958F929F92AF92BF92CF92DF92EF922C
S1131CE0FF920F931F93E091AE2DF091AF2D668577
S1131CF0778580899189E091AE2DF091AF2DA091E7
S1131D00AE2DB091AF2D5A962C9134E0C32ED12C28
S1131D10E12CF12C46015701821A9108A108B1085F
S1131D2086869786A08AB18A1F910F91FF90EF90C3
S1131D30DF90CF90BF90AF909F908F900895F091D7
S1131D40A200FF93F87FF093A2008091B62D9091AA
S1131D50B72D892B21F0FF91F093A200089587EC11
S1131D609DE20E946E038CEB9DE20E946E0387EC61
S1131D709DE28093BA2D9093BB2D8CEB9DE28093D2
S1131D80B82D9093B92D40E069E085E00E94C60625
S1131D908093B62D9093B72DFF91F093A2000895F0
S1131DA0CF92DF92EF92FF920F931F93FC01428335
S1131DB053836483758382879387041715072607E3
S1131DC03707A8F00C191D092E093F098685978548
S1131DD0A089B189081719072A073B0718F181E080
S1131DE01F910F91FF90EF90DF90CF9008950C1505
S1131DF01D052E053F0528F44C155D056E057F0570
S1131E0070F7BF016E5F7F4F8091BA2D9091BB2D0B
S1131E100E94A40380E01F910F91FF90EF90DF9048
S1131E20CF900895BF016E5F7F4F8091B82D909140
S1131E30B92D0E94A40380E01F910F91FF90EF90B1
S1131E40DF90CF900895EF92FF920F930E949F0E20
S1131E508091B62D9091B72D892B99F084EBE82EC3
S1131E608DE2F82E03E020E030E048EC50E069E039
S1131E7071E289E090E10E940D0A0F91FF90EF90CA
S1131E80089580E00F91FF90EF9008958F929F92B4
S1131E90AF92BF92CF92DF92EF92FF920F931F9374
S1131EA0CF93DF93CDB7DEB72997CDBFDEBFE091E7
S1131EB0B62DF091B72D309709F43FC069832A837A
S1131EC03B834C835D838E839F83663094F40E94AE
S1131ED05B0E00E0823029F120E030E0A901BE0170
S1131EE06F5F7F4F8091B62D9091B72D0E940107AF
S1131EF008C020E0A801BE016F5F7F4FCF010E94A0
S1131F00BB072996CDBFDEBFDF91CF911F910F9103
S1131F10FF90EF90DF90CF90BF90AF909F908F9005
S1131F200895A7019601BE016F5F7F4F8091B62D82
S1131F309091B72D0E940107E4CF80E0E2CF8F9209
S1131F409F92AF92BF92CF92DF92EF92FF920F9344
S1131F501F93CF93DF9316C00780F085E02D808018
S1131F609180A280B380C085D1858E010E5F1F4F02
S1131F70C8010E94E503ED89FE89CE0119958A897D
S1131F80813001F1E091BA2DF091BB2D8081811156
S1131F90E3CF8091B82D9091B92D8093BA2D909371
S1131FA0BB2DE093B82DF093B92DDF91CF911F9104
S1131FB00F91FF90EF90DF90CF90BF90AF909F90E4
S1131FC08F9008958E859F85A889B989880D991D5C
S1131FD0AA1DBB1D88169906AA06BB0670F48A833F
S1131FE09B83AC83BD83CA87DB87B8018091BA2DFC
S1131FF09091BB2D0E94A403C5CFC12CD12C760196
S113200000E010E0A501940160E0CE010E94460FBB
S1132010B9CFCF93DF93CDB7DEB72997CDBFDEBF5E
S1132020E091BA2DF091BB2D8081882309F4E6C09C
S11320300780F085E02D40805180628073800E948B
S11320405A0B0E94600B4B015C018091B02D909162
S1132050B12DA091B22DB091B32D88169906AA0680
S1132060BB0608F4F2C08092B02D9092B12DA092DC
S1132070B22DB092B32D84149504A604B70408F0CD
S1132080F7C020E0B301A201481959096A097B0984
S11320908091B62D9091B72D0E94C3080E945C0CCC
S11320A0882309F4E2C020E030E0A901BE016F5F9B
S11320B07F4F8091B62D9091B72D0E94FA07882307
S11320C009F4AECF898187FD8CC0AE80BF80F50155
S11320D084859585892B21F0C50102960E94E5032C
S11320E00E94600B2B013C018091B02D9091B12D89
S11320F0A091B22DB091B32D481659066A067B06FD
S113210008F4B0C04092B02D5092B12D6092B22D1F
S11321107092B32D8981082E000C990BAA0BBB0B6E
S11321208A30910508F0BFCFFC018827E250FF4FA9
S11321308F4F0C94AA204A815B816C817D81D501EB
S11321401E964D935D936D937C935197440D551D4D
S1132150661D771D7301620193018201C5010E940E
S1132160D00EA1CFCA80DB80EC80FD80D5011E9605
S11321704D915D916D917C9151974C0D5D1D6E1D3E
S11321807F1D93018201C5010E94D00E882309F4AA
S11321908ACFD5015596ED91FC915697C5011995B5
S11321A0F5018289813009F07ECF4A815B816C819F
S11321B07D8186859785A089B1899A01AB01280F15
S11321C0391F4A1F5B1FC12CD12C760100E010E09F
S11321D060E0C5010E94460F66CFC5010E946D03F1
S11321E062CF4E815F8168857985EA81FB818C812C
S11321F09D811995898187FD56CF67CF0E945A0B1F
S11322000E94600B4B015C018091B02D9091B12D27
S1132210A091B22DB091B32D88169906AA06BB06DB
S1132220A0F08092B02D9092B12DA092B22DB092D8
S1132230B32DE091B82DF091B92D808121E0811169
S113224020E0412C512C32011DCF0E949F0F80921F
S1132250B02D9092B12DA092B22DB092B32D0E94C8
S11322605C0C21CF0E949F0F4DCF0E94D1041BCF45
S11322700E945C0CE091BA2DF091BB2D0780F08593
S1132280E02D20843184C10102960E94E503D1012E
S113229052968C915297813041F0D1015596ED912F
S11322A0FC915697C1011995FECE1E964D915D91F4
S11322B06D917C915197440D551D661D771D7301D9
S11322C0620195018401C1010E94D00E882329F383
S11322D0C12CD12C760100E010E0A301920160E052
S11322E0C1010E94460FD9CF0F931F93CF93DF9361
S11322F0CDB7DEB72997CDBFDEBFEEEFE9838A8382
S11323009B836C837D832E833F834887598720E09A
S1132310A801BE016F5F7F4F8091B62D9091B72DBC
S11323200E94BB072996CDBFDEBFDF91CF911F91DD
S11323300F910895809150008160809350008091A6
S1132340510080FFFCCF80E00E947E018EE10E945C
S11323505C0160E080E00E94660143E060E080E4AC
S11323600E944901809150008860809350008091C0
S1132370510083FFFCCF64E080EC0E945701809100
S1132380500080618093500060E080E00E9466010C
S11323908091510084FFFCCF84E00E947E0187E09D
S11323A00C945C01CF93DF93CDB7DEB7C254D1094F
S11323B0CDBFDEBF80E27E0121E2E20EF11CF70117
S11323C0282F11922A95E9F7FE0131963F011192C7
S11323D08A95E9F731E1832E31E2932E40E2A42E6F
S11323E041E2B42E52E0352E6FE2C62E61E2D62EC3
S11323F073E0472E04E411E2A701BE016F5B7F4F37
S1132400CE018E5B9F4F0E949F1C813009F05CC0FF
S113241023969FAD2397992309F456C01F929F9347
S11324209F928F921F921F921F928F930E949715D3
S113243022968FAD22971F928F93BF92AF921F92D5
S11324401F921F923F920E949715DF92CF921F9284
S11324501F921F924F920E949715CDBFDEBF239605
S11324605FAC239733E05316B1F122968FAD2297D8
S1132470882321F1512C06C0539422968FAD2297C4
S11324805816E0F45816C0F7852D90E0F701E80FD0
S1132490F91F20811F922F931F930F93880F991F69
S11324A09F938F931F924F920E949715CDBFDEBFCB
S11324B0539422968FAD2297581620F323961FAE7D
S11324C0239722961FAE229760ED77E080E090E09C
S11324D00E94E50C91CF22964FAD229750E0B701B0
S11324E0C3010E94D1207F926F92E7E4F1E2FF934F
S11324F0EF931F921F921F925F920E949715CDBF78
S1132500DEBF23961FAE239722961FAE2297DCCF01
S11325100895EF92FF920F93CF930E94461EC82F07
S11325200E949A110E94F313E12CF12C03E020E0A5
S113253030E048EE53E06AE471E28CED9CE10E94E5
S11325400D0A02E020E030E04CE251E060E070E08F
S113255082ED91E10E940D0A0E948D151F92CF9386
S113256085E591E29F938F931F921F921F921F9272
S11325700E9497150E941F0B8DB79EB708968DBFBA
S11325809EBF80E090E0CF910F91FF90EF9008956F
S11325901F920F920FB60F9211240BB60F922F9326
S11325A03F934F935F936F937F938F939F93AF93D7
S11325B0BF93EF93FF93CF93DF931F92CDB7DEB713
S11325C019829E012F5F3F4F41E050E060E070E0D0
S11325D080911F2E9091202E0E94380360E080E0AD
S11325E09BE00E949C011092060B0F90DF91CF910B
S11325F0FF91EF91BF91AF919F918F917F916F91D7
S11326005F914F913F912F910F900BBE0F900FBE92
S11326100F901F901895CF92DF92EF92FF920F9335
S11326206B017C0181E08093060B1092200B1092C9
S1132630210B60E082E0C816D104E104F104E8F162
S113264080E09BE00E94A8018EEFC8168FEFD806A9
S1132650E104F10408F441C080E4C81682E4D80619
S11326608FE0E806F104C0F084EFC82EDD24D39493
S1132670E12CF12C00E021E041E050E060E070E06A
S113268080911F2E9091202E0E94D6010F91FF90D1
S1132690EF90DF90CF90089595E0F694E794D79467
S11326A0C7949A95D1F7C092260BD092270B67E076
S11326B080E09BE00E949C01D7CF80E09BE00E94D9
S11326C0A80181E090E08093260B9093270B65E0AE
S11326D080E09BE00E949C01C7CFF694E794D794D6
S11326E0C794C601F0CFEF92FF920F931F93CF933D
S11326F0DF93F82E282F207FC0E0D6E09C81822F24
S11327008F6098239C838C81822B8C8300E616E057
S113271081E0F801868382E0868384E0E82EE58206
S113272061E070E080E090E00E940B13F801E68223
S11327308F2D8295807F9C81282F2F6092239C83EC
S1132740FC80F82AFC82E58261E070E080E090E0A1
S11327500E940B13F801E682DF91CF911F910F9134
S1132760FF90EF900895EF92FF920F931F93CF93F2
S1132770DF93F82E282F207FC0E0D6E09C81822FA3
S11327808F6098239C838C81822B8C8300E616E0D7
S113279081E0F801858382E0868384E0E82EE58287
S11327A061E070E080E090E00E940B13F801E682A3
S11327B08F2D8295807F9C81282F2F6092239C836C
S11327C0FC80F82AFC82E58261E070E080E090E021
S11327D00E940B13F801E682DF91CF911F910F91B4
S11327E0FF90EF900895EF92FF920F93E0E0F6E0F0
S11327F080E1818380E2818380E4818380E8818336
S1132800A0E6B6E081E011968C93119782E01196D0
S11328108C93119784E011968C93119784818F7017
S1132820848314968C911497887F14968C9340E03B
S113283066E188E00E94C60680931D2E90931E2EAA
S11328400E94C10180931F2E9093202EE12CF12C25
S113285001E020E030E04EE551E06AE671E285E80F
S113286094E10E940D0A0F91FF90EF90089581303A
S1132870910531F1CCF08230910561F0039721F498
S113288084ED860F0E94731367E270E080E090E0AD
S11328900C940B1384E9860F0E94731367E270E0B3
S11328A080E090E00C940B13892B71F780E8860F7D
S11328B00E94731367E270E080E090E00C940B13C5
S11328C080EC860F0E94731367E270E080E090E072
S11328D00C940B130F931F93CF93DF93EC018C0194
S11328E00C5E1F4F8991882359F00E94B3136BE249
S11328F070E080E090E00E940B13C017D10791F7BD
S1132900DF91CF911F910F910895CF93DF93CDB7AE
S1132910DEB7C656D109CDBFDEBF7E0141E5E40E68
S1132920F11CFE01319680E29F012C5E3F4F8193A2
S1132930E217F307E1F7EE16FF06B1F760E47CE96E
S113294080E090E00E940B13809104068F738093C3
S113295004068091040680638093040668E873E1AA
S113296080E090E00E940B1314E01093650661E090
S113297070E080E090E00E940B131093660660EA1A
S113298070E080E090E00E940B131093650661E014
S113299070E080E090E00E940B131093660660EAFA
S11329A070E080E090E00E940B131093650661E0F4
S11329B070E080E090E00E940B131093660660EADA
S11329C070E080E090E00E940B13809104068F7207
S11329D08093040680910406806280930406109319
S11329E0650661E070E080E090E00E940B131093B4
S11329F0660688E20E94731380E10E9473138CE0E0
S1132A000E94731386E00E94731310E286E1C82EBD
S1132A10D12C68EC70E080E090E00E94E50C40E08E
S1132A2050E0BA0180911F2E9091202E0E948202C4
S1132A30672B682B692B49F142E050E060E070E0BD
S1132A4080911F2E9091202E0E948202FE013196C9
S1132A50CF0144961193E817F907E1F7EE15FF0546
S1132A60B9F780911D2E90911E2E0E94B7088823DD
S1132A70A1F02FEF3FEFA901B70180911D2E909196
S1132A801E2E0E94FA07811120C080911D2E909164
S1132A901E2E0E94B7088111ECCFCE0101964C0185
S1132AA0A12CB12C60E070E0C5010E943714C40170
S1132AB00E946A149FEFA91AB90AE4E18E0E911CD0
S1132AC0F4E0AF16B10471F7A4CFF701218130E02F
S1132AD024313105D4F682818823B9F29081D90159
S1132AE0F4E19F9FA00DB11D112441E050E04C0F73
S1132AF05D1FA40FB51FF7013396A601421B530BAC
S1132B009A012E0D3F1D04C08191882309F4BDCF85
S1132B108D93E217F307C1F7B8CF42E050E060E0CD
S1132B2070E080911F2E9091202E0C94A3022F927E
S1132B303F924F925F926F927F928F929F92AF9249
S1132B40BF92CF92DF92EF92FF920F931F93CF9396
S1132B50DF93CDB7DEB76D97CDBFDEBF2BA9298F2D
S1132B608FA998ADDE01D9962AEF3DE256EEA52E47
S1132B705DE2B52EF50111922E173F07E1F742ED04
S1132B80242E4DE2342E26EE3DE2F10111922E1751
S1132B903F07E1F7812C912CFC012081222391F045
S1132BA0253209F45BC0F401EE52F24D2A3009F4E7
S1132BB070C020830196FFEF8F1A9F0AFC012081C9
S1132BC02111EECF8DA99EA9880D991D44973CF043
S1132BD084E190E04C012DA93EA9821A930AFE01DA
S1132BE03396CE014796DF011D92A817B907E1F786
S1132BF0398D39838DA98A83181419040CF0AEC257
S1132C00C4010296BE016F5F7F4F860F971FD101EB
S1132C102D911D0121938E179F07C9F700E02FEF17
S1132C203FEFA90180911D2E90911E2E0E94010755
S1132C306D96CDBFDEBFDF91CF911F910F91FF90B5
S1132C40EF90DF90CF90BF90AF909F908F907F9048
S1132C506F905F904F903F902F900895FC013296B3
S1132C60EF8BF88FFC018181853609F47BC198F4E0
S1132C70833609F46BC108F042C18532A1F4F40132
S1132C80EE52F24D8083FFEF8F1A9F0A8F89988D41
S1132C9083CF10828FCF833709F4E6C0883709F4D5
S1132CA007C1863619F08F89988D76CF9D012C5FE8
S1132CB03F4F2A8F3B8F4D905D906D907C9020E02C
S1132CC030E0A901C301B2010E94D91E882309F48E
S1132CD03FC220E030E0A901C301B2010E94D91E25
S1132CE087FD18C226EEC22E2DE2D22E20E030E05F
S1132CF040E85FE3C301B2010E94382087FD39C276
S1132D00E12CF12C20E030E040E251E4C301B201B7
S1132D100E94DE1E2B013C019FEFE91AF90A20E014
S1132D2030E040E85FE3C301B2010E94382087FF2E
S1132D30E9CF2DEC3CEC4CEC5DE3C301B2010E9405
S1132D40D91E87FF19C020E030E040E251E4C301FE
S1132D50B2010E943D202B013C01A1E0EA1AF108D6
S1132D602DEC3CEC4CEC5DE30E94D91E87FDEBCFCF
S1132D701E141F040CF00AC286010E0D1F1D20E054
S1132D8030E040E251E4C301B2010E943D202B0136
S1132D903C010E94501F20E3260FF60121936F018E
S1132DA0072E000C880B990B0E94881F9B01AC0115
S1132DB0C301B2010E946C1E2B013C01C016D10656
S1132DC0F1F686010F5F1F4FEEE2D601EC93F4E0BB
S1132DD0EF16F1044CF5680184E090E08E199F0928
S1132DE0080F191F20E030E040E251E4C301B201B2
S1132DF00E943D202B013C010E94501F20E3260F1E
S1132E00D6012D936D01072E000C880B990B0E949F
S1132E10881F9B01AC01C301B2010E946C1E2B01EF
S1132E203C010C151D05F1F6F801108294012E5297
S1132E30324DA6EEBDE280E090E005C04D91F9016F
S1132E4041939F010196F50101900020E9F7319724
S1132E50E65EFD428E179F0788F38E0E9F1EAA8D95
S1132E60BB8D8F89988D98CEBD016E5F7F4F0D907D
S1132E70BC91A02DAD0194012E52324D80E090E022
S1132E8007C0FA011191AF01F90111939F01019655
S1132E90FD0101900020E9F73197EA1BFB0B8E1727
S1132EA09F0778F38E0E9F1EDB018F89988D74CE59
S1132EB08D010E5F1F4F40E166EE7DE28D919C9186
S1132EC00E94E02094012E52324DA6EEBDE280E035
S1132ED090E005C04D91F90141939F010196F501E0
S1132EE001900020E9F73197E65EFD428E179F07B7
S1132EF088F38E0E9F1ED8018F89988D4DCE8D013B
S1132F000E5F1F4F4AE066EE7DE28D919C910E9418
S1132F10E02094012E52324DA6EEBDE280E090E016
S1132F2005C04D91F90141939F010196F50101906E
S1132F300020E9F73197E65EFD428E179F0788F37C
S1132F408E0E9F1ED8018F89988D26CEF401EE52E5
S1132F50F24D8C9180832FEF821A920A12968F89F8
S1132F60988D1ACE9D012C5F3F4F2A8F3B8F4D9039
S1132F705D906D907C9020E030E0A901C301B20126
S1132F800E94D91E882309F4DDC020E030E0A901A5
S1132F90C301B2010E94D91E87FDC8C086EEC82EA7
S1132FA08DE2D82E20E030E040E85FE3C301B201B7
S1132FB00E94382087FDD6C0E12CF12C01C0780195
S1132FC020E030E040E251E4C301B2010E94DE1E81
S1132FD02B013C0187010F5F1F4F20E030E040E8E8
S1132FE05FE30E94382087FFEACFEC8EFD8E2DEC44
S1132FF03CEC4CEC5DE3C301B2010E94D91E87FD99
S113300002C01BC0870120E030E040E251E4C3016C
S1133010B2010E943D202B013C017801B1E0EB1A82
S1133020F1082DEC3CEC4CEC5DE30E94D91E87FDCD
S1133030E9CFF8013297EC8FFD8F20E030E040E2D9
S113304051E4C301B2010E943D202B013C010E94C6
S1133050501F20E3260FD6012C93072E000C880B5B
S1133060990B0E94881F9B01AC01C301B2010E940D
S11330706C1E2EE2F601218386010E5F1F4F76013E
S113308036E0E30EF11C20E030E040E251E40E941F
S11330903D202B013C010E94501F20E3260FD80144
S11330A02D938D01072E000C880B990B0E94881F0D
S11330B09B01AC01C301B2010E946C1EE016F10633
S11330C011F725E6F6012683B601695F7F4F4AE0D2
S11330D08C8D9D8D0E94E02094012E52324DA6EEDF
S11330E0BDE280E090E005C04D91F90141939F015C
S11330F00196F50101900020E9F73197E65EFD4263
S11331008E179F0788F38E0E9F1EAA8DBB8D8F8905
S1133110988D42CD8DE28093E62D77FA709477F8FE
S1133120709437EEC32E3DE2D32EE0CD8DE2809332
S1133130E62D77FA709477F8709497EEC92E9DE295
S1133140D92E30CF30E33093E62D1092E72DC4CF43
S113315030E33093E62D1092E72D68CEBE016F5F09
S11331607F4F5CCDAFEFBFEFAC8FBD8F00E010E0C1
S11331703ECF2DEC3CEC4CEC5DE3C301B2010E946C
S1133180D91E87FF1BC0E12CF12CDDCDE0E3D60175
S1133190EC9386010E5F1F4FFEE21196FC93EF281D
S11331A0A9F080E090E00F5F1F4FF801319720E312
S11331B02083019684309105B1F736CE20E3F601E1
S11331C0208386010E5F1F4F3EE23183E12CF12CF8
S11331D002CECF93DF9300D0CDB7DEB719820E9421
S11331E0C1018093212E9093222E00E087E0F82ED7
S11331F015C064E070E080E090E00E94E50C8091EE
S1133200632E9091642E0E94B708811140C000E0A3
S113321064E070E080E090E00E94E50C8091632E11
S11332209091642E0E94B708882391F38091632EB5
S11332309091642E21E030E040E050E0BE016D5FEB
S11332407F4F0E94FA07013009F460C068F1023030
S113325009F491C0033091F48B81811721F0F0922D
S1133260FA2D1092FB2D41E050E060E070E0809177
S1133270212E9091222E0E94A30219828091632E06
S11332809091642E0E94B708882309F4B2CF8091EC
S1133290632E9091642E21E030E040E050E0BE01C6
S11332A06D5F7F4F0E94FA078B818F3F39F741E0B2
S11332B050E060E070E08091212E9091222E0E94D7
S11332C082028091632E9091642E0E94B70881112E
S11332D010C064E070E080E090E00E94E50C809112
S11332E0632E9091642E0E94B708811102C001E000
S11332F08FCF8091632E9091642E21E030E040E0E6
S113330050E0BE016D5F7F4F0E94FA071B81812F41
S11333108295869587708093FA2D812F8F718A8389
S11333208A818093FB2D8A81882391F18091632E79
S11333309091642E0E94B708811110C064E070E07F
S113334080E090E00E94E50C8091632E9091642EC1
S11333500E94B708811102C002E05ACF8091632E07
S11333609091642E21E030E040E050E0BE016D5FBA
S11333707F4F0E94FA07E9818B81F0E0E650F24D1D
S11333808283182789818F5F89839A81891770F2D4
S11333908091632E9091642E0E94B708811110C011
S11333A064E070E080E090E00E94E50C8091632E80
S11333B09091642E0E94B708811102C003E028CFC7
S11333C08091632E9091642E21E030E040E050E043
S11333D0BE016D5F7F4F0E94FA073ECF61E080E43B
S11333E099E00E94A20163E080E499E00E94AE01AA
S11333F088EE93E0809366099093670988ED809343
S1133400870108951092000180E480930001809167
S1133410000186FDFCCF88E88093000110923601FC
S11334208091310181608093310175E270933001A4
S11334306DE96093320130E13093330140E450E0B0
S1133440409334015093350124E22093380192E0F3
S11334509093390110923A01E3E2FEE2E0933C01D9
S1133460F0933D0110923E0110924601809141017A
S113347081608093410170934001609342013093D5
S11334804301409344015093450120934801909394
S1133490490110924A0187E69EE280934C01909381
S11334A04D0110924E01809130018068809330016B
S11334B08091400180688093400108952F923F924B
S11334C04F925F926F927F928F929F92AF92BF9230
S11334D0CF92DF92EF92FF920F931F93CF93DF93DC
S11334E0CDB7DEB7A097CDBFDEBF7C016B877C87ED
S11334F04D875E8739010B8B1C8BFA0180818630E6
S113350008F4CAC00BEF302E380E40E050E0A12C76
S1133510B12C832C912CD32CF4013196EE0FFF1F88
S1133520D3010D90BC91A02DA987BA87EE0DFF1D84
S113353080819181A817B90708F083C032978081F0
S11335409181A817B90708F47CC0B401A0E000E099
S113355010E0412C512CC12C312C23C0A80EB91ED3
S1133560F401E30DF11DEE0FFF1FEE0DFF1D208191
S113357031812817390710F42C013A2EF401EC0D8F
S1133580F11DEE0FFF1FEE0DFF1D2081318182170B
S1133590930710F48C01CA2EAF5F6F5F7F4FA03288
S11335A061F0FB01EE0FFF1FEE0DFF1D8081918185
S11335B0A031A0F2480F591FD3CFB294A2947FE058
S11335C0A722AB24B722AB24529542954F704527CE
S11335D05F704527B501640F751F769567958985DA
S11335E09A85880F991F880F991FA985BA85A80FF6
S11335F0B91F9B012A0F3B1FABEABAEA0E94B22013
S11336009695879596958795F301808391833C14CD
S1133610C0F4232D30E02C0D311D359527952C5009
S1133620273078F4040D151D169507959C0120523A
S113363033400217130728F0205C394F2017310755
S113364098F5D394EB85FC8580818D2C912C282FC3
S113365030E0281539050CF05FCF8134F8F0EB85A4
S1133660FC851082ED85FE85108280E0A096CDBF9A
S1133670DEBFDF91CF911F910F91FF90EF90DF900C
S1133680CF90BF90AF909F908F907F906F905F90FE
S11336904F903F902F900895312C37CF805EEB856B
S11336A0FC85808380E0E2CF3D2C8D8B9E8B6B8EDE
S11336B07C8E609100217091012180E090E00E9455
S11336C0861F5B016C01609102217091032180E0EF
S11336D090E00E94861F9B01AC01C601B5010E94C7
S11336E0DE1E6F8B788F898F9A8F19821A821B82C4
S11336F01C821D821E821F8218865401AA0CBB1CC8
S1133700AE0CBF1C80ECC82E80E2D82E20E830E23C
S1133710298B3A8B40E450E24F87588B80E090E24B
S113372089879A8790E0692E91E2792E4D8E5E8E7C
S1133730EF8EF8A2F32C2F88388C498C5A8C3BC01E
S1133740020F131F09831A832B813C81A989BA892B
S11337504D915D91A98BBA8BFB01E41BF50BAF0175
S1133760F7FD55C0240F351F2B833C832D813E81EB
S1133770AF85B8894D915D91AF87B88BFB01E41B90
S1133780F50BAF01F7FD3FC0240F351F2D833E839A
S11337902F813885A985BA854D915D91A987BA870E
S11337A0641B750B77FD2BC0620F731F6F837887C3
S11337B06C147D0481F1D5016D917D915D010981C8
S11337C01A81ED89FE896E1B7F0B072E000C880B76
S11337D0990B0E94881FA20191010E943D200E9422
S11337E0501FD6012D913D916D01FB01E21BF30B9E
S11337F09F01F7FFA5CF319521953109A1CF71958F
S113380061957109D1CF519541955109BDCF51951C
S113381041955109A7CF3F2C4D8C5E8CEF8CF8A0BD
S113382041E050E060E0FA01EE0FFF1F21E030E0DC
S11338302C0F3D1FE20FF31F20813181E62FF0E0B2
S1133840EE0FFF1F81E090E08C0F9D1FE80FF91F22
S11338508081918137FD6FC097FD69C028173907B2
S11338600CF4642F4F5F5F4F44305105E1F6AB8990
S1133870BC896C936330F9F4809102219091032107
S11338809C01220F331F220F331F280F391FEB8D8A
S1133890FC8D80819181281B390B240D351DABEAE9
S11338A0BAEA0E94B220969587959695879580935B
S11338B0022190930321AB85BC858C91813460F106
S11338C0582F5319252F30E02D5F3F4FFCE18F0E09
S11338D0911C40E080E090E0FC01E80DF91DEE0F42
S11338E0FF1FEE0DFF1D60817181880F991FF70185
S11338F0E80FF91F608371834F5F842F90E02817CE
S1133900390754F784E0850FAB85BC858C93ED852E
S1133910FE85108281E0AACE805EAB85BC858C9347
S113392080E2830DED85FE85808381E09FCE9195B5
S11339308195910993CF3195219531098DCFEF92DE
S1133940FF920F931F93CF93DF937C01EB018A01C6
S113395041E050E060E070E08091212E9091222EB1
S11339600E94820260FF20C08091FA2DF7018083BB
S11339708091FB2D8883882379F020E0822F90E0CA
S1133980FC01E650F24D3281F801E80FF91F308353
S11339902F5F8881281790F381E0DF91CF911F91E9
S11339A00F91FF90EF90089580E0DF91CF911F91E8
S11339B00F91FF90EF900895CF93DF93CDB7DEB7CB
S11339C0C650D140CDBFDEBF9E012F5F3F4F69017E
S11339D080E091E0F9019C01119221503040E1F71F
S11339E0CA5FDE4F1882C650D140CB5FDE4F1882CB
S11339F0C550D140CD5FDE4F1882C350D14080ED19
S1133A0097E0CF5FDE4F88839983C150D14040E077
S1133A1060E481E00E94C6068093652E9093662E32
S1133A2040E061E088E00E94C6068093632E909394
S1133A30642E0E94021A81E0809300021092010217
S1133A4090E29093020293E09093040299E390939E
S1133A5003028093200285E58093210210922202C2
S1133A600E94EE19E12CF12C02E020E030E048EC59
S1133A7050E065E771E289EE98E10E940D0AB12CED
S1133A808091652E9091662E0E94B708882309F4D0
S1133A9062C0CA5FDE4F6881C650D14070E0660FD5
S1133AA0771F6C0D7D1D20E030E0A9018091652E0B
S1133AB09091662E0E94FA078E010C5F1E4F9E01A4
S1133AC02F5F3E4FAE014B5F5E4FBE016A5F7E4F7C
S1133AD0C6010E945E1A813099F6CC5FDE4F888160
S1133AE0C450D14090E0CD5FDE4F2881C350D14017
S1133AF0422F469546959C010024369527950794B8
S1133B00369527950794322F202D242BCD5FDE4F39
S1133B102883C350D140F694E794F694E79490E454
S1133B20899F902D88271124E82AF92AB39433E039
S1133B303B15C0F085E0E8168FEAF80609F0A0CF3F
S1133B40B12CE12CF12C8091652E9091662E0E946F
S1133B50B70881119ECF61E070E080E090E00E94A0
S1133B60E50C8ECF8091632E9091642E00E020E0CE
S1133B7030E0A901BE016D5F7E4F0E940107CD5F59
S1133B80DE4F1882C350D140B12CD4CF1F920F9274
S1133B900FB60F9211240BB60F922F933F934F93AE
S1133BA05F936F937F938F939F93AF93BF93EF93A1
S1133BB0FF93CF93DF931F92CDB7DEB7E0E0F1E040
S1133BC081A9806181AB198220E0AE014F5F5F4F14
S1133BD063E27EE28091652E9091662E0E94BB077F
S1133BE00F90DF91CF91FF91EF91BF91AF919F9192
S1133BF08F917F916F915F914F913F912F910F9092
S1133C000BBE0F900FBE0F901F9018951F920F922E
S1133C100FB60F9211240BB60F922F933F934F932D
S1133C205F936F937F938F939F93AF93BF93EF9320
S1133C30FF93CF93DF931F92CDB7DEB7E1E4F1E0BA
S1133C40808180618083198220E0AE014F5F5F4FE5
S1133C5067E67EE28091652E9091662E0E94BB07F6
S1133C600F90DF91CF91FF91EF91BF91AF919F9111
S1133C708F917F916F915F914F913F912F910F9011
S1133C800BBE0F900FBE0F901F9018958091780077
S1133C9085FD12C08091780080FF05C081E080938B
S1133CA0780082E008958091780084FF0AC080E162
S1133CB08093780083E0089580E28093780081E027
S1133CC008958091780081FF05C082E08093780098
S1133CD084E0089582E008955058BB27AA270E94E3
S1133CE0841E0C94FE1F0E94F01F38F00E94F71FE0
S1133CF020F039F49F3F19F426F40C94ED1F0EF4D0
S1133D00E095E7FB0C94E71FE92F0E940F2058F37E
S1133D10BA17620773078407950720F079F4A6F5AC
S1133D200C9431200EF4E0950B2EBA2FA02D0B012C
S1133D30B90190010C01CA01A0011124FF27591BEC
S1133D4099F0593F50F4503E68F11A16F040A22FF2
S1133D50232F342F4427585FF3CF46953795279563
S1133D60A795F0405395C9F77EF41F16BA0B620B62
S1133D70730B840BBAF09150A1F0FF0FBB1F661FA9
S1133D80771F881FC2F70EC0BA0F621F731F841FEC
S1133D9048F4879577956795B795F7959E3F08F012
S1133DA0B0CF9395880F08F09927EE0F97958795D4
S1133DB008950E94C31F08F481E008950E94F21E32
S1133DC00C94FE1F0E94F71F58F00E94F01F40F051
S1133DD029F45F3F29F00C94E71F51110C94322011
S1133DE00C94ED1F0E940F2068F39923B1F355231F
S1133DF091F3951B550BBB27AA27621773078407FA
S1133E0038F09F5F5F4F220F331F441FAA1FA9F38F
S1133E1035D00E2E3AF0E0E832D091505040E6957D
S1133E20001CCAF72BD0FE2F29D0660F771F881FDE
S1133E30BB1F261737074807AB07B0E809F0BB0BD1
S1133E40802DBF01FF2793585F4F3AF09E3F5105E5
S1133E5078F00C94E71F0C9432205F3FE4F3983E13
S1133E60D4F3869577956795B795F7959F5FC9F7CE
S1133E70880F911D9695879597F90895E1E0660F4F
S1133E80771F881FBB1F621773078407BA0720F0C8
S1133E90621B730B840BBA0BEE1F88F7E095089531
S1133EA00E94571F6894B1110C94322008950E9407
S1133EB0172088F09F5798F0B92F9927B751B0F081
S1133EC0E1F0660F771F881F991F1AF0BA95C9F79A
S1133ED014C0B13091F00E943120B1E008950C94E7
S1133EE03120672F782F8827B85F39F0B93FCCF39A
S1133EF0869577956795B395D9F73EF49095809517
S1133F00709561957F4F8F4F9F4F0895E89409C036
S1133F1097FB3EF490958095709561957F4F8F4FF8
S1133F209F4F9923A9F0F92F96E9BB279395F6950E
S1133F30879577956795B795F111F8CFFAF4BB0F8C
S1133F4011F460FF1BC06F5F7F4F8F4F9F4F16C0F0
S1133F50882311F096E911C0772321F09EE8872F7A
S1133F60762F05C0662371F096E8862F70E060E036
S1133F702AF09A95660F771F881FDAF7880F9695AF
S1133F80879597F90895990F0008550FAA0BE0E853
S1133F90FEEF16161706E807F907C0F01216130607
S1133FA0E407F50798F0621B730B840B950B39F447
S1133FB00A2661F0232B242B252B21F408950A26AD
S1133FC009F4A140A6958FEF811D811D089597F9ED
S1133FD09F6780E870E060E008959FEF80EC0895AB
S1133FE000240A94161617061806090608950024D4
S1133FF00A9412161306140605060895092E03944E
S1134000000C11F4882352F0BB0F40F4BF2B11F4C1
S113401060FF04C06F5F7F4F8F4F9F4F089557FD20
S11340209058440F551F59F05F3F71F04795880F22
S113403097FB991F61F09F3F79F0879508951216B9
S113404013061406551FF2CF4695F1DF08C0161665
S113405017061806991FF1CF869571056105089416
S11340600895E894BB2766277727CB0197F908952D
S11340700E94C31F08F48FEF08950E9450200C94EF
S1134080FE1F0E94F01F38F00E94F71F20F09523B6
S113409011F00C94E71F0C94ED1F11240C943220A2
S11340A00E940F2070F3959FC1F3950F50E0551FA8
S11340B0629FF001729FBB27F00DB11D639FAA2779
S11340C0F00DB11DAA1F649F6627B00DA11D661FC8
S11340D0829F2227B00DA11D621F739FB00DA11DE9
S11340E0621F839FA00D611D221F749F3327A00DA3
S11340F0611D231F849F600D211D822F762F6A2F3F
S113410011249F5750409AF0F1F088234AF0EE0FA3
S1134110FF1FBB1F661F771F881F91505040A9F7D0
S11341209E3F510580F00C94E71F0C9432205F3FB2
S1134130E4F3983ED4F3869577956795B795F7950C
S1134140E7959F5FC1F7FE2B880F911D9695879584
S113415097F90895EE0FFF1F881F8BBF0790F69104
S1134160E02D1994A29FB001B39FC001A39F700DCD
S1134170811D1124911DB29F700D811D1124911D6B
S11341800895FB01DC0102C001900D9241505040A2
S1134190D8F70895DC0101C06D9341505040E0F719
S11341A00895FB01DC014150504048F001900D920C
S11341B00020C9F701C01D9241505040E0F7089516
S11341C0BB274A3031F4992322F4BDE290958195BE
S11341D09F4F0C94EC20BB27FB015527AA27880F7F
S11341E0991FAA1FA41710F0A41B83955051B9F767
S11341F0A05DAA3308F0A95DA193009779F7B111E6
S1134200B1931192CB010C940521DC01FC01672FC1
S113421071917723E1F7329704C07C916D93708399
S11142206291AE17BF07C8F30895F894FFCF5C
S113422E0000D9017C03BC0476059E0538055C04A8
S113423E3303EA01B200B4FF10FFD2FEF6FE67FFAD
S113424E000099000A012E01F0004C004EFF16FEEC
S113425ECDFCA4FBC8FA62FA8AFA44FB84FC27FE5E
S113426E00008901E002D90355044A04BD03CB02C0
S113427E9A01590037FF60FEEFFDEFFD5AFE17FF5E
S113428E0000E900A60111021102A001C900A7FF56
S113429E66FE35FD43FCB6FBABFB27FC20FD77FE2B
S11342AE00003D015B024103DD0323041704C00338
S11342BE33038602D3012F01A9004D00170003001A
S11342CE0000FDFFE9FFB3FF57FFD1FE2DFE7AFD7F
S11342DECDFC40FCE9FBDDFB23FCBFFCA5FDC3FECE
S11342EE0000ED00BF015E02BC02CF029C022F0251
S11342FE9A01F5005800DBFF88FF6AFF7BFFB3FFCE
S113430E00004D008500960078002500A8FF0BFFE5
S113431E66FED1FD64FD31FD44FDA2FD41FE13FF99
S113432E9E05EE0249444C4500546D72205376634B
S113433E00436F6D6D616E643A2020202564200069
S113434E4461746142797465733A202564200020B7
S113435E202020202020202020202020202020204B
S113436E2020200025780025730051414D446563BB
S113437E6F6465720051414D2034204465636F644F
S113438E65722020523A202564006469737055705A
S113439E646174650050726F746F636F6C4465630F
S10943AE6F64657200005B
S9030000FC
