S00E000051414D47656E2E737265631D
S11300000C9420010C944A010C944A010C944A016A
S11300100C944A010C944A010C94A92F0C94E72FD8
S11300200C9425300C9463300C944A010C944A01CE
S11300300C944A010C944A010C94D70B0C944A0179
S11300400C944A010C944A010C944A010C944A0100
S11300500C944A010C944A010C944A010C944A01F0
S11300600C944A010C944A010C944A010C944A01E0
S11300700C944A010C944A010C944A010C944A01D0
S11300800C944A010C944A010C944A010C944A01C0
S11300900C944A010C944A010C944A010C944A01B0
S11300A00C944A010C944A010C944A010C944A01A0
S11300B00C944A010C944A010C944A010C944A0190
S11300C00C944A010C944A010C944A010C944A0180
S11300D00C944A010C944A010C944A010C944A0170
S11300E00C944A010C944A010C944A010C944A0160
S11300F00C944A010C944A010C944A010C944A0150
S11301000C944A010C944A010C944A010C944A013F
S11301100C944A010C944A010C944A010C944A012F
S11301200C944A010C944A010C944A010C944A011F
S11301300C944A010C944A010C944A010C944A010F
S11301400C944A010C944A010C944A010C944A01FF
S11301500C944A010C944A010C944A010C944A01EF
S11301600C944A010C944A010C944A010C944A01DF
S11301700C944A010C944A010C944A010C944A01CF
S11301800C944A010C944A010C944A010C944A01BF
S11301900C944A010C944A010C944A010C944A01AF
S11301A00C944A010C944A010C944A010C944A019F
S11301B00C949A230C944A010C944A010C944A011D
S11301C00C944A010C944A010C944A010C944A017F
S11301D00C944A010C944A010C944A010C944A016F
S11301E00C944A010C944A010C944A010C944A015F
S11301F00C944A010C944A010C944A011F1F1F1FBE
S11302001F1FA61F721FA01F1F1F1F1FA61F721FC5
S11302100C94C8300C94A01F0C94B4210C94C818EE
S11302200C94A02E0C94A61F0C94011D0C94B506DE
S11302300C94721F0C943D230C942D260C941F1FB8
S113024011241FBECFEFCDBFDFE3DEBF00E00CBF44
S1130250E3EDFEE28AEA90E48193E030F907E0F30B
S1130260000011E2A0E0B0E2E2E2FAE600E00BBF37
S113027002C007900D92A234B107D9F72EE2A2E48E
S1130280B1E201C01D92A33DB207E1F70E945121E2
S11302900C940F350C940000CF93DF93CDB7DEB7E9
S11302A080EA96E020E1FC01228380EA96E020E2E5
S11302B0FC01228380EA96E020E4FC01228380EAA8
S11302C096E020E8FC0122830000DF91CF9108959D
S11302D0CF93DF93CDB7DEB780EA96E0FC0180854B
S11302E0882F90E0807199279595879595958795A6
S11302F09595879595958795892B89F480914221C9
S11303009091432180369A4E20F58091422190911C
S11303104321019680934221909343211AC08091F6
S11303204221909143210B9768F080914221909152
S11303304321C39718F01092BE2E07C081E080932A
S1130340BE2E03C082E08093BE2E109242211092F2
S1130350432180EA96E0FC018085882F90E080723A
S113036099279595879595958795959587959595CD
S1130370879595958795892B89F48091442190914F
S1130380452180369A4E20F5809144219091452153
S1130390019680934421909345211AC08091442171
S11303A0909145210B9768F08091442190914521CB
S11303B0C39718F01092BF2E07C081E08093BF2E20
S11303C003C082E08093BF2E1092442110924521F5
S11303D080EA96E0FC018085882F90E0807499275C
S11303E0082E892F000C881F990B000C881F991F59
S11303F0892B89F4809146219091472180369A4E29
S113040020F58091462190914721019680934621C1
S1130410909347211AC080914621909147210B97D0
S113042068F08091462190914721C39718F010926B
S1130430C02E07C081E08093C02E03C082E0809369
S1130440C02E109246211092472180EA96E0FC01CA
S1130450808588238CF080914821909149218036B1
S11304609A4E20F5809148219091492101968093DC
S11304704821909349211AC08091482190914921A3
S11304800B9768F08091482190914921C39718F007
S11304901092C12E07C081E08093C12E03C082E078
S11304A08093C12E10924821109249210000DF91BF
S11304B0CF910895CF93DF931F92CDB7DEB7898391
S11304C08981882F90E08130910579F082309105FF
S11304D01CF4892B39F012C08230910549F003973E
S11304E051F00CC08091BE2E0AC08091BF2E07C06F
S11304F08091C02E04C08091C12E01C082E00F9073
S1130500DF91CF9108950F93CF93DF9300D000D064
S1130510CDB7DEB78C839D836E838FE390E0FC01BF
S113052080818B83F8948C819D8189839A838BE36A
S113053090E0FC01108289819A812E81FC0108EDF2
S113054004BF20838FE390E02B81FC012083000013
S11305502696CDBFDEBFDF91CF910F910895CF9343
S1130560DF9300D0CDB7DEB789836A834B8380E500
S113057090E02A81222311F020E201C020E0398199
S1130580322B2B81232BFC01228300002396CDBF29
S1130590DEBFDF91CF910895CF93DF931F921F9217
S11305A0CDB7DEB789836A838A818F718A8380E5B8
S11305B090E039812A81232BFC01258300000F90D0
S11305C00F90DF91CF910895CF93DF931F921F92E5
S11305D0CDB7DEB78A8380E590E020E530E0F9010D
S11305E02081322F2A8120952323FC01208380E55A
S11305F090E0FC0190818A818923898389810F900D
S11306000F90DF91CF910895CF93DF9300D0CDB7B2
S1130610DEB78A836B839A818B81892B8983698175
S113062081E490E00E94830200002396CDBFDEBFE8
S1130630DF91CF910895CF93DF931F921F92CDB78F
S1130640DEB78A8380E490E0FC018081982F987F54
S11306508A81892B8983698180E490E00E948302E6
S113066080E490E0FC0190818A81892389838981D7
S11306700F900F90DF91CF910895CF93DF9300D027
S1130680CDB7DEB789839A836B8389819A81FC0114
S11306908081982F907F8B81892B282F89819A8143
S11306A0FC01208300002396CDBFDEBFDF91CF91F4
S11306B00895CF93DF9300D0CDB7DEB789839A83B3
S11306C06B8389819A81FC018181982F987F8B812A
S11306D0892B282F89819A81FC012183000023968C
S11306E0CDBFDEBFDF91CF910895CF93DF9300D0CC
S11306F0CDB7DEB789839A836B8389819A81FC01A4
S11307008681982F9C7F8B81892B282F89819A81C0
S1130710FC01268300002396CDBFDEBFDF91CF917D
S11307200895CF93DF9300D01F92CDB7DEB78983AE
S11307309A836B837C838BE20E94A503000024963A
S1130740CDBFDEBFDF91CF910895CF93DF931F928A
S11307501F92CDB7DEB78A838A818B3219F481E088
S113076089830EC08A818C3219F482E0898308C09F
S11307708A818F3219F483E0898302C084E08983FB
S11307800E94C80300000F900F90DF91CF9108954D
S1130790CF93DF93CDB7DEB7000084E390E028ED7C
S11307A0FC01208388E790E021E0FC012183000024
S11307B0DF91CF910895CF93DF931F921F92CDB70E
S11307C0DEB780E190E00E94440789839A8389819F
S11307D09A81892B61F089819A81FC0110821182AE
S11307E01282138289819A8104960E9496078981D4
S11307F09A810F900F90DF91CF910895CF92DF925D
S1130800EF92FF920F931F93CF93DF93CDB7DEB791
S11308106D97CDBFDEBF8A8B9B8B4C8B5D8B6E8BB4
S11308207F8B288F098FCA8EDB8EEC8EFD8E8A8992
S11308309B8989879A871D821E821F8218861B8640
S11308400E94E11389859A85FC0180819181A281AE
S1130850B3818C879D87AE87BF872C893D894E895C
S11308605F898C859D85AE85BF85098DBC01CD01D1
S11308700E94D306888B8889882359F18C859D85AD
S1130880AE85BF8589839A83AB83BC831A8E1B8E06
S11308901C8E1D8E888D882309F465C089859A85F0
S11308A0FC0120813181428153818C899D89AE89EB
S11308B0BF8980959095A095B09582239323A42316
S11308C0B52329853A85F90180839183A283B38373
S11308D04AC08A8D9B8DAC8DBD8D892B8A2B8B2B29
S11308E059F48C859D85AE85BF8589839A83AB83B6
S11308F0BC8381E08B8737C0888D882349F08D8144
S11309009E81AF81B885B1608D839E83AF83B887A4
S1130910898D882349F08D819E81AF81B885B4602B
S11309208D839E83AF83B8872C893D894E895F89E7
S11309308D819E81AF81B885822B932BA42BB52BFF
S113094029853A85F90134962A8D3B8D4C8D5D8D30
S113095089019A01AC01BD01CF010E94B41619822C
S11309601A821B821C820E94EE13898B8A8D9B8DB6
S1130970AC8DBD8D892B8A2B8B2B09F465C089899D
S1130980882311F40E942D0B0E947219DC01CB0103
S113099089839A83AB83BC8389819A81AB81BC812F
S11309A088279927AA27B270892B8A2B8B2B09F0C9
S11309B042C0F091A200FF93F87FF093A2008985D2
S11309C09A85FC0180819181A281B38189839A8374
S11309D0AB83BC832C893D894E895F8989819A8147
S11309E0AB81BC81098DBC01CD010E94D306882353
S11309F0E9F0888D8823D1F089859A85FC012081CE
S1130A003181428153818C899D89AE89BF898095CA
S1130A109095A095B09582239323A423B52329858B
S1130A203A85F90180839183A283B38381E08B8724
S1130A30FF91F093A20089819A81AB81BC81BB278D
S1130A4089839A83AB83BC8389819A81AB81BC817E
S1130A50BC01CD016D96CDBFDEBFDF91CF911F915B
S1130A600F91FF90EF90DF90CF900895CF93DF9395
S1130A70CDB7DEB72C97CDBFDEBF8F83988749876C
S1130A805A876B877C878F81988589839A83F091B5
S1130A90A200FF93F87FF093A20089819A81FC0160
S1130AA080819181A281B3818B839C83AD83BE833A
S1130AB089819A81FC012081318142815381898518
S1130AC09A85AB85BC8580959095A095B095822339
S1130AD09323A423B52329813A81F9018083918347
S1130AE0A283B383FF91F093A2008B819C81AD819B
S1130AF0BE81BC01CD012C96CDBFDEBFDF91CF916D
S1130B000895CF93DF93CDB7DEB72997CDBFDEBF6E
S1130B10888799878885998589839A830E9405099E
S1130B208B8389819A81FC0180819181A281B38127
S1130B308C839D83AE83BF8380EA90E02B81FC018C
S1130B4022838C819D81AE81BF81BC01CD01299618
S1130B50CDBFDEBFDF91CF910895CF93DF93CDB7A3
S1130B60DEB76D97CDBFDEBF888F998F4A8F5B8FBD
S1130B706C8F7D8F1B821C821D821E82888D998DB5
S1130B80888799871F828885998504968A879B8799
S1130B908A859B8503968C879D870E94E1138A85AD
S1130BA09B85FC018781908589839A8388859985B3
S1130BB0FC0120813181428153818A8D9B8DAC8DD2
S1130BC0BD8D822B932BA42BB52B28853985F90158
S1130BD080839183A283B38395C089819A81FC0128
S1130BE0848195818E879F8789819A81FC01808188
S1130BF09181A281B381888B998BAA8BBB8B1F8235
S1130C0088899989AA89BB8988279927AA278C8BDF
S1130C109D8BAE8BBF8B88899989AA89BB89BB2799
S1130C20888B998BAA8BBB8B8C899D89AE89BF8954
S1130C3088279927AA27B470892B8A2B8B2BB1F488
S1130C4088859985FC01208131814281538188897D
S1130C509989AA89BB8982239323A423B523892B49
S1130C608A2B8B2BE9F081E08F831AC088859985C4
S1130C70FC01208131814281538188899989AA8923
S1130C80BB89282339234A235B2388899989AA8924
S1130C90BB89281739074A075B0711F481E08F8362
S1130CA08F81882359F18C899D89AE89BF898827D2
S1130CB09927AA27B170892B8A2B8B2B81F02B8142
S1130CC03C814D815E8188899989AA89BB89822B5F
S1130CD0932BA42BB52B8B839C83AD83BE838885F8
S1130CE09985FC0180819181A281B381B2602981BF
S1130CF03A81AC01BD01C9010E948F178E859F8581
S1130D0089839A8329813A818C859D85281739079F
S1130D1009F063CF88859985FC0120813181428166
S1130D2053818B819C81AD81BE8180959095A095E6
S1130D30B09582239323A423B52328853985F9010B
S1130D4080839183A283B3830E94EE13888599855F
S1130D50FC0180819181A281B381BC01CD016D969A
S1130D60CDBFDEBFDF91CF910895CF93DF9300D045
S1130D7000D0CDB7DEB789839A834B835C836D83C0
S1130D807E838B819C81AD81BE8129813A81AC01B6
S1130D90BD01C9010E94AD0500002696CDBFDEBF8E
S1130DA0DF91CF9108950F93CF93DF93CDB7DEB743
S1130DB02A97CDBFDEBF6A837B838C839D832E837A
S1130DC03F83488759870A8719828A85882399F43B
S1130DD02A813B814C815D818E819F81A885B98563
S1130DE082239323A423B523892B8A2B8B2BD1F025
S1130DF081E0898317C02A813B814C815D818E818A
S1130E009F81A885B985282339234A235B238E81B2
S1130E109F81A885B985281739074A075B0711F40C
S1130E2081E0898389812A96CDBFDEBFDF91CF918E
S1130E300F9108950F931F93CF93DF93CDB7DEB730
S1130E402997CDBFDEBF8A839B834C835D836E83EA
S1130E507F8328873987288539858C819D81AE8158
S1130E60BF816A817B8189019C01AD0185EB96E09C
S1130E700E94B020898389812996CDBFDEBFDF918E
S1130E80CF911F910F910895CF93DF9300D01F92BC
S1130E90CDB7DEB78B839C8319821A820E94E1133B
S1130EA02091022D3091032D8B819C81820F931F01
S1130EB0883B9B4018F52091022D3091032D8B81A6
S1130EC09C81280F391F8091022D9091032D821748
S1130ED09307A0F48091022D9091032D865B9E4D83
S1130EE089839A832091022D3091032D8B819C81DB
S1130EF0820F931F8093022D9093032D0E94EE1373
S1130F0089819A812496CDBFDEBFDF91CF91089568
S1130F10CF93DF931F921F92CDB7DEB789839A8355
S1130F2000000F900F90DF91CF910895CF93DF933E
S1130F301F921F92CDB7DEB789839A8389819A81E4
S1130F409C012D5F3F4F89819A81FC01218332836B
S1130F5029813A818FEF9FEFDC01F9018383948328
S1130F60A583B68389819A819C012D5F3F4F898136
S1130F709A81FC012783308789819A819C012D5FA6
S1130F803F4F89819A81FC012187328789819A8127
S1130F90FC01108200000F900F90DF91CF91089513
S1130FA0CF93DF931F921F92CDB7DEB789839A83C5
S1130FB089819A81FC011286138600000F900F909C
S1130FC0DF91CF910895CF93DF9300D000D0CDB7B8
S1130FD0DEB78B839C836D837E838B819C81FC0134
S1130FE08181928189839A838D819E8129813A812D
S1130FF0FC012483358389819A81FC012681378110
S11310008D819E81FC012683378389819A81FC012D
S1131010868197812D813E81FC01248335838981DA
S11310209A812D813E81FC01268337838D819E81A7
S11310302B813C81FC01228733878B819C81FC01BD
S1131040808121E0280F8B819C81FC01208300009A
S11310502696CDBFDEBFDF91CF910895CF93DF9366
S1131060CDB7DEB72A97CDBFDEBF8F839887698758
S11310707A8789859A85FC0180819181A281B381D7
S11310808B839C83AD83BE838B819C81AD81BE8128
S11310908F3F9F4FAF4FBF4F41F48F819885FC0125
S11310A08185928589839A8320C08F819885039650
S11310B089839A8307C089819A81FC0184819581FF
S11310C089839A8389819A81FC0184819581FC01B9
S11310D020813181428153818B819C81AD81BE818C
S11310E082179307A407B50730F789819A81FC0119
S11310F02481358189859A85FC01248335838985FA
S11311009A85FC018481958129853A85FC01268391
S1131110378389859A8529813A81FC01268337831F
S113112089819A8129853A85FC01248335838985BF
S11311309A852F813885FC01228733878F81988592
S1131140FC01808121E0280F8F819885FC01208398
S113115000002A96CDBFDEBFDF91CF910895CF93D3
S1131160DF9300D01F92CDB7DEB78B839C838B8136
S11311709C81FC018285938589839A838B819C81E0
S1131180FC01848195812B813C81F9012681378181
S1131190FC01268337838B819C81FC0186819781A6
S11311A02B813C81F90124813581FC012483358321
S11311B089819A81FC01218132818B819C8128174C
S11311C0390751F48B819C81FC0126813781898107
S11311D09A81FC01218332838B819C81FC011286DC
S11311E0138689819A81FC0180812FEF280F8981E0
S11311F09A81FC01208389819A81FC018081249653
S1131200CDBFDEBFDF91CF9108951F93CF93DF93BE
S1131210CDB7DEB780EA90E0FC01128180EA90E06D
S113122020EA30E0F9012281287FFC012283812F0A
S1131230DF91CF911F910895CF93DF93CDB7DEB7A0
S11312402A97CDBFDEBF8D839E836F8378874987BE
S11312505A878D819E8121E1FC0120838D819E81AD
S113126001978D839E838D819E8122E2FC012083E0
S11312708D819E8101978D839E838D819E8123E341
S1131280FC0120838D819E8101978D839E838F81B4
S11312909885CC01A0E0B0E089839A83AB83BC83BA
S11312A029818D819E81FC0120838D819E810197FE
S11312B08D839E8389819A81AB81BC81892F9A2FEA
S11312C0AB2FBB2789839A83AB83BC8329818D8110
S11312D09E81FC0120838D819E8101978D839E8355
S11312E089819A81AB81BC81892F9A2FAB2FBB272F
S11312F089839A83AB83BC8329818D819E81FC0180
S113130020838D819E8101978D839E838D819E8113
S113131021E3FC0120838D819E8101978D839E832F
S11313208D819E8120E8FC0120838D819E8101971F
S11313308D839E838D819E8127E8FC0120838D818E
S11313409E8101978D839E838D819E81FC011082F5
S11313508D819E8101978D839E838D819E81FC0169
S113136010828D819E8101978D839E838D819E81C4
S113137022E0FC0120838D819E8101978D839E83D1
S11313808D819E8123E0FC0120838D819E810197C4
S11313908D839E838D819E8124E0FC0120838D8139
S11313A09E8101978D839E838D819E8125E0FC0122
S11313B020838D819E8101978D839E838D819E8163
S11313C026E0FC0120838D819E8101978D839E837D
S11313D08D819E8127E0FC0120838D819E81019770
S11313E08D839E838D819E8128E0FC0120838D81E5
S11313F09E8101978D839E838D819E8129E0FC01CE
S113140020838D819E8101978D839E838D819E8112
S113141020E1FC0120838D819E8101978D839E8331
S11314208D819E8121E1FC0120838D819E81019724
S11314308D839E838D819E8122E1FC0120838D8199
S11314409E8101978D839E838D819E8123E1FC0182
S113145020838D819E8101978D839E838D819E81C2
S113146024E1FC0120838D819E8101978D839E83DD
S11314708D819E8125E1FC0120838D819E810197D0
S11314808D839E838D819E8126E1FC0120838D8145
S11314909E8101978D839E838D819E8127E1FC012E
S11314A020838D819E8101978D839E838D819E8172
S11314B028E1FC0120838D819E8101978D839E8389
S11314C08D819E8129E1FC0120838D819E8101977C
S11314D08D839E838D819E8120E2FC0120838D81FA
S11314E09E8101978D839E838D819E8121E2FC01E3
S11314F020838D819E8101978D839E838D819E8122
S113150022E2FC0120838D819E8101978D839E833D
S11315108D819E8123E2FC0120838D819E81019730
S11315208D839E8389859A85CC01A0E0B0E0898370
S11315309A83AB83BC8329818D819E81FC012083A6
S11315408D819E8101978D839E8389819A81AB8150
S1131550BC81892F9A2FAB2FBB2789839A83AB83B6
S1131560BC8329818D819E81FC0120838D819E8194
S113157001978D839E838D819E8126E2FC012083C9
S11315808D819E8101978D839E838D819E8127E22B
S1131590FC0120838D819E8101978D839E838D81A3
S11315A09E8128E2FC0120838D819E8101978D8399
S11315B09E838D819E8129E2FC0120838D819E8101
S11315C001978D839E838D819E8120E3FC0120837E
S11315D08D819E8101978D839E838D819E812A9624
S11315E0CDBFDEBFDF91CF910895CF93DF93CDB709
S11315F0DEB70E943C0CA091042DB091052D0D90F6
S11316000DBE0D900EBEEF91DF91CF91BF91AF91C2
S11316109F918F917F916F915F914F913F912F9106
S11316201F910F91FF90EF90DF90CF90BF90AF90FC
S11316309F908F907F906F905F904F903F902F90EE
S11316401F900F90FF91F093A200FF91FFBFFF91B5
S1131650089581E0DF91CF910895FF93FFB7FF9341
S1131660F091A200FF93F87FF093A2000F921F92D3
S113167011242F923F924F925F926F927F928F929A
S11316809F92AF92BF92CF92DF92EF92FF920F930D
S11316901F932F933F934F935F936F937F938F93F6
S11316A09F93AF93BF93CF93DF93EF93A091042DB8
S11316B0B091052D0DB60D920EB60D920E94BC157B
S11316C0A091042DB091052D0D900DBE0D900EBE70
S11316D0EF91DF91CF91BF91AF919F918F917F91C6
S11316E06F915F914F913F912F911F910F91FF90B7
S11316F0EF90DF90CF90BF90AF909F908F907F90AE
S11317006F905F904F903F902F901F900F90FF919C
S1131710F093A200FF91FFBFFF91089500001F9373
S1131720CF93DF931F92CDB7DEB789838091C22E0A
S1131730982F8981892B8093C22E80EA90E0FC0146
S11317408081813061F080EA90E0FC018081823008
S113175031F080EA90E0FC018081843079F480915A
S1131760C22E882359F00E940509182F1092C22E08
S11317700E94BC1580EA90E0FC01128300000F90E7
S1131780DF91CF911F9108951F93CF93DF93CDB72E
S1131790DEB70E940509182F0E94AC1480EA90E07D
S11317A0FC0112830000DF91CF911F910895FF93F4
S11317B0FFB7FF93F091A200FF93F87FF093A2008C
S11317C00F921F9211242F923F924F925F926F9229
S11317D07F928F929F92AF92BF92CF92DF92EF92BD
S11317E0FF920F931F932F933F934F935F936F93A6
S11317F07F938F939F93AF93BF93CF93DF93EF9395
S1131800A091042DB091052D0DB60D920EB60D923A
S11318100E94C40B81E00E948F0BA091042DB09113
S1131820052D0D900DBE0D900EBEEF91DF91CF9161
S1131830BF91AF919F918F917F916F915F914F91E4
S11318403F912F911F910F91FF90EF90DF90CF90D8
S1131850BF90AF909F908F907F906F905F904F90CC
S11318603F902F901F900F90FF91F093A200FF9153
S1131870FFBFFF9118950000CF93DF9300D01F9214
S1131880CDB7DEB780E09DE7A0E0B0E089839A831E
S1131890AB83BC8389819A81AB81BC81689415F840
S11318A0B695A795979587951694D1F789839A83CA
S11318B0AB83BC8389819A81AB81BC810197A109E7
S11318C0B10989839A83AB83BC8380E098E0298142
S11318D03A81FC0126A337A365E080E098E00E94EA
S11318E03D0361E080E098E00E94750300002496C7
S11318F0CDBFDEBFDF91CF910895CF93DF93CDB7F6
S1131900DEB72597CDBFDEBF8B839C836D838B8130
S11319109C8189839A83F091A200FF93F87FF093CE
S1131920A20089819A81FC018081918129813A8177
S1131930F901278D422F50E029813A81F90120A134
S1131940222F30E0429FB001439F700D529F700DD3
S113195011249B01280F391F89819A81FC0122835C
S1131960338389819A81FC01168E89819A81FC01D5
S11319702081318189819A81FC0124833583898185
S11319809A81FC018081918129813A81F901278D15
S1131990222F30E0A9014150510929813A81F901EE
S11319A020A1222F30E0429FB001439F700D529F2F
S11319B0700D11249B01280F391F89819A81FC0124
S11319C02683378389819A812FEFFC0121A38981A2
S11319D09A812FEFFC0122A38D81882381F48981D0
S11319E09A81FC0180858823A1F089819A810896D7
S11319F00E942717882369F00E942D0B0AC0898151
S1131A009A8108960E94960789819A8143960E943A
S1131A109607FF91F093A20081E02596CDBFDEBF2B
S1131A20DF91CF9108950F931F93CF93DF93CDB799
S1131A30DEB72997CDBFDEBF8F8368874987888546
S1131A40882319F419821A820FC08F81482F50E01D
S1131A508885282F30E0429FC001439F900D529FFC
S1131A60900D112489839A8389819A8185960E9495
S1131A7044078B839C838B819C81892B81F08B8190
S1131A809C8185968D839E832B813C818D819E8153
S1131A9089012985AC0168858F810E94590D8B814C
S1131AA09C812996CDBFDEBFDF91CF911F910F910D
S1131AB008950F931F93CF93DF93CDB7DEB7279786
S1131AC0CDBFDEBF89836A834B835C832D830E8302
S1131AD01F838A81882341F48E819F812E813F81D7
S1131AE0FC012083318307C08E819F812B813C813F
S1131AF0FC01208331838E819F812981FC01278F02
S1131B008E819F812A81FC0120A38E819F8161E0C7
S1131B100E947D0C8E819F812D81FC0124A30000F5
S1131B202796CDBFDEBFDF91CF911F910F9108950E
S1131B300F93CF93DF93CDB7DEB76297CDBFDEBFF0
S1131B408A879B876C877D872E873F87488B598B35
S1131B500A8B19828A859B858A839B83F091A200D4
S1131B60FF93F87FF093A2008A819B81FC01268D6C
S1131B708A819B81FC01878D281718F08A8982301D
S1131B8019F52C853D858A819B814A89B9010E947A
S1131B90960F8C838A819B81FC018389882351F071
S1131BA08A819B8143960E942717882341F00E94D3
S1131BB02D0B05C08C81882311F00E942D0BFF9101
S1131BC0F093A20081E06FC08E859F85A889B989B2
S1131BD0892B8A2B8B2B29F4FF91F093A20080E0B0
S1131BE062C08981882331F4CE0105960E94F217E0
S1131BF081E08983FF91F093A2000E94E113F091A8
S1131C00A200FF93F87FF093A2008A819B81FC01DC
S1131C1081A18F3F21F48A819B81FC0111A28A81D9
S1131C209B81FC0182A18F3F21F48A819B81FC016D
S1131C3012A2FF91F093A2009E01225F3F4FCE01BA
S1131C400596B9010E941518882331F58A819B8174
S1131C500E9421118823C9F08E859F85A889B9899E
S1131C602A813B81285F3F4FAC01BD01C9010E941D
S1131C708C168A819B810E949B100E94EE138823FC
S1131C8009F06CCF0E942D0B69CF8A819B810E9441
S1131C909B100E94EE1362CF8A819B810E949B104D
S1131CA00E94EE1380E06296CDBFDEBFDF91CF913C
S1131CB00F910895CF93DF93CDB7DEB72C97CDBFA7
S1131CC0DEBF8E839F83688779874A875B872C87EB
S1131CD08E819F818A839B830E9405098C838A81DC
S1131CE09B81FC01268D8A819B81FC01878D2817AD
S1131CF018F08C85823089F58A819B81FC0182A150
S1131D008D83288539858A819B814C85B9010E9400
S1131D10960F8D818F3FB9F48A819B81FC01838961
S1131D208823C1F08A819B8143960E9427178823C8
S1131D3089F08A859B85892B69F08A859B8521E0BA
S1131D40FC01208307C08D818F5F282F8A819B81AE
S1131D50FC0122A381E0898301C0198280EA90E01A
S1131D602C81FC01228389812C96CDBFDEBFDF91BB
S1131D70CF910895CF93DF93CDB7DEB76197CDBFF1
S1131D80DEBF8A879B876C877D872E873F87488B3A
S1131D90598B19828A859B858A839B83F091A20043
S1131DA0FF93F87FF093A2008A819B81FC01868DCA
S1131DB08C838C81882311F12C853D858A819B81BC
S1131DC0B9010E944B108C812FEF280F8A819B81CF
S1131DD0FC01268F8A819B81FC018085882349F040
S1131DE08A819B8108960E942717882311F00E94FC
S1131DF02D0BFF91F093A20081E076C08E859F8524
S1131E00A889B989892B8A2B8B2B29F4FF91F0930C
S1131E10A20080E069C08981882331F4CE0105964F
S1131E200E94F21781E08983FF91F093A2000E943F
S1131E30E113F091A200FF93F87FF093A2008A814E
S1131E409B81FC0181A18F3F21F48A819B81FC014C
S1131E5011A28A819B81FC0182A18F3F21F48A8196
S1131E609B81FC0112A2FF91F093A2009E01225FCC
S1131E703F4FCE010596B9010E941518882331F50C
S1131E808A819B810E9400118823C9F08E859F85D9
S1131E90A889B9892A813B812D5E3F4FAC01BD01E0
S1131EA0C9010E948C168A819B810E949B100E940A
S1131EB0EE13882309F072CF0E942D0B6FCF8A8115
S1131EC09B810E949B100E94EE1368CF8A819B81A4
S1131ED00E949B100E94EE138A819B810E94001134
S1131EE0882309F45BCF80E06196CDBFDEBFDF912C
S1131EF0CF910895CF93DF9300D0CDB7DEB78A8317
S1131F009B83F091A200FF93F87FF093A2008A8153
S1131F109B81FC01868D8983FF91F093A2008981C6
S1131F202396CDBFDEBFDF91CF910895CF93DF938A
S1131F30CDB7DEB72797CDBFDEBF8B839C836D8380
S1131F407E834F831A828B819C81FC01868D8983D9
S1131F508B819C81FC0180A1882309F48EC08F8130
S1131F608823D9F58B819C81FC0180A1482F50E006
S1131F708B819C81FC01848195812D813E81B901F5
S1131F800E94B6348B819C81FC01248135818B8134
S1131F909C81FC0180A1882F90E0280F391F8B8140
S1131FA09C81FC01248335838B819C81FC012481E9
S1131FB035818B819C81FC018281938128173907AB
S1131FC008F45BC08B819C81FC01208131818B8171
S1131FD09C81FC012483358350C08B819C81FC014E
S1131FE080A1482F50E08B819C81FC0186819781E0
S1131FF02D813E81B9010E94B6348B819C81FC0104
S1132000268137818B819C81FC0180A1882F90E0FF
S1132010919581959109280F391F8B819C81FC0131
S1132020268337838B819C81FC01268137818B81B8
S11320309C81FC018081918128173907A8F48B8148
S11320409C81FC01228133818B819C81FC0180A1D4
S1132050882F90E0919581959109280F391F8B81E4
S11320609C81FC01268337838F81823031F48981FE
S1132070882319F0898181508983898121E0280F7F
S11320808B819C81FC01268F8A812796CDBFDEBF80
S1132090DF91CF910895CF93DF9300D01F92CDB7F6
S11320A0DEB789839A836B837C8389819A81FC015F
S11320B080A18823C9F189819A81FC012681378115
S11320C089819A81FC0180A1882F90E0280F391F13
S11320D089819A81FC012683378389819A81FC0155
S11320E02681378189819A81FC0182819381281715
S11320F0390750F089819A81FC01208131818981DD
S11321009A81FC012683378389819A81FC0180A10D
S1132110482F50E089819A81FC01268137818B8187
S11321209C81B9010E94B63400002496CDBFDEBF65
S1132130DF91CF910895CF93DF9300D01F92CDB755
S1132140DEB78B839C83F091A200FF93F87FF0931A
S1132150A2008B819C81FC0182A1898312C08B81A6
S11321609C81FC018389882381F08B819C81439627
S11321700E942717882311F00E94BD18898181507D
S11321808983898118165CF301C000008B819C81CE
S11321902FEFFC0122A3FF91F093A200F091A20083
S11321A0FF93F87FF093A2008B819C81FC0181A1B5
S11321B08A8312C08B819C81FC018085882381F0F5
S11321C08B819C8108960E942717882311F00E9416
S11321D0BD188A8181508A838A8118165CF301C0F4
S11321E000008B819C812FEFFC0121A3FF91F093D0
S11321F0A20000002496CDBFDEBFDF91CF910895E9
S1132200CF93DF9300D0CDB7DEB78A839B83F09161
S1132210A200FF93F87FF093A2008A819B81FC01C6
S1132220868D882319F481E0898301C01982FF9186
S1132230F093A20089812396CDBFDEBFDF91CF91B9
S11322400895CF93DF9300D0CDB7DEB78A839B8305
S1132250F091A200FF93F87FF093A2008A819B8102
S1132260FC01268D8A819B81FC01878D281719F436
S113227081E0898301C01982FF91F093A2008981D2
S11322802396CDBFDEBFDF91CF910895CF93DF9327
S1132290CDB7DEB72997CDBFDEBF8B839C834D833B
S11322A05E836F83788729878B819C8189839A8356
S11322B0F091A200FF93F87FF093A20089819A81A4
S11322C0FC0181A18F3F21F489819A81FC0111A233
S11322D089819A81FC0182A18F3F21F489819A81AD
S11322E0FC0112A2FF91F093A20089819A81FC0162
S11322F0868D882371F489819A81FC0173968D817E
S11323009E81AF81B8852985AC01BD01CF010E94B2
S1132310F31689819A810E949B1000002996CDBFF3
S1132320DEBFDF91CF9108958F929F92AF92BF92BB
S1132330CF92DF92EF92FF920F931F93CF93DF938D
S1132340CDB7DEB76097CDBFDEBF8E839F8368872E
S113235079874A875B872C873D870E87EF86F88AC3
S11323608A859B850E9444078C839D838C819D81F3
S1132370892BB9F08CE290E00E94440789839A8308
S113238089819A81892B41F089819A812C813D81AF
S1132390FC01238F348F07C08C819D810E948807A4
S11323A002C019821A8289819A81892B09F18A854E
S11323B09B85CC01A0E0B0E009811A814F85588942
S11323C02C853D8568857985EE81FF81812C912C52
S11323D058016A01EE8489019C01AD01CF010E947C
S11323E00B1289819A810E94E11281E08B8302C0E1
S11323F08FEF8B838B816096CDBFDEBFDF91CF9152
S11324001F910F91FF90EF90DF90CF90BF90AF900E
S11324109F908F9008958F929F92AF92BF92CF9288
S1132420DF92EF92FF920F931F93CF93DF93CDB779
S1132430DEB76497CDBFDEBF8C839D836E837F83BD
S1132440288739874A875B870C871D87EE86CF8666
S1132450D88AA98ABA8A8B8A9C8A288539858989E7
S11324609A89FC01838D948DA90165EA70E00E942C
S1132470BF3489899A89FC01238D348D8885998597
S11324800197820F931F8A839B83198221C08981BC
S1132490882F90E02981222F30E04E815F81240F24
S11324A0351FF901408129893A89820F931F4D967E
S11324B0FC0140838981882F90E02E813F81820F27
S11324C0931FFC018081882339F089818F5F898380
S11324D089818830E0F201C0000089899A89FC0171
S11324E014A28E85843010F083E08E8789899A89BE
S11324F02E85FC01228F89899A8902960E94D00731
S113250089899A890E960E94D00789899A8929898E
S11325103A89FC01228733878E85882F90E0A0E0DA
S1132520B0E024E030E040E050E079018A01E81AAC
S1132530F90A0A0B1B0BD801C70129893A89F90149
S113254086879787A08BB18B89899A8929893A894B
S1132550FC01268B378B89899A89FC0117A210A666
S113256011A612A689899A89FC0113A64C855D855A
S11325702C813D818A819B81B9010E941C099C01A7
S113258089899A89FC01208331838F859889892BD5
S113259039F08F85988929893A89FC012083318310
S11325A000006496CDBFDEBFDF91CF911F910F91E4
S11325B0FF90EF90DF90CF90BF90AF909F908F905F
S11325C00895CF93DF931F921F92CDB7DEB789830F
S11325D09A83F091A200FF93F87FF093A200809178
S11325E0622D8F5F8093622D8091042D9091052D33
S11325F0892B69F489819A818093042D9093052D08
S11326008091622D8130C9F40E94DB1816C080913C
S1132610682D882391F48091042D9091052DFC015F
S1132620228D89819A81FC01828D821730F0898103
S11326309A818093042D9093052D80916C2D8F5F4A
S113264080936C2D20916C2D89819A81FC0125A3A6
S113265089819A81FC01928D8091672D891730F4CC
S113266089819A81FC01828D8093672D89819A8169
S1132670AC014E5F5F4F89819A81FC01828D282FC6
S113268030E06BE0629FC001639F900D11248A5F6C
S1132690924DBA010E94E307FF91F093A20080914A
S11326A0682D882371F08091042D9091052DFC01F3
S11326B0228D89819A81FC01828D281710F40E9451
S11326C02D0B00000F900F90DF91CF910895CF93C1
S11326D0DF93CDB7DEB72597CDBFDEBF6A837B839B
S11326E08C839D8319828A819B81AC81BD81892BD6
S11326F08A2B8B2B71F00E94E1138A819B81AC8120
S1132700BD8140E0BC01CD010E944A1B0E94EE1332
S113271089838981882311F40E942D0B000025965A
S1132720CDBFDEBFDF91CF910895EF92FF920F935B
S1132730CF93DF931F92CDB7DEB70F2EF1E7EF2EC5
S1132740FDE2FF2EF02D00E020E030E048EC50E008
S113275060E070E288EC98E10E9494118983898199
S1132760813019F40E94EB1B89838981813009F53A
S113277080EA90E020EA30E0F9012281287FFC0120
S113278022838FEF9FEFDC0180936D2D90936E2D4C
S1132790A0936F2DB093702D81E08093682D1092DB
S11327A0632D1092642D1092652D1092662D0E9457
S11327B0F50A00000F90DF91CF910F91FF90EF90F9
S11327C00895CF93DF93CDB7DEB78091732D8F5FDC
S11327D08093732D0000DF91CF910895CF93DF9301
S11327E000D01F92CDB7DEB719821A821B82F091F6
S11327F0A200FF93F87FF093A2008091732D815083
S11328008093732D8091732D882309F074C0809177
S1132810622D882309F46FC046C08091532D909196
S1132820542DFC018085918589839A8389819A81BD
S11328300E960E94AF0889819A8102960E94AF0881
S113284089819A81FC01928D8091672D891730F4DA
S113285089819A81FC01828D8093672D89819A8177
S1132860AC014E5F5F4F89819A81FC01828D282FD4
S113287030E06BE0629FC001639F900D11248A5F7A
S1132880924DBA010E94E30789819A81FC01228D4D
S11328908091042D9091052DFC01828D281718F04C
S11328A081E080936A2D80914C2D882309F0B5CF67
S11328B089819A81892B11F00E941E198091692DBA
S11328C08C838C81882379F00E94AC14882319F0BE
S11328D081E080936A2D8C8181508C838C81882344
S11328E099F71092692D80916A2D882321F081E057
S11328F08B830E942D0BFF91F093A2008B81249671
S1132900CDBFDEBFDF91CF910895CF93DF9300D089
S11329101F92CDB7DEB7F091A200FF93F87FF0933A
S1132920A2008091632D9091642DA091652DB091AA
S1132930662D89839A83AB83BC83FF91F093A200B5
S113294089819A81AB81BC81BC01CD012496CDBF24
S1132950DEBFDF91CF910895CF93DF93CDB7DEB77C
S11329602D97CDBFDEBF19828091732D882309F086
S1132970F1C08091632D9091642DA091652DB0914B
S1132980662D0196A11DB11D8A839B83AC83BD83F3
S11329908A819B81AC81BD818093632D9093642D4A
S11329A0A093652DB093662D8A819B81AC81BD81F6
S11329B0892B8A2B8B2BD9F48091482D9091492D0A
S11329C08E839F8380914A2D90914B2D8093482D27
S11329D09093492D8E819F8180934A2D90934B2D06
S11329E080916B2D8F5F80936B2D0E941E198091B7
S11329F06D2D90916E2DA0916F2DB091702D2A8127
S1132A003B814C815D81281739074A075B0708F42D
S1132A108AC08091482D9091492DFC0180818823A2
S1132A2061F48FEF9FEFDC0180936D2D90936E2DF9
S1132A30A0936F2DB093702D76C08091482D909106
S1132A40492DFC0187819085FC01808591858887CB
S1132A50998788859985FC0182819381A481B581B8
S1132A608A879B87AC87BD872A813B814C815D81A6
S1132A708A859B85AC85BD85281739074A075B077E
S1132A8068F48A859B85AC85BD8580936D2D909374
S1132A906E2DA0936F2DB093702D45C088859985B8
S1132AA002960E94AF0888859985FC01808D918DDE
S1132AB0892B29F0888599850E960E94AF08888510
S1132AC09985FC01928D8091672D891730F4888552
S1132AD09985FC01828D8093672D88859985AC0149
S1132AE04E5F5F4F88859985FC01828D282F30E0E9
S1132AF06BE0629FC001639F900D11248A5F924D29
S1132B00BA010E94E30788859985FC01228D809192
S1132B10042D9091052DFC01828D281708F479CF9E
S1132B2081E0898376CF8091042D9091052DFC015D
S1132B30828D282F30E04BE0429FC001439F900DCF
S1132B4011248A5F924DFC018081823040F081E043
S1132B50898305C08091692D8F5F8093692D809151
S1132B606A2D882311F081E0898389812D96CDBF58
S1132B70DEBFDF91CF910895CF93DF93CDB7DEB75A
S1132B802997CDBFDEBF8091732D882321F081E08A
S1132B9080936A2DBAC010926A2D8091042D909171
S1132BA0052DFC01838D948D8A839B8385EA95EAA8
S1132BB0DC018C839D83AE83BF838A819B81FC016E
S1132BC020813181428153818C819D81AE81BF817D
S1132BD0281739074A075B0799F58A819B81049670
S1132BE0FC0120813181428153818C819D81AE81A0
S1132BF0BF81281739074A075B0711F58A819B8132
S1132C000896FC0120813181428153818C819D8110
S1132C10AE81BF81281739074A075B0789F48A8187
S1132C209B810C96FC0120813181428153818C81EE
S1132C309D81AE81BF81281739074A075B0771F070
S1132C408091042D9091052D9C01235E3F4F80912E
S1132C50042D9091052DB9010E9491038091672D57
S1132C60898303C08981815089838981282F30E039
S1132C704BE0429FC001439F900D11248A5F924D07
S1132C80FC018081882371F38981282F30E04BE097
S1132C90429FC001439F900D11248A5F924D888703
S1132CA0998788859985FC0181819281FC01248121
S1132CB0358188859985FC012183328388859985AE
S1132CC0FC0121813281888599850396281739076B
S1132CD069F488859985FC0181819281FC012481B4
S1132CE0358188859985FC0121833283888599857E
S1132CF0FC0181819281FC01808591858093042D62
S1132D009093052D89818093672D00002996CDBF6E
S1132D10DEBFDF91CF910895CF93DF9300D000D031
S1132D20CDB7DEB789839A834B835C836D837E83BF
S1132D308091042D9091052D9C01225F3F4F898144
S1132D409A81B9010E942E088B819C81AD81BE813C
S1132D5041E0BC01CD010E944A1B00002696CDBF74
S1132D60DEBFDF91CF9108950F931F93CF93DF932D
S1132D70CDB7DEB72A97CDBFDEBF89839A834B8355
S1132D805C836D837E830F83188729873A8720911C
S1132D90042D3091052D8B819C81AD81BE81B0685D
S1132DA0F90186879787A08BB18B8091042D909130
S1132DB0052D9C01225F3F4F89819A81B9010E94B0
S1132DC0E3078F819885A985BA8541E0BC01CD01CF
S1132DD00E944A1B00002A96CDBFDEBFDF91CF912F
S1132DE01F910F910895CF93DF93CDB7DEB7279747
S1132DF0CDBFDEBF89839A834B835C836D837E83DF
S1132E002F838091042D9091052D9C01225F3F4FCB
S1132E1089819A81B9010E94E3078F81882339F05F
S1132E208FEF9FEFDC018B839C83AD83BE838B810B
S1132E309C81AD81BE814F81BC01CD010E944A1BA2
S1132E4000002796CDBFDEBFDF91CF910895CF93C9
S1132E50DF93CDB7DEB72597CDBFDEBF8C839D83CF
S1132E608C819D81FC0187819085FC018085918501
S1132E708A839B838A819B810E960E94AF088091EE
S1132E80732D882351F58A819B8102960E94AF0895
S1132E908A819B81FC01928D8091672D891730F482
S1132EA08A819B81FC01828D8093672D8A819B811D
S1132EB0AC014E5F5F4F8A819B81FC01828D282F7C
S1132EC030E06BE0629FC001639F900D11248A5F24
S1132ED0924DBA010E94E30708C08A819B810E9635
S1132EE0BC018CE49DE20E94E3078A819B81FC0182
S1132EF0228D8091042D9091052DFC01828D8217E5
S1132F0030F481E0898381E080936A2D01C01982C5
S1132F1089812596CDBFDEBFDF91CF910895CF93F0
S1132F20DF93CDB7DEB72897CDBFDEBF8B839C83FD
S1132F304D835E836F8378878D819E81AF81B88551
S1132F40B0682B813C81F90180839183A283B38390
S1132F508B819C81FC018085918589839A838B81F7
S1132F609C810E94AF0889819A8102960E94AF08D1
S1132F7089819A81FC01928D8091672D891730F4A3
S1132F8089819A81FC01828D8093672D89819A8140
S1132F90AC014E5F5F4F89819A81FC01828D282F9D
S1132FA030E06BE0629FC001639F900D11248A5F43
S1132FB0924DBA010E94E30789819A81FC01228D16
S1132FC08091042D9091052DFC01828D821718F4B7
S1132FD081E080936A2D00002896CDBFDEBFDF918B
S1132FE0CF910895CF93DF931F921F92CDB7DEB791
S1132FF089839A8320916B2D89819A81FC01208396
S11330008091632D9091642DA091652DB091662DD2
S113301029813A81F90181839283A383B4830000D7
S11330200F900F90DF91CF910895EF92FF920F933D
S11330301F93CF93DF93CDB7DEB72D97CDBFDEBF00
S11330408A879B876C877D87F091A200FF93F87F26
S1133050F093A2008091632D9091642DA091652D31
S1133060B091662D8A839B83AC83BD838A859B85BF
S1133070FC0181819281A381B4812A813B814C81AD
S11330805D8179018A01E81AF90A0A0B1B0BD80140
S1133090C7018E839F83A887B9878C859D85FC0192
S11330A080819181A281B3818F3F9F4FAF4FBF4FEA
S11330B011F4198254C08A859B85FC01908180910A
S11330C06B2D981799F08A859B85FC0121813281AB
S11330D0438154818A819B81AC81BD81821793078E
S11330E0A407B50718F081E0898339C08C859D85D4
S11330F0FC0120813181428153818E819F81A88589
S1133100B98582179307A407B50700F58C859D85BB
S1133110FC0120813181428153818E819F81A88568
S1133120B98579018A01E81AF90A0A0B1B0BD8013F
S1133130C7012C853D85F90180839183A283B383E4
S11331408A859B850E94F217198209C08C859D850A
S1133150FC01108211821282138281E08983FF9123
S1133160F093A20089812D96CDBFDEBFDF91CF9170
S11331701F910F91FF90EF900895CF93DF93CDB7F8
S1133180DEB781E080936A2D0000DF91CF9108952E
S1133190CF93DF931F921F92CDB7DEB789839A83B3
S11331A00E9416198091062D823010F00E942D0B7A
S11331B00E944921F5CFCF93DF931F92CDB7DEB79D
S11331C0198210C08981282F30E04BE0429FC00152
S11331D0439F900D11248A5F924D0E949607898126
S11331E08F5F89838981843068F382E39DE20E9442
S11331F096078DE39DE20E9496078CE49DE20E946F
S1133200960787E59DE20E94960782E39DE28093FC
S1133210482D9093492D8DE39DE280934A2D909300
S11332204B2D00000F90DF91CF910895CF93DF9342
S1133230CDB7DEB70000DF91CF910895CF93DF9330
S11332401F921F92CDB7DEB78091482D9091492DE2
S1133250FC018081882361F48FEF9FEFDC01809370
S11332606D2D90936E2DA0936F2DB093702D1BC078
S11332708091482D9091492DFC0187819085FC0116
S11332808085918589839A8389819A81FC018281D1
S11332909381A481B58180936D2D90936E2DA0931D
S11332A06F2DB093702D00000F900F90DF91CF9190
S11332B00895CF93DF931F92CDB7DEB78091682D29
S11332C0882319F481E0898308C08091732D8823B1
S11332D019F482E0898301C0198289810F90DF91FA
S11332E0CF910895EF92FF920F931F93CF93DF93A3
S11332F000D01F92CDB7DEB78091042D9091052D9B
S1133300FC0186859785A089B18989839A83AB83DB
S1133310BC836091042D7091052D8091042D9091B2
S1133320052DFC01828D882F90E0A0E0B0E024E020
S113333030E040E050E079018A01E81AF90A0A0B0A
S11333401B0BD801C701FB0186879787A08BB18B24
S113335089819A81AB81BC81BC01CD012496CDBF0A
S1133360DEBFDF91CF911F910F91FF90EF900895F1
S1133370CF92DF92EF92FF920F931F93CF93DF933D
S1133380CDB7DEB72F97CDBFDEBF6A837B838C8337
S11333909D832E833F83488759870A871B87CC8662
S11333A0DD86EE86FF86F091A200FF93F87FF0930E
S11333B0A2008091042D9091052DFC0183A58230FB
S11333C0A1F16091042D7091052DFB0127A130A579
S11333D041A552A58A819B81AC81BD818095909540
S11333E0A095B09582239323A423B523FB0187A33F
S11333F090A7A1A7B2A78091042D9091052D21E05B
S1133400FC0123A78C859D85AE85BF85892B8A2BDE
S11334108B2B59F08C859D85AE85BF8541E0BC0121
S1133420CD010E944A1B0E942D0BFF91F093A20034
S1133430F091A200FF93F87FF093A2008A859B8508
S1133440892B81F08091042D9091052DFC0187A199
S113345090A5A1A5B2A52A853B85F9018083918316
S1133460A283B3838091042D9091052DFC0183A543
S1133470823011F019821CC06091042D7091052DC9
S1133480FB0127A130A541A552A58E819F81A88566
S1133490B98580959095A095B09582239323A42314
S11334A0B523FB0187A390A7A1A7B2A781E08983D5
S11334B08091042D9091052DFC0113A6FF91F093AA
S11334C0A20089812F96CDBFDEBFDF91CF911F91DE
S11334D00F91FF90EF90DF90CF9008950F931F937B
S11334E0CF93DF93CDB7DEB72D97CDBFDEBF8D83EE
S11334F09E834F83588769877A872B870C871D871C
S113350081E089838D819E818A839B83F091A200CF
S1133510FF93F87FF093A2008C859D85892B71F031
S11335208A819B81FC0187A190A5A1A5B2A52C85C8
S11335303D85F90180839183A283B3838A819B8132
S1133540FC0183A58C838A819B8122E0FC0123A753
S11335508B85882F90E08230910531F1833091057D
S113356034F4009709F44FC0019739F04DC083300B
S1133570910561F10497B1F147C08A819B81FC01F7
S113358027A130A541A552A58F819885A985BA8523
S1133590822B932BA42BB52B2A813B81F90187A382
S11335A090A7A1A7B2A730C08A819B81FC0187A103
S11335B090A5A1A5B2A50196A11DB11D2A813B81AB
S11335C0F90187A390A7A1A7B2A71EC02A813B81B6
S11335D08F819885A985BA85F90187A390A7A1A7AA
S11335E0B2A712C08C81823061F02A813B818F8125
S11335F09885A985BA85F90187A390A7A1A7B2A741
S113360003C0198201C000008C818130B9F58A8120
S11336109B8102960E94AF088A819B81FC01928D56
S11336208091672D891730F48A819B81FC01828DFA
S11336308093672D8A819B81AC014E5F5F4F8A81A5
S11336409B81FC01828D282F30E06BE0629FC001DA
S1133650639F900D11248A5F924DBA010E94E30783
S11336608A819B81FC01228D8091042D9091052DEE
S1133670FC01828D821710F40E942D0BFF91F093B0
S1133680A20089812D96CDBFDEBFDF91CF911F911E
S11336900F910895CF93DF93CDB7DEB72D97CDBFAC
S11336A0DEBF69877A878B879C874D878091632DDE
S11336B09091642DA091652DB091662D89839A8394
S11336C0AB83BC838091042D9091052D02960E94BA
S11336D0AF0889859A85AB85BC858F3F9F4FAF4FD7
S11336E0BF4F71F48D85882359F08091042D9091FA
S11336F0052D0296BC0187E59DE20E94E30764C0A4
S113370029813A814B815C8189859A85AB85BC8509
S1133710820F931FA41FB51F8D839E83AF83B88729
S11337202091042D3091052D8D819E81AF81B88526
S1133730F90182839383A483B5832D813E814F81D4
S1133740588589819A81AB81BC81281739074A073A
S11337505B0778F48091042D9091052D9C012E5FD8
S11337603F4F80914A2D90914B2DB9010E942E0814
S11337702BC08091042D9091052D9C012E5F3F4F0D
S11337808091482D9091492DB9010E942E08809175
S11337906D2D90916E2DA0916F2DB091702D2D8176
S11337A03E814F815885281739074A075B0760F423
S11337B08D819E81AF81B88580936D2D90936E2D00
S11337C0A0936F2DB093702D00002D96CDBFDEBF5A
S11337D0DF91CF910895EF92FF920F93CF93DF93F0
S11337E01F92CDB7DEB719820E947C2080918E2D66
S11337F090918F2D892B91F00F2EF0E9EF2EFDE2A1
S1133800FF2EF02D03E020E030E048EC50E065E0CE
S113381070E281E09DE10E949411898389810F9077
S1133820DF91CF910F91FF90EF900895CF92DF92A7
S1133830EF92FF920F931F93CF93DF93CDB7DEB731
S11338406797CDBFDEBF8B879C876D872E873F87A9
S1133850488B598B0A8B1B8BCC8ADD8AEE8AFF8AB4
S1133860198280918E2D90918F2D892B09F444C05B
S11338708D858A838E859F85A889B9898B839C834E
S1133880AD83BE838B859C858F8398878D85863099
S113389034F50E945919823099F4E0918E2DF091FB
S11338A08F2D8C899D89AE89BF89BE016E5F7F4F44
S11338B000E09C01AD01CF010E94980D89831CC0DA
S11338C080918E2D90918F2DBE016E5F7F4F00E011
S11338D020E030E0A9010E94980D89830DC08091F9
S11338E08E2D90918F2D4A895B89BE016E5F7F4F2B
S11338F020E00E945A0E898389816796CDBFDEBF7E
S1133900DF91CF911F910F91FF90EF90DF90CF90B7
S11339100895CF92DF92EF92FF920F931F93CF936C
S1133920DF93CDB7DEB72B97CDBFDEBF6C837D832E
S11339308E839F83288739874A875B8780918A2D66
S113394090918B2DFC0187819085FC018085918568
S113395089839A8389819A8102960E94AF0889811A
S11339609A81FC0182898130B1F589819A81FC01B7
S113397026853785408951898C819D81AE81BF819F
S1133980820F931FA41FB51FEC80FD800E811F8141
S1133990288539854A855B85E981FA816701780143
S11339A089019A01AC01BD01CF010E941F1E882329
S11339B091F08C819D81AE81BF81E981FA81C12C16
S11339C0D12C760100E010E09C01AD0160E0CF0154
S11339D00E94161C8B8389819A81FC012589368972
S11339E089819A81F901199500002B96CDBFDEBF1C
S11339F0DF91CF911F910F91FF90EF90DF90CF90C7
S1133A000895CF93DF93CDB7DEB72797CDBFDEBF41
S1133A108E839F83CE0105960E949C1DDC01CB0101
S1133A2089839A83AB83BC832D8189819A81AB81FD
S1133A30BC81422FBC01CD010E94211D0E94B81EF1
S1133A40E9CFEF92FF920F931F93CF93DF93CDB7FC
S1133A50DEB72A97CDBFDEBF6E837F8388879987C1
S1133A604A870E94E113CE0105960E94DA1DDC010B
S1133A70CB0189839A83AB83BC838D81882309F02E
S1133A804EC08A858823E1F42E813F81488559857B
S1133A9089819A81AB81BC8182179307A407B507FA
S1133AA078F00E94EE1329813A814B815C818E81EA
S1133AB09F81A885B985BC01CD010E94891C31C0B4
S1133AC08A85882359F080918C2D90918D2DFC014D
S1133AD0908181E0992309F080E08A872E813F81DB
S1133AE04885598589819A81AB81BC8179018A0194
S1133AF0E81AF90A0A0B1B0BD801C701E0918E2DB5
S1133B00F0918F2D2A85AC01BD01CF010E94461191
S1133B100E94EE13882329F40E942D0B02C00E94F8
S1133B20EE1300002A96CDBFDEBFDF91CF911F9127
S1133B300F91FF90EF900895CF93DF9300D000D0C2
S1133B40CDB7DEB78D839E8380918A2D90918B2D86
S1133B50FC01908181E0992309F080E0282F8D8178
S1133B609E81FC0120838D819E81FC0180818823BC
S1133B7089F480918A2D90918B2DFC018781908509
S1133B80FC0180819181A281B38189839A83AB8373
S1133B90BC8304C019821A821B821C8289819A8187
S1133BA0AB81BC81BC01CD012696CDBFDEBFDF91C8
S1133BB0CF910895CF93DF9300D000D0CDB7DEB777
S1133BC08D839E830E948514DC01CB0189839A83B3
S1133BD0AB83BC838091922D9091932DA091942DD1
S1133BE0B091952D29813A814B815C812817390741
S1133BF04A075B0740F40E94C21F8D819E8121E029
S1133C00FC01208304C08D819E81FC011082898186
S1133C109A81AB81BC818093922D9093932DA09334
S1133C20942DB093952D89819A81AB81BC81BC017F
S1133C30CD012696CDBFDEBFDF91CF910895CF92FF
S1133C40DF92EF92FF920F931F93CF93DF93CDB741
S1133C50DEB72F97CDBFDEBF8A839B834C835D8302
S1133C606E837F83088719872A873B87CC86DD8606
S1133C70EE86FF8619822A813B818C819D81AE81EB
S1133C80BF81F90182839383A483B5838A819B8155
S1133C902A813B81FC01228733872C813D814E811F
S1133CA05F8188859985AA85BB8582179307A407B8
S1133CB0B50740F1288539854A855B858C859D85C6
S1133CC0AE85BF85281B390B4A0B5B0B8A819B8110
S1133CD0FC0186859785A089B189281739074A0789
S1133CE05B0718F081E0898336C08A819B819C013F
S1133CF02E5F3F4F80918C2D90918D2DB9010E94A4
S1133D002E0829C0288539854A855B858C859D8543
S1133D10AE85BF85281739074A075B0780F42C81D5
S1133D203D814E815F818C859D85AE85BF85281739
S1133D3039074A075B0718F081E089830CC08A8140
S1133D409B819C012E5F3F4F80918A2D90918B2DFA
S1133D50B9010E942E0889812F96CDBFDEBFDF9165
S1133D60CF911F910F91FF90EF90DF90CF90089526
S1133D70CF92DF92EF92FF920F931F93CF93DF9333
S1133D80CDB7DEB76597CDBFDEBFE0C08A85882397
S1133D90FCF4CE010A96019689839A8389819A81DB
S1133DA0FC012081318189819A81FC018481958182
S1133DB0A681B78149815A81FA010280F381E02DFD
S1133DC0EC8BFD8BAC01BD018C899D89F9011995A2
S1133DD08A8588230CF4BAC08F8598898B839C8349
S1133DE08B819C81FC0184859585892B29F08B81AD
S1133DF09C8102960E94AF08CE0143960E94DA1D70
S1133E00DC01CB018D839E83AF83B8878A85082E1E
S1133E10000C990B092E000CAA0BBB0B40E050E0E0
S1133E2029E030E0841B950B2817390708F48DC06E
S1133E30FC018827E250FF4F8F4F0C94AE34EB8483
S1133E40FC840D851E852B853C854D855E858B8187
S1133E509C81FC0186859785A089B189820F931F77
S1133E60A41FB51F2D813E814F815885EB81FC81B4
S1133E706701780189019A01AC01BD01CF010E945B
S1133E801F1E882309F462C08B819C81FC01258953
S1133E9036898B819C81F90119958B819C81FC0168
S1133EA08289813009F052C02B853C854D855E8521
S1133EB08B819C81FC0186859785A089B189820FBD
S1133EC0931FA41FB51FEB81FC81C12CD12C76015B
S1133ED000E010E09C01AD0160E0CF010E94161CDF
S1133EE0898734C08B859C85AD85BE852B813C81BB
S1133EF0F90186879787A08BB18B8B819C81FC010C
S1133F0026853785408951898D819E81AF81B88509
S1133F10820F931FA41FB51FED80FE800F811885AB
S1133F202D813E814F815885EB81FC8167017801A9
S1133F3089019A01AC01BD01CF010E941F1E06C078
S1133F408B819C810E94880701C0000080918E2D86
S1133F5090918F2DBE01665F7F4F20E030E0A90174
S1133F600E94BA0E882309F011CF00006596CDBFD8
S1133F70DEBFDF91CF911F910F91FF90EF90DF9003
S1133F80CF900895CF92DF92EF92FF920F931F93F9
S1133F90CF93DF93CDB7DEB72D97CDBFDEBF82C001
S1133FA080918A2D90918B2DFC0187819085FC0155
S1133FB080819181A281B38189839A83AB83BC83FD
S1133FC080918A2D90918B2DFC0187819085FC0135
S1133FD0808591858D839E838D819E8102960E942A
S1133FE0AF088D819E81FC01258936898D819E8152
S1133FF0F90119958D819E81FC018289813009F036
S113400051C08D819E81FC01268537854089518967
S113401089819A81AB81BC81820F931FA41FB51F34
S11340208F839887A987BA872F81388549855A85D0
S113403089819A81AB81BC8182179307A407B50754
S1134040F8F42D813E818F819885A985BA85F9017F
S113405082839383A483B5838D819E812D813E8148
S1134060FC01228733878D819E819C012E5F3F4F07
S113407080918A2D90918B2DB9010E942E0812C037
S113408089819A81AB81BC81ED81FE81C12CD12CC7
S1134090760100E010E09C01AD0160E0CF010E94D8
S11340A0161C8B8780918A2D90918B2DFC01808129
S11340B0882309F075CF80918A2D90918B2D8C8760
S11340C09D8780918C2D90918D2D80938A2D909336
S11340D08B2D8C859D8580938C2D90938D2D000048
S11340E02D96CDBFDEBFDF91CF911F910F91FF9031
S11340F0EF90DF90CF900895CF93DF93CDB7DEB7E5
S1134100F091A200FF93F87FF093A20080918E2D8E
S113411090918F2D892BE9F484E79DE20E94960704
S11341208FE79DE20E94960784E79DE280938A2DA3
S113413090938B2D8FE79DE280938C2D90938D2D02
S113414040E069E085E00E94130D80938E2D9093EA
S11341508F2DFF91F093A2000000DF91CF9108957D
S11341600F931F93CF93DF93CDB7DEB76497CDBF83
S1134170DEBF8B879C876D877E872F87388B498B23
S11341805A8B0B8B1C8B8EEF8A838B859C858B8340
S11341909C838D859E858D839E838F859889A9892F
S11341A0BA898F839887A987BA8780918E2D909139
S11341B08F2D4B895C89BE016E5F7F4F20E00E948A
S11341C05A0E898389816496CDBFDEBFDF91CF917A
S11341D01F910F910895CF93DF93CDB7DEB780E59C
S11341E090E020E530E0F90120812160FC0120838A
S11341F080E590E0FC018181882F90E0817099270F
S1134200892BB1F380E00E941B038EE10E94E4023B
S113421060E080E00E94040343E060E080E40E94E8
S1134220AF0280E590E020E530E0F90120812860CC
S1134230FC01208380E590E0FC018181882F90E0DF
S113424088709927892BB1F364E080EC0E94CC023A
S113425080E590E020E530E0F90120812061FC0157
S1134260208360E080E00E94040380E590E0FC018C
S11342708181882F90E080719927892BB1F384E0A4
S11342800E941B0387E00E94E4020000DF91CF91AB
S11342900895CF93DF93CDB7DEB70000DF91CF91C0
S11342A00895EF92FF920F93CF93DF931F92CDB7B0
S11342B0DEB70E941D3289830E94EB200E942F25C5
S11342C0E12CF12C02E020E030E04CE251E060E02F
S11342D070E080EA9EE20E9494110F2EF5ECEF2E1E
S11342E0FEE2FF2EF02D02E020E030E04CE251E04F
S11342F060E070E084EB91E20E9494110F2EF3ECE5
S1134300EF2EFEE2FF2EF02D02E020E030E048EC3C
S113431050E06DE070E28DE393E20E9494110E94FC
S11343207A278981882F90E0292F2F938F9388E112
S113433090E2892F8F9388E190E28F931F921F92CE
S11343401F921F920E948C278DB79EB70896CDBFEF
S1134350DEBF0E94951380E090E00F90DF91CF9133
S11343600F91FF90EF900895CF92DF92EF92FF921A
S11343700F931F93CF93DF93CDB7DEB7A897CDBF2D
S1134380DEBF8FA398A781E08983CE0102960F2E0A
S1134390F8ECCF2ED12CE12CF12CF02D8C012FEF49
S11343A03FEFA90160E070E0CB010E94B819898158
S11343B0882F90E08230910509F46EC08330910516
S11343C034F4009781F0019709F447C055C1843053
S11343D0910509F4EFC0843091050CF494C005975D
S11343E009F40CC149C18A819B81AC81BD81817072
S11343F09927AA27BB27892B8A2B8B2B11F081E0C5
S113440089838A819B81AC81BD8182709927AA2787
S1134410BB27892B8A2B8B2B11F082E089838A811D
S11344209B81AC81BD8184709927AA27BB27892BE6
S11344308A2B8B2B11F083E089838A819B81AC8149
S1134440BD8188709927AA27BB27892B8A2B8B2BA0
S113445009F411C184E089830EC183E88E838BEA59
S11344608F8387E3888785E8898785E089838EE25F
S113447090E2892F8F938EE290E28F931F921F9286
S11344801F9281E08F930E948C270F900F900F90C2
S11344900F900F900F90F0C08FE28E8387E58F838B
S11344A08FE688878DE2898782E68A8789E68B870B
S11344B08EE68C878DE28D8789E68E8783E68F87EB
S11344C088E6888B8DE2898B88E68A8B89E68B8BDC
S11344D085E68C8B82E78D8B85E0898383E490E28B
S11344E0892F8F9383E490E28F931F921F921F92E0
S11344F081E08F930E948C270F900F900F900F9064
S11345000F900F90B9C08FE58E838DE48F8385E67D
S1134510888789E689878EE68A878DE28B878EE491
S11345208C8781E68D878DE68E8785E68F878DE281
S1134530888B89E6898B83E78A8B84E78B8B8DE272
S11345408C8B81E58D8B81E48E8B8DE48F8B8DE25A
S1134550888F86E5898F85E68A8F82E78B8F83E74C
S11345608C8F89E68D8F8FE68E8F8EE68F8F81E319
S113457088A38EE289A380E38AA38EE28BA380E3DF
S11345808CA38DE28DA385E0898388E590E2892F51
S11345908F9388E590E28F931F921F921F9281E080
S11345A08F930E948C270F900F900F900F900F9075
S11345B00F9062C081E78E83CE010696019622E1B8
S11345C0EDE6F0E2DC0101900D922A95E1F785E039
S11345D089838FE790E2892F8F938FE790E28F93FF
S11345E01F921F921F9281E08F930E948C270F903D
S11345F00F900F900F900F900F903EC08E81829578
S113460086958770882F90E0292F2F938F9384E9C4
S113461090E2892F8F9384E990E28F931F921F92E7
S11346201F9282E08F930E948C278DB79EB70896C5
S1134630CDBFDEBF8E81882F90E08F719927292FFF
S11346402F938F9383EA90E2892F8F9383EA90E2EA
S11346508F931F921F921F9283E08F930E948C2747
S11346608DB79EB70896CDBFDEBFCE0106960E94D9
S1134670A530198201C0000088CE0F931F93CF93F9
S1134680DF931F921F92CDB7DEB789839A830E946E
S11346904C010E94680180E00E945A02813069F452
S11346A08091C52E9091C62E00E010E023E041E0F9
S11346B050E060E070E00E946E1A81E00E945A02AD
S11346C0813069F48091C52E9091C62E00E010E0EF
S11346D023E042E050E060E070E00E946E1A82E065
S11346E00E945A02813069F48091C52E9091C62EA1
S11346F000E010E023E044E050E060E070E00E945D
S11347006E1A83E00E945A02813069F48091C52EAA
S11347109091C62E00E010E023E048E050E060E015
S113472070E00E946E1A6AE070E080E090E00E94FF
S11347306713AFCF1F920F9200903F000F92112486
S113474000903B000F922F933F934F935F936F938F
S11347507F938F939F93AF93BF93EF93FF93CF93E5
S1134760DF931F92CDB7DEB719828091C92E909145
S1134770CA2E9E012F5F3F4F41E050E060E070E0A1
S11347800E941A0760E080E09BE00E943D0380E005
S11347909BE0FC01168200000F90DF91CF91FF9106
S11347A0EF91BF91AF919F918F917F916F915F91A5
S11347B04F913F912F910F9000923B000F900092E8
S11347C03F000F901F901895CF92DF92EF92FF92C7
S11347D00F93CF93DF9300D01F92CDB7DEB76983D9
S11347E07A838B839C8389819A81AB81BC81029774
S11347F0A105B10540F482E090E0A0E0B0E0898337
S11348009A83AB83BC8380E09BE021E0FC01268398
S113481080E09BE0FC0110A211A260E080E09BE03C
S11348200E94590389819A81AB81BC818E3F9F4F3D
S1134830A105B10598F420E03BE089819A81AB8120
S1134840BC81B695A79597958795F90186A397A3FB
S113485065E080E09BE00E943D031FC089819A814E
S1134860AB81BC8180349244AF40B105B0F420E008
S11348703BE089819A81AB81BC81689414F8B69538
S1134880A795979587951694D1F7F90186A397A3D1
S113489067E080E09BE00E943D038091C92E9091E7
S11348A0CA2E0F2EF4EFCF2EDD24D394E12CF12C5D
S11348B0F02D00E021E041E050E060E070E00E9473
S11348C0FE0300002496CDBFDEBFDF91CF910F9190
S11348D0FF90EF90DF90CF900895CF93DF931F92D6
S11348E0CDB7DEB7898389818F7089838981829569
S11348F0807F898380E096E020E036E0F90134810E
S113490029812F602323FC01248380E096E020E0AA
S113491036E0F90134812981232BFC012483000032
S11349200F90DF91CF910895CF93DF931F92CDB76E
S1134930DEB789838981882331F080E696E021E01F
S1134940FC01258305C080E696E021E0FC01268376
S113495000000F90DF91CF910895CF93DF931F92C2
S1134960CDB7DEB789838981882331F080E696E06C
S113497022E0FC01258305C080E696E022E0FC01EC
S1134980268300000F90DF91CF910895CF93DF939A
S11349901F92CDB7DEB789838981882331F080E601
S11349A096E024E0FC01258305C080E696E024E03F
S11349B0FC01268300000F90DF91CF910895CF93DF
S11349C0DF93CDB7DEB781E00E94C62461E070E0DA
S11349D080E090E00E94E42380E00E94C62400006E
S11349E0DF91CF910895CF93DF931F92CDB7DEB7B8
S11349F08983898182958F700E946D2480E00E9452
S1134A00942480E00E94AD240E94DF2489818F7069
S1134A100E946D240E94DF2400000F90DF91CF914B
S1134A200895CF93DF931F92CDB7DEB78983898131
S1134A3082958F700E946D2481E00E94942480E00E
S1134A400E94AD240E94DF2489818F700E946D240E
S1134A500E94DF2400000F90DF91CF910895EF9220
S1134A60FF920F93CF93DF93CDB7DEB780E096E04C
S1134A7020E1FC01218380E096E020E2FC01218317
S1134A8080E096E020E4FC01218380E096E020E8C9
S1134A90FC01218380E696E021E0FC01218380E68D
S1134AA096E022E0FC01218380E696E024E0FC010C
S1134AB0218380E096E020E036E0F90124812F7024
S1134AC0FC01248380E696E020E636E0F9012481A7
S1134AD0287FFC01248340E066E188E00E94130DF6
S1134AE08093C72E9093C82E0E94DB038093C92E17
S1134AF09093CA2EE12CF12C01E020E030E04EE549
S1134B0051E062EB70E28DE296E20E9494110000A3
S1134B10DF91CF910F91FF90EF900895CF93DF93A2
S1134B2000D01F92CDB7DEB789839A836B837C83D1
S1134B3089819A818130910589F0823091051CF434
S1134B40892B39F01AC08230910569F0039781F0FE
S1134B5014C08B8180580E94F3240FC08B81805431
S1134B600E94F3240AC08B818C560E94F32405C052
S1134B708B818C520E94F324000067E270E080E095
S1134B8090E00E94E42300002496CDBFDEBFDF91B5
S1134B90CF910895CF93DF931F92CDB7DEB789836A
S1134BA089810E9411256BE270E080E090E00E9410
S1134BB0E42300000F90DF91CF910895CF93DF930A
S1134BC000D01F92CDB7DEB78B839C8319821A82E3
S1134BD019C089819A812B813C81820F931FFC012A
S1134BE080818823A1F089819A812B813C81820F65
S1134BF0931FFC0180810E94CA2589819A810196B4
S1134C0089839A8389819A8144971CF301C00000A7
S1134C1000002496CDBFDEBFDF91CF910895CF93DE
S1134C20DF9300D000D0CDB7DEB789839A836B833E
S1134C307C834D835E832B813C8189819A81B90178
S1134C400E948E258D819E810E94DE25000026967D
S1134C50CDBFDEBFDF91CF910895CF93DF93CDB762
S1134C60DEB7C057D109CDBFDEBF9E0121593F4FEA
S1134C70F9018083918319821A821B821C821D820E
S1134C801E8226C01F8218861AC02D813E8144E1EF
S1134C90429FC001439F900D11249E012F5F3F4FFF
S1134CA0280F391F8F819885820F931F089620E261
S1134CB0FC0120838F81988501968F8398878F814B
S1134CC09885449714F38D819E8101968D839E83EC
S1134CD08D819E810497B4F260E47CE980E090E0E9
S1134CE00E94E42383E00E946D2468E873E180E07D
S1134CF090E00E94E4230E94DF2460EA70E080E0F8
S1134D0090E00E94E4230E94DF2460EA70E080E0E7
S1134D1090E00E94E4230E94DF2460EA70E080E0D7
S1134D2090E00E94E42382E00E946D240E94DF242C
S1134D3088E20E94F32480E10E94F3248CE00E9424
S1134D40F32486E00E94F32468EC70E080E090E0B5
S1134D500E9467138091C92E9091CA2E40E050E0C2
S1134D60BA010E943605DC01CB01892B8A2B8B2BDF
S1134D7009F496C08091C92E9091CA2E42E050E069
S1134D8060E070E00E94360519821A8226C01B82F8
S1134D901C821AC029813A8144E1429FC001439F89
S1134DA0900D11249E012F5F3F4F280F391F8B81D7
S1134DB09C81820F931F089620E2FC0120838B8143
S1134DC09C8101968B839C838B819C81449714F3F3
S1134DD089819A81019689839A8389819A8104972A
S1134DE0B4F25EC08091C72E9091C82EBE01675A5E
S1134DF07F4F2FEF3FEFA9010E94BA0E882309F4D9
S1134E004FC019821A8232C0CE01875A9F4FFC01CB
S1134E108081482F50E0CE01875A9F4FFC01818149
S1134E20282F30E089819A81820F931FBE01675A2F
S1134E307F4F29813A81260F371F2E5F3F4FF9019B
S1134E40608174E1749F9001759F300D1124AE014F
S1134E504F5F5F4F240F351F820F931F0896FC018D
S1134E60608389819A81019689839A83CE01875AC6
S1134E709F4FFC018181282F30E089819A81820F24
S1134E80931F44976CF49E01275A3F4F89819A815E
S1134E90820F931F0296FC018081882309F0B4CF0E
S1134EA08091C72E9091C82E0E947A0F882309F012
S1134EB099CF19821A8219C09E01275F3F4F4981F9
S1134EC05A8164E1649FC001659F900D1124280FED
S1134ED0391F89819A81A90160E070E00E940F2640
S1134EE089819A81019689839A8389819A81049719
S1134EF01CF32ACFCF93DF93CDB7DEB78091C92EB1
S1134F009091CA2E42E050E060E070E00E94AD054E
S1134F100000DF91CF910895CF93DF931F921F92EA
S1134F20CDB7DEB7CE010E9689839A8329813A8163
S1134F304C855D856A857B85888599850E94A62731
S1134F4000000F900F90DF91CF9108950F93CF93AE
S1134F50DF93CDB7DEB7EC97CDBFDEBF8DAB9EAB95
S1134F606FAB78AF49AF5AAF2BAF3CAF19821A82FF
S1134F701B821C820BC08B819C818A56924DFC0142
S1134F8010828B819C8101968B839C838B819C8175
S1134F9044978CF31D821E820BC08D819E818655A1
S1134FA0924DFC0110828D819E8101968D839E839A
S1134FB08D819E8144978CF3BEC18D89853209F021
S1134FC0A0C189AD9AAD9C012F5F3F4F29AF3AAF85
S1134FD0FC0180818D8B8D89882F90E08536910529
S1134FE009F446C18636910554F48336910501F1DE
S1134FF0843691050CF070C0859769F09CC18337A5
S1135000910571F18837910509F4A8C08636910598
S113501009F4E6C090C189819A818655924D25E2B2
S1135020FC01208389819A81019689839A8383C1B3
S11350308BAD9CAD9C012E5F3F4F2BAF3CAFFC0171
S1135040808191818E8B89819A818655924D2E899A
S1135050FC01208389819A81019689839A836BC19B
S11350608BAD9CAD9C012E5F3F4F2BAF3CAFFC0141
S1135070808191818F8B988F1F82188617C0298118
S11350803A818F819885820F931F2F8138854F89AC
S1135090588D240F351FF90120818655924DFC014E
S11350A020838F81988501968F8398878F89988D27
S11350B00E94C6349C018F81988582179307F8F269
S11350C08F89988D0E94C6349C0189819A81820FB0
S11350D0931F89839A832FC18BAD9CAD9C012E5F56
S11350E03F4F2BAF3CAFFC0180819181898F9A8F18
S11350F0898D9A8D4AE050E066E97DE20E94CF34C2
S113510019861A8615C029813A8189859A85820F64
S1135110931F29853A852A56324DF90120818655F7
S1135120924DFC01208389859A85019689879A8707
S113513086E99DE20E94C6349C0189859A8582177E
S1135140930708F386E99DE20E94C6349C01898195
S11351509A81820F931F89839A83EDC08BAD9CAD96
S11351609C012E5F3F4F2BAF3CAFFC0180819181AE
S1135170898F9A8F898D9A8D40E150E066E97DE2AE
S11351800E94CF341B861C8615C029813A818B85E9
S11351909C85820F931F2B853C852A56324DF9013D
S11351A020818655924DFC0120838B859C85019638
S11351B08B879C8786E99DE20E94C6349C018B857F
S11351C09C858217930708F386E99DE20E94C63402
S11351D09C0189819A81820F931F89839A83ABC032
S11351E08BAD9CAD9C012C5F3F4F2BAF3CAFFC01C2
S11351F080819181A281B3818B8F9C8FAD8FBE8F73
S11352008B8D9C8DAD8DBE8DAC01BD0186E99DE27B
S11352100E94752A1D861E8615C029813A818D85B6
S11352209E85820F931F2D853E852A56324DF901A6
S113523020818655924DFC0120838D859E850196A3
S11352408D879E8786E99DE20E94C6349C018D85E8
S11352509E858217930708F386E99DE20E94C6346F
S11352609C0189819A81820F931F89839A8363C0E9
S11352708BAD9CAD9C012C5F3F4F2BAF3CAFFC0131
S113528080819181A281B3818B8F9C8FAD8FBE8FE2
S11352908B8D9C8DAD8DBE8DAC01BD0186E99DE2EB
S11352A00E94C42B1F86188A15C029813A818F85D4
S11352B09889820F931F2F8538892A56324DF90118
S11352C020818655924DFC0120838F859889019613
S11352D08F87988B86E99DE20E94C6349C018F8556
S11352E098898217930708F386E99DE20E94C634E1
S11352F09C0189819A81820F931F89839A8300007C
S11353001AC089819A818655924D2D89FC0120838A
S113531089819A818655924DFC0180818A3031F4CD
S113532089819A818655924DFC01108289819A81E6
S1135330019689839A8389AD9AAD9C012F5F3F4F73
S113534029AF3AAFFC0180818D8B8D89882309F0C8
S113535034CE29813A818FA998AD820F931F449747
S113536054F024E130E08FA998ADA901481B590BF2
S1135370CA0189839A83198A1A8A0EC09E012F5DF5
S11353803F4F89899A89820F931FFC011082898972
S11353909A890196898B9A8B89899A89449774F39F
S11353A08DA98F8F8FA988A31B8A1C8A14C08B890F
S11353B09C898655924DFC0140819E012F5D3F4F93
S11353C08B899C89820F931FFC0140838B899C8964
S11353D001968B8B9C8B2B893C8989819A81281718
S11353E039072CF38091C72E9091C82EBE01615EBF
S11353F07F4F00E02FEF3FEFA9010E94980D8981B4
S11354009A81EC96CDBFDEBFDF91CF910F910895C5
S1135410CF93DF93CDB7DEB72897CDBFDEBF8F83A1
S1135420988719821A828F819885FC0180819181E5
S1135430A281B3818B839C83AD83BE8315C020E09E
S113544030E040E251E46B817C818D819E810E9439
S1135450E232DC01CB018B839C83AD83BE838981E3
S11354609A81019689839A8320E030E040E85FE3E3
S11354706B817C818D819E810E943C348823FCF663
S113548015C020E030E040E251E46B817C818D81E5
S11354909E810E944134DC01CB018B839C83AD83CC
S11354A0BE8389819A81019789839A832DEC3CEC90
S11354B04CEC5DE36B817C818D819E810E94DD32A9
S11354C08823FCF22F8138858B819C81AD81BE813C
S11354D0F90180839183A283B38389819A81289679
S11354E0CDBFDEBFDF91CF910895CF92DF92EF92CF
S11354F0FF92CF93DF93CDB7DEB72E97CDBFDEBF3C
S113550089879A874B875C876D877E8719821A8281
S11355101B821C828B859C85AD85BE8520E030E096
S1135520A901BC01CD010E94DD32882359F489858B
S11355309A8520E3FC01208389859A850196FC01E4
S1135540108218C18B859C85AD85BE8520E030E036
S1135550A901BC01CD010E94DD3288239CF4898518
S11355609A859C012F5F3F4F29873A872DE2FC01E2
S113557020838B859C85AD85BE85B0588B879C87A1
S1135580AD87BE87CE010B960E94082A89839A8331
S113559053C08B859C85AD85BE8520E030E040E21C
S11355A051E4BC01CD010E944134DC01CB01BC01BA
S11355B0CD010E945433DC01CB018D839E83898508
S11355C09A859C012F5F3F4F29873A872D81205D63
S11355D0FC0120838B859C85AD85BE8520E030E071
S11355E040E251E4BC01CD010E944134DC01CB0115
S11355F06C017D018D819E81092E000CAA0BBB0BD1
S1135600BC01CD010E948C33DC01CB019C01AD01B6
S1135610C701B6010E947032DC01CB018B879C87E5
S1135620AD87BE878B819C8101968B839C83898106
S11356309A81019789839A8389819A811816190618
S11356400CF4A7CF8B819C81892B51F489859A8591
S11356509C012F5F3F4F29873A8720E3FC01208379
S113566089859A859C012F5F3F4F29873A872EE2CF
S1135670FC01208314C089859A859C012F5F3F4FCC
S113568029873A8720E3FC01208389819A81019745
S113569089839A838B819C8101968B839C838981E6
S11356A09A8199230CF058C08091BD209091BE201E
S11356B02B813C8128173907F4F24EC08B859C85D9
S11356C0AD85BE8520E030E040E251E4BC01CD016F
S11356D00E944134DC01CB01BC01CD010E94543352
S11356E0DC01CB018F83988789859A859C012F5F84
S11356F03F4F29873A872F81205DFC0120838B85CA
S11357009C85AD85BE8520E030E040E251E4BC01DB
S1135710CD010E944134DC01CB016C017D018F81FC
S11357209885092E000CAA0BBB0BBC01CD010E946D
S11357308C33DC01CB019C01AD01C701B6010E9491
S11357407032DC01CB018B879C87AD87BE878B8150
S11357509C8101968B839C838091BD209091BE2077
S11357602B813C81281739070CF4A8CF89859A85A9
S1135770FC0110822E96CDBFDEBFDF91CF91FF904A
S1135780EF90DF90CF900895CF92DF92EF92FF9247
S1135790CF93DF93CDB7DEB72E97CDBFDEBF89871A
S11357A09A874B875C876D877E871B821C828B85DB
S11357B09C85AD85BE8520E030E0A901BC01CD010A
S11357C00E94DD32882359F489859A8520E3FC01FF
S11357D0208389859A850196FC011082ECC08B8513
S11357E09C85AD85BE8520E030E0A901BC01CD01DA
S11357F00E94DD3288239CF489859A859C012F5F61
S11358003F4F29873A872DE2FC0120838B859C85B5
S1135810AD85BE85B0588B879C87AD87BE87CE018A
S11358200B960E94082A8B839C838B859C85AD856F
S1135830BE8520E030E040E251E4BC01CD010E948D
S11358404134DC01CB01BC01CD010E945433DC01A5
S1135850CB018D839E8389859A859C012F5F3F4F61
S113586029873A872D81205DFC0120838B859C85C7
S1135870AD85BE8520E030E040E251E4BC01CD01BD
S11358800E944134DC01CB016C017D018D819E813C
S1135890092E000CAA0BBB0BBC01CD010E948C335A
S11358A0DC01CB019C01AD01C701B6010E9470323D
S11358B0DC01CB018B879C87AD87BE878B819C8164
S11358C001978B839C8389859A859C012F5F3F4F29
S11358D029873A872EE2FC01208319821A824EC05E
S11358E08B859C85AD85BE8520E030E040E251E4A7
S11358F0BC01CD010E944134DC01CB01BC01CD01CE
S11359000E945433DC01CB018F83988789859A8563
S11359109C012F5F3F4F29873A872F81205DFC012F
S113592020838B859C85AD85BE8520E030E040E2F8
S113593051E4BC01CD010E944134DC01CB016C0176
S11359407D018F819885092E000CAA0BBB0BBC012D
S1135950CD010E948C33DC01CB019C01AD01C70158
S1135960B6010E947032DC01CB018B879C87AD8726
S1135970BE8789819A81019689839A838091BF2009
S11359809091C02029813A81281739070CF4A8CFB7
S113599089859A859C012F5F3F4F29873A8725E6A1
S11359A0FC01208329853A858B819C814AE050E063
S11359B0B9010E94CF342E96CDBFDEBFDF91CF91C7
S11359C0FF90EF90DF90CF900895CF93DF93CDB702
S11359D0DEB780E293E02CE0FC01208380E293E0D8
S11359E023E4FC01218380E293E028E0FC0122838C
S11359F080E293E0FC01138280E293E020E233E052
S1135A00F90120812160FC01208380E296E024E0FA
S1135A10FC01218380E296E028E0FC012183000060
S1135A20DF91CF910895CF93DF93CDB7DEB780E0B8
S1135A3091E0FC01108280E091E020E4FC012083ED
S1135A40000080E091E0FC018081882F90E0807468
S1135A509927892BB1F780E091E02CE8FC012083A1
S1135A6080E091E0FC01168A80E091E020E031E0E2
S1135A70F90121892160FC01218B80E091E025E27C
S1135A80FC01208B80E091E029EDFC01228B80E079
S1135A9091E025E2FC01238B80E091E020E430E0FA
S1135AA0FC01248B358B80E091E02EEB3DE2FC0180
S1135AB0208F80E091E02EEB3DE2232F3327FC0181
S1135AC0218F80E091E0FC01128E80E091E028E3D8
S1135AD0FC01248F80E091E023E0FC01258F80E02D
S1135AE091E0FC01168E80E091E0FC0116A280E0BA
S1135AF091E020E031E0F90121A12160FC0121A322
S1135B0080E091E025E2FC0120A380E091E029ED12
S1135B10FC0122A380E091E025E2FC0123A380E0C4
S1135B2091E020E430E0FC0124A335A380E091E07F
S1135B302EEF3DE2FC0120A780E091E02EEF3DE254
S1135B40232F3327FC0121A780E091E0FC0112A65A
S1135B5080E091E028E3FC0124A780E091E023E0C9
S1135B60FC0125A780E091E0FC0116A680E091E00D
S1135B70FC0116AA80E091E020E031E0F90121A9BE
S1135B802160FC0121AB80E091E025E2FC0120AB27
S1135B9080E091E029EDFC0122AB80E091E025E278
S1135BA0FC0123AB80E091E020E430E0FC0124AB75
S1135BB035AB80E091E02EE33EE2FC0120AF80E0D3
S1135BC091E02EE33EE2232F3327FC0121AF80E056
S1135BD091E0FC0112AE80E091E02AE3FC0124AFE5
S1135BE080E091E023E0FC0125AF80E091E0FC013E
S1135BF016AE80E091E08A5B9F4FFC01108280E04A
S1135C0091E020E031E02F5B3F4FF90120812160DA
S1135C108F5B9F4FFC01208380E091E0805C9F4F6D
S1135C2025E2FC01208380E091E08E5B9F4F29ED0B
S1135C30FC01208380E091E08D5B9F4F25E2FC0115
S1135C40208380E091E08C5B9F4F20E430E0FC01F6
S1135C502083318380E091E02EE73EE2885B9F4F12
S1135C60FC01208380E091E02EE73EE2232F3327DE
S1135C70875B9F4FFC01208380E091E0865B9F4F10
S1135C80FC01108280E091E0845B9F4F2AE3FC01D9
S1135C90208380E091E0835B9F4F23E0FC0120831D
S1135CA080E091E0825B9F4FFC01108280E091E0F4
S1135CB020E031E0F90120892068FC01208B80E09C
S1135CC091E020E031E0F90120A12068FC0120A34B
S1135CD080E091E020E031E0F90120A92068FC0196
S1135CE020AB80E091E020E031E0205C3F4FF901FF
