:100000000C9420010C9449010C9449010C94490171
:100010000C9449010C9449010C94801E0C94AF1E61
:100020000C94DE1E0C940D1F0C9449010C94490194
:100030000C9449010C9449010C9427060C94490135
:100040000C9449010C9449010C9449010C94490108
:100050000C9449010C9449010C9449010C944901F8
:100060000C9449010C9449010C9449010C944901E8
:100070000C9449010C9449010C9449010C944901D8
:100080000C9449010C9449010C9449010C944901C8
:100090000C9449010C9449010C9449010C944901B8
:1000A0000C9449010C9449010C9449010C944901A8
:1000B0000C9449010C9449010C9449010C94490198
:1000C0000C9449010C9449010C9449010C94490188
:1000D0000C9449010C9449010C9449010C94490178
:1000E0000C9449010C9449010C9449010C94490168
:1000F0000C9449010C9449010C9449010C94490158
:100100000C9449010C9449010C9449010C94490147
:100110000C9449010C9449010C9449010C94490137
:100120000C9449010C9449010C9449010C94490127
:100130000C9449010C9449010C9449010C94490117
:100140000C9449010C9449010C9449010C94490107
:100150000C9449010C9449010C9449010C944901F7
:100160000C9449010C9449010C9449010C944901E7
:100170000C9449010C9449010C9449010C944901D7
:100180000C9449010C9449010C9449010C944901C7
:100190000C9449010C9449010C9449010C944901B7
:1001A0000C9449010C9449010C9449010C944901A7
:1001B0000C944C150C9449010C9449010C94490180
:1001C0000C9449010C9449010C9449010C94490187
:1001D0000C9449010C9449010C9449010C94490177
:1001E0000C9449010C9449010C9449010C94490167
:1001F0000C9449010C9449010C94490198129812ED
:100200009812E512CD12E21298129812E512CD1250
:100210000C94A4140C94E5120C9412040C94771B07
:100220000C94DC110C94CD120C94E2120C947A1DF7
:100230000C94EB160C9498120C9469130C943C0AD1
:1002400011241FBECFEFCDBFDFE3DEBF00E00CBF48
:10025000EFE4F0E38AEA90E48193E030F907E0F319
:1002600012E2A0E0B0E2E2E0F4E400E00BBF02C082
:1002700007900D92AE3BB107D9F720E3AEEBB2E2A7
:1002800001C01D92AF34B207E1F70E94F8140C943C
:10029000FF210C940000E0EAF6E080E1828380E236
:1002A000828380E4828380E8828308958091A80617
:1002B00084FD0EC08091C4229091C52280362AEE22
:1002C0009207E8F401968093C4229093C52217C048
:1002D0008091C4229091C5228B30910548F0C3973C
:1002E00018F010923A3007C081E080933A3003C092
:1002F00082E080933A301092C4221092C5228091FD
:10030000A80685FD0EC08091C2229091C32280363E
:100310002AEE9207E8F401968093C2229093C322BA
:1003200017C08091C2229091C3228B30910548F072
:10033000C39718F010923B3007C081E080933B30A8
:1003400003C082E080933B301092C2221092C322FD
:100350008091A80686FD0EC08091C0229091C12296
:1003600080362AEE9207E8F401968093C02290939B
:10037000C12217C08091C0229091C1228B3091057B
:1003800048F0C39718F010923C3007C081E080938A
:100390003C3003C082E080933C301092C022109227
:1003A000C1228091A806882374F08091BE2290918A
:1003B000BF2280362AEE9207E8F401968093BE228F
:1003C0009093BF2208958091BE229091BF228B30DE
:1003D000910548F0C39718F010923D3007C081E0B6
:1003E00080933D3003C082E080933D301092BE2266
:1003F0001092BF220895813049F028F0823049F0F0
:10040000833051F00CC080913A30089580913B3098
:10041000089580913C30089580913D30089582E0A8
:1004200008950F93CF93DF931F92CDB7DEB72FB709
:100430002983F8941BBEFC0108ED04BF6083898109
:100440008FBF0F90DF91CF910F910895611102C07E
:1004500090E001C090E2842B892B80935200089594
:100460006F71862B809355000895E0E5F0E0908150
:10047000282F209592239083908189230895682BBB
:1004800081E490E00E94110208950F931F93CF938F
:10049000C82F00E410E0F8016081687F682B80E4D9
:1004A00090E00E941102F80180818C23CF911F916E
:1004B0000F910895FC019081907F692B60830895CE
:1004C000FC019181987F692B61830895FC019681DD
:1004D0009C7F692B66830895000088ED84BF81E0CE
:1004E0008093790008950E946C020895CF93DF9362
:1004F00080E190E00E942204EC01009741F0FC01B1
:100500001192119211921192CF010E944904CE01D1
:10051000DF91CF9108952F923F924F925F926F9209
:100520007F928F929F92AF92BF92CF92DF92EF9283
:10053000FF920F931F93CF93DF93EC014A015B016E
:10054000622E702E0E94960B288039804A805B8034
:1005500001110DC081E0B201A101482159216A2198
:100560007B21452B462B472B79F480E00DC081E0A1
:10057000B201A101482159216A217B214815590561
:100580006A057B0509F080E0882381F0662009F484
:1005900070C080949094A094B09482209320A42062
:1005A000B52088829982AA82BB8263C0C114D1041B
:1005B000E104F10409F45DC0662029F040E050E058
:1005C00060E071E003C040E050E0BA017110746077
:1005D000482959296A297B2997018601CE01049669
:1005E0000E94C50D0E94810C811102C00E94A705C6
:1005F0000E94020F91FD39C0F091A200FF93F87F95
:10060000F093A200688179818A819B8171100DC06D
:1006100021E075016401C622D722E822F922CD2803
:10062000CE28CF2879F420E00DC021E075016401C7
:10063000C622D722E822F922C814D904EA04FB040E
:1006400009F020E0222371F0662061F080949094FC
:10065000A094B09486229722A822B92288829982F7
:10066000AA82BB82FF91F093A2001B012C015524AA
:1006700002C00E94810CC201B101DF91CF911F9194
:100680000F91FF90EF90DF90CF90BF90AF909F9031
:100690008F907F906F905F904F903F902F90089534
:1006A0000F931F93F091A200FF93F87FF093A200A5
:1006B000FC01008111812281338140955095609524
:1006C00070954023512362237323408351836283B7
:1006D0007383FF91F093A200C901B8011F910F919C
:1006E0000895CF93DF93EC010E94E304282F6881E3
:1006F00079818A819B812093A200DF91CF91089517
:100700004F925F926F927F92AF92BF92CF92DF92A1
:10071000EF92FF920F931F93CF93DF93EC016A0147
:100720007B018C01095F1F4F0E94960BEB85FC85B6
:1007300088819981AA81BB81C82AD92AEA2AFB2A01
:10074000C882D982EA82FB820E171F0709F442C0D1
:10075000C12CD12C7601A480B58080819181A281A9
:10076000B381AC01BD017727B2FD0FC0488059802D
:100770006A807B80442255226622772221E0452828
:100780004628472889F420E00FC0488059806A80B5
:100790007B80442255226622772221E044165506AA
:1007A0006606770609F020E0222371F0B0FF04C04E
:1007B000C42AD52AE62AF72A488159816A817B8191
:1007C0007260CF010E944D0EEA2DFB2D0E171F0700
:1007D00011F603C0C12CD12C7601C094D094E094C2
:1007E000F09488819981AA81BB81C822D922EA220A
:1007F000FB22C882D982EA82FB820E94810C688136
:1008000079818A819B81DF91CF911F910F91FF9018
:10081000EF90DF90CF90BF90AF907F906F905F9000
:100820004F9008950E94800308950F931F938901AC
:100830009A01AB01BC0182E194E00E940B131F916D
:100840000F910895CF93DF93EC010E94960B2091B6
:10085000C6223091C722C9018C0F9D1F883B4BE0F7
:10086000940758F42817390758F4E901C853DD4DA7
:100870008093C6229093C72205C0C0E0D0E002C09A
:10088000C0E0D0E00E94810CCE01DF91CF910895AD
:100890000895FC010396818392834FEF5FEFBA01C5
:1008A0004383548365837683878390878187928788
:1008B00010820895FC01128613860895CF93DF936A
:1008C0009C01FB01DC011196CD91DC911297C48350
:1008D000D5838E819F81868397838E819F81DC0162
:1008E00014966D937C9315976E837F83228733874D
:1008F000F90180818F5F8083DF91CF9108950F93FD
:100900001F93CF93DF93EB01088119812A813B81EB
:100910000F3F4FEF14072407340721F4FC01A18592
:10092000B28511C0DC01139601C0DF011496ED9170
:10093000FC911597408151816281738104171507DD
:100940002607370790F71496ED91FC911597EC83E5
:10095000FD83C683D783AE83BF831496CD93DC9388
:1009600015978A879B87FC0120812F5F2083DF9169
:10097000CF911F910F910895CF93DF93FC01A28532
:10098000B385C481D581868197818E839F83C681FB
:10099000D781848195818C839D8311968D919C91C3
:1009A0001297E817F90731F48681978111968D9394
:1009B0009C931297128613868C9181508C938C9104
:1009C000DF91CF910895E0EAF0E082819281987FF3
:1009D00092830895CF92DF92EF92FF9231E1FC0172
:1009E0003083319722E220833197A3E3A0836B0108
:1009F000E12CF12C319760833197D0823197E082DE
:100A0000319761E36083319760E86083319767E8ED
:100A100060833197108231971082319762E0608352
:100A2000319763E06083319764E06083319765E0DC
:100A30006083319766E06083319767E06083319728
:100A400068E06083319769E06083319760E160839B
:100A500031973083319732E13083319733E13083FE
:100A6000319734E13083319735E13083319736E186
:100A70003083319737E13083319738E130833197D4
:100A800039E13083319730E23083319731E230837E
:100A900031972083319723E220836A013197408385
:100AA0003197D082319726E22083319727E2208345
:100AB000319728E22083319729E22083319720E380
:100AC00020838897FF90EF90DF90CF90089583EF79
:100AD00091E0809326089093270865E080E098E0F5
:100AE0000E945A0261E080E098E00E946602A091B4
:100AF000EE2EB091EF2E0D900DBE0D900EBEEF912B
:100B0000DF91CF91BF91AF919F918F917F916F9125
:100B10005F914F913F912F911F910F91FF90EF9017
:100B2000DF90CF90BF90AF909F908F907F906F900D
:100B30005F904F903F902F901F900F90FF91F093F8
:100B4000A200FF91FFBFFF91089581E00895FF93F8
:100B5000FFB7FF93F091A200FF93F87FF093A200FC
:100B60000F921F9211242F923F924F925F926F9299
:100B70007F928F929F92AF92BF92CF92DF92EF922D
:100B8000FF920F931F932F933F934F935F936F9316
:100B90007F938F939F93AF93BF93CF93DF93EF9305
:100BA000A091EE2EB091EF2E0DB60D920EB60D92D5
:100BB0000E941F0DA091EE2EB091EF2E0D900DBE54
:100BC0000D900EBEEF91DF91CF91BF91AF919F91AC
:100BD0008F917F916F915F914F913F912F911F91D5
:100BE0000F91FF90EF90DF90CF90BF90AF909F90CC
:100BF0008F907F906F905F904F903F902F901F90BD
:100C00000F90FF91F093A200FF91FFBFFF91089515
:100C1000CF9390913E30892B80933E309091A000ED
:100C2000913041F09091A000923021F09091A0007D
:100C3000943059F4882349F00E94E304C82F10929D
:100C40003E300E941F0DC093A200CF910895FF93E4
:100C5000FFB7FF93F091A200FF93F87FF093A200FB
:100C60000F921F9211242F923F924F925F926F9298
:100C70007F928F929F92AF92BF92CF92DF92EF922C
:100C8000FF920F931F932F933F934F935F936F9315
:100C90007F938F939F93AF93BF93CF93DF93EF9304
:100CA000A091EE2EB091EF2E0DB60D920EB60D92D4
:100CB0000E94E304C82F0E94AE0BC093A20081E003
:100CC0000E940806A091EE2EB091EF2E0D900DBE61
:100CD0000D900EBEEF91DF91CF91BF91AF919F919B
:100CE0008F917F916F915F914F913F912F911F91C4
:100CF0000F91FF90EF90DF90CF90BF90AF909F90BB
:100D00008F907F906F905F904F903F902F901F90AB
:100D10000F90FF91F093A200FF91FFBFFF911895F4
:100D2000F091A200FF93F87FF093A200FC01968D52
:100D3000FF91F093A20081E0911180E00895DC0121
:100D4000F091A200FF93F87FF093A2005E969C9131
:100D50005E97FF91F093A20081E05F962C9129139A
:100D600080E008950F931F93CF93DF93EC01042F3E
:100D70001E8D48A14423B9F1011116C050E08C81A9
:100D80009D810E94BA2128A18C819D81820F911D95
:100D90008C839D832A813B818217930720F1888170
:100DA00099818C839D831FC050E08E819F810E941A
:100DB000BA2188A190E09195819591092E813F817A
:100DC000280F391F2E833F83488159812417350707
:100DD00030F42A813B81820F931F8E839F830230E0
:100DE00011F4111111501F5F1E8F80E0DF91CF9120
:100DF0001F910F910895FC0140A14423A9F050E0F8
:100E000026813781240F351F268337838281938182
:100E10002817390720F08081918186839783CB0141
:100E2000668177810E94BA210895EF92FF920F9315
:100E30001F93CF938C01F091A200FF93F87FF09362
:100E4000A200FC01C2A11C16ACF48389811106C06A
:100E500011C0F8018389811105C00CC07801F3E14C
:100E6000EF0EF11CC7010E940B0E81110E94F00EC3
:100E7000C15079F78FEFF80182A3FF91F093A200A0
:100E8000F091A200FF93F87FF093A200F801C1A1B6
:100E90001C16ACF48085811106C011C0F801808554
:100EA000811105C00CC07801F8E0EF0EF11CC701FC
:100EB0000E940B0E81110E94F00EC15079F78FEF46
:100EC000F80181A3FF91F093A200CF911F910F91A0
:100ED000FF90EF900895CF93DF93EC01F091A20083
:100EE000FF93F87FF093A2004881598128A130E058
:100EF0007F8D729FC001739F900D1124FA01E80F3E
:100F0000F91FEA83FB831E8E4C835D83821B930B48
:100F1000840F951F8E839F838FEF89A38AA361110E
:100F20000CC08885882389F0CE0108960E940B0E9C
:100F3000882359F00E94A70508C0CE0108960E9498
:100F40004904CE0143960E944904FF91F093A20008
:100F500081E0DF91CF910895FF920F931F93CF937C
:100F6000DF93082F162FF42E6623C9F0869FC00149
:100F7000112485960E942204EC01009749F416C0C2
:100F80000F8F18A361E0CE010E946B07FCA20EC078
:100F9000859688839983F4CFC883D983F1CF85E27E
:100FA00090E00E942204EC01892BB1F7CE01DF9181
:100FB000CF911F910F91FF900895AF92BF92CF9262
:100FC000DF92EF92FF920F931F93CF93DF93CDB7F2
:100FD000DEB72997CDBFDEBF7C015B012E833F8347
:100FE0004887598710E06C0188E0C80ED11CF09149
:100FF000A200FF93F87FF093A200F701968D878DF2
:10100000981710F00230D1F4402FB501C7010E94AB
:10101000B206F7019389992349F0C70143960E94CC
:101020000B0E882331F00E94A70503C081110E9496
:10103000A705FF91F093A20081E057C08E819F81A8
:10104000A885B985892B8A2B8B2B29F4FF91F093E6
:10105000A20080E04AC0111105C0CE0101960E9495
:10106000810E11E0FF91F093A2000E94960BF09187
:10107000A200FF93F87FF093A200F70181A18F3FB8
:1010800009F411A2F70182A18F3F09F412A2FF9186
:10109000F093A200BE016A5F7F4FCE0101960E94CD
:1010A000920E81111CC0C7010E949F06882389F0FF
:1010B0004E815F8168857985C6010E94AD0DC701AB
:1010C0000E9415070E94810C811191CF0E94A705F3
:1010D0008ECFC7010E9415070E94810C88CFC701DF
:1010E0000E9415070E94810C80E02996CDBFDEBFCB
:1010F000DF91CF911F910F91FF90EF90DF90CF90F4
:10110000BF90AF900895AF92BF92CF92DF92FF92BF
:101110000F931F93CF93DF93EC016B015A01022FC2
:101120000E94E304F82E9E8D8F8D981710F00230E8
:10113000E1F41AA1402FB601CE010E94B2061F3F72
:1011400081F48B89882399F0CE0143960E940B0E7F
:10115000882379F0A114B10471F081E0F501808356
:101160000BC01F5F1AA381E007C080E005C081E0CB
:1011700003C081E001C081E0F092A200DF91CF9135
:101180001F910F91FF90DF90CF90BF90AF90089587
:10119000AF92BF92CF92DF92EF92FF920F931F9385
:1011A000CF93DF93CDB7DEB72997CDBFDEBF8C01DC
:1011B0005B012E833F8348875987E12C6C0183E1D3
:1011C000C80ED11CF091A200FF93F87FF093A2000B
:1011D000F801F68CFF20B1F0B501C8010E94FB06B2
:1011E000FA94F801F68E8085882339F0C8010896B4
:1011F0000E940B0E81110E94A705FF91F093A2009F
:1012000081E05EC08E819F81A885B985892B8A2B5C
:101210008B2B29F4FF91F093A20080E051C0E110E4
:1012200006C0CE0101960E94810EEE24E394FF9148
:10123000F093A2000E94960BF091A200FF93F87F1A
:10124000F093A200F80181A18F3F09F411A2F801E7
:1012500082A18F3F09F412A2FF91F093A200BE0178
:101260006A5F7F4FCE0101960E94920E81111CC0D1
:10127000C8010E949006882389F04E815F816885AD
:101280007985C6010E94AD0DC8010E9415070E9414
:10129000810C811197CF0E94A70594CFC8010E94AD
:1012A00015070E94810C8ECFC8010E9415070E946D
:1012B000810CC8010E949006882309F483CF80E046
:1012C0002996CDBFDEBFDF91CF911F910F91FF9087
:1012D000EF90DF90CF90BF90AF900895F091A20073
:1012E000FF93F87FF093A200FC01868DFF91F093AD
:1012F000A2000895CF93DF93EC01F091A200FF9339
:10130000F87FF093A20089A18F3F09F419A28AA166
:101310008F3F09F41AA2FF91F093A2008E8D8111E4
:1013200004C0CE0143960E94EA0DCE010E9415072B
:10133000DF91CF910895E091AA2EF091AB2E80819C
:1013400081110CC08FEF9FEFDC018093832E90936F
:10135000842EA093852EB093862E0895E091AA2E18
:10136000F091AB2E0780F085E02D0084F185E02D13
:1013700082819381A481B5818093832E9093842E62
:10138000A093852EB093862E08958F929F92AF9250
:10139000BF92CF92DF92EF92FF92CF936B017C01CD
:1013A000C42F80908D2E90908E2EA0908F2EB09076
:1013B000902E8091EE2E9091EF2E02960E94BC040A
:1013C0008FEFC816D806E806F80669F4CC2359F062
:1013D0006091EE2E7091EF2E6E5F7F4F82E99EE25C
:1013E0000E945E043FC0C80CD91CEA1CFB1CE091A3
:1013F000EE2EF091EF2EC282D382E482F582C814E1
:10140000D904EA04FB0468F46091EE2E7091EF2E8B
:101410008091A82E9091A92E6E5F7F4F0E947F042D
:1014200021C06091EE2E7091EF2E8091AA2E9091A6
:10143000AB2E6E5F7F4F0E947F048091832E909130
:10144000842EA091852EB091862EC816D906EA0664
:10145000FB0640F4C092832ED092842EE092852E1B
:10146000F092862ECF91FF90EF90DF90CF90BF90BB
:10147000AF909F908F900895C2ECDEE28881823019
:1014800010F00E94A7050E94F714F8CF4F925F92C8
:101490006F927F928F929F92AF92BF92CF92DF9284
:1014A000EF92FF920F93CF93DF934C016B015A01A0
:1014B0002901CA010E9422043C01892B09F4EAC0D7
:1014C0008CE290E00E942204EC01892BB1F06B8E3B
:1014D0007C8EA50165EA70E0C3010E94C32121E072
:1014E000A21AB1088B8D9C8DA80EB91ED6018C91C5
:1014F0008D8F8C91811105C018C0C3010E944804D2
:10150000C9C0AE01425E5F4FF6013196B8E0CB0E26
:10151000D11CCF012191DA012D93AD01DC018C9119
:10152000882319F0EC15FD05A1F71CA2043008F082
:1015300003E00A8F6E01B2E0CB0ED11CC6010E94FF
:101540005A04CE010E960E945A04CA87DB8784E0B3
:1015500090E0A0E0B0E0801B9109A109B1098E875D
:101560009F87A88BB98BCE8BDF8B1FA218A619A6DD
:101570001AA61BA6A201B401C5010E94EA04888331
:101580009983E114F10419F0F701C083D183F0913C
:10159000A200FF93F87FF093A2008091912E8F5FBD
:1015A0008093912E8091EE2E9091EF2E892BA9F5AC
:1015B000C093EE2ED093EF2E8091912E8130E9F5DD
:1015C00082EC9EE20E9449048DEC9EE20E94490456
:1015D00088ED9EE20E94490483EE9EE20E94490447
:1015E00087EB9EE20E9449048CEA9EE20E94490435
:1015F0008DE99EE20E94490482E99EE20E9449042C
:1016000087EB9EE28093AA2E9093AB2E8CEA9EE20B
:101610008093A82E9093A92E10C080918B2E8111BB
:101620000CC0E091EE2EF091EF2E928D8A8D8917ED
:1016300020F0C093EE2ED093EF2E8091872E8F5FF7
:101640008093872E8DA38A8D90918C2E981710F4FD
:1016500080938C2EFBE08F9FC0011124B6018E5326
:10166000914D0E945E04FF91F093A20080918B2E19
:10167000882361F0E091EE2EF091EF2E928D8A8D0D
:10168000981730F40E94A70581E005C081E003C0EF
:1016900081E001C08FEFDF91CF910F91FF90EF902C
:1016A000DF90CF90BF90AF909F908F907F906F9082
:1016B0005F904F900895EF92FF920F930F2EF1E8F5
:1016C000EF2EFEE2FF2EF02D00E020E030E048ECAF
:1016D00050E061E070E28CE39AE00E94460A8130BB
:1016E00009F50E94C9108130E9F4E0EAF0E0828156
:1016F000887F82838FEF9FEFDC018093832E90930E
:10170000842EA093852EB093862E81E080938B2E1D
:1017100010928D2E10928E2E10928F2E1092902E4F
:101720000E9467050F91FF90EF9008958091802EA1
:101730008F5F8093802E0895F091A200FF93F87F31
:10174000F093A20060918D2E70918E2E80918F2E3D
:101750009091902EFF91F093A2000895AF92BF92C6
:10176000CF92DF92EF92FF920F931F93CF93DF936D
:101770008091802E8111ADC0C0908D2ED0908E2E84
:10178000E0908F2EF090902E8FEFC81AD80AE80ABA
:10179000F80AC0928D2ED0928E2EE0928F2EF0926B
:1017A000902EC114D104E104F104B9F48091AA2E61
:1017B0009091AB2E2091A82E3091A92E2093AA2E85
:1017C0003093AB2E8093A82E9093A92E8091882ED3
:1017D0008F5F8093882E0E949B098091832E909129
:1017E000842EA091852EB091862EC816D906EA06C1
:1017F000FB0610F4B12C5CC0B12C0F2EFBE0AF2E19
:10180000F02DE091AA2EF091AB2E808181110CC0B9
:101810008FEF9FEFDC018093832E9093842EA09313
:10182000852EB093862E44C0E091AA2EF091AB2E67
:101830000780F085E02DC085D1858A819B81AC81B0
:10184000BD81C816D906EA06FB0648F48093832EAC
:101850009093842EA093852EB093862E29C08E015E
:101860000E5F1F4FC8010E94BC04888D998D892B83
:1018700021F0CE010E960E94BC048A8D90918C2E90
:10188000981710F480938C2EA89EC0011124B801E3
:101890008E53914D0E945E04E091EE2EF091EF2E5A
:1018A0009A8D828D981708F4ACCFBB24B394A9CF3E
:1018B000E091EE2EF091EF2EE28D8BE0E89FF001AB
:1018C0001124EE53F14D8081823048F0BB24B39453
:1018D00006C080918A2E8F5F80938A2EB12C8091D2
:1018E000892E882311F0BB24B3948B2DDF91CF91E7
:1018F0001F910F91FF90EF90DF90CF90BF90AF902E
:101900000895CF92DF92EF92FF920F931F93CF93A0
:10191000DF93F091A200FF93F87FF093A2008091F3
:10192000802E81508093802E8091802E81115CC00A
:101930008091912E81112CC05AC0D7011796ED913C
:10194000FC911897C085D185CE010E960E94BC04EB
:101950008E010E5F1F4FC8010E94BC048A8D9091BA
:101960008C2E981710F480938C2ED89EC0011124D1
:10197000B8018E53914D0E945E04E091EE2EF091DD
:10198000EF2E9A8D828D981788F0C092892E0EC006
:10199000C0E0D0E00F2EFDE9EF2EFEE2FF2EF02D8D
:1019A0000F2EFBE0DF2EF02DCC24C394F7018081B5
:1019B0008111C3CFCD2B11F00E949B09C0918A2EBB
:1019C000CC2351F0D1E00E94AE0B8111D093892E2F
:1019D000C150C9F710928A2E8091892E882331F048
:1019E0000E94A70581E003C080E001C080E0FF9174
:1019F000F093A200DF91CF911F910F91FF90EF9094
:101A0000DF90CF900895CF92DF92EF92FF926B011B
:101A10007C01672B682B692B59F00E94960B40E0E4
:101A2000C701B6010E94C5090E94810C811102C044
:101A30000E94A705FF90EF90DF90CF9008958091CE
:101A4000802E882321F081E08093892E08951092C2
:101A5000892EE091EE2EF091EF2E038CF48DE02D87
:101A600080819181A281B381853A954AA54AB54A80
:101A7000D9F484819581A681B781853A954AA54A92
:101A8000B54A91F480859185A285B385853A954ABA
:101A9000A54AB54A49F484859585A685B785853AD2
:101AA000954AA54AB54A61F06091EE2E7091EF2EED
:101AB0008091EE2E9091EF2E635E7F4F0E94730215
:101AC00080918C2E282F30E09BE0899FF00111241B
:101AD000EE53F14D908191110EC04BE08150282FB3
:101AE00030E0429FF001439FF00D1124EE53F14D81
:101AF0009081992399F39BE0929FA001939F500DB1
:101B00001124DA01AE53B14D1196ED91FC9112976B
:101B10000480F581E02D1196ED93FC9312974B53C1
:101B2000514DE417F50729F444815581FD014183A6
:101B300052839BE0929FF001939FF00D1124EE538E
:101B4000F14D0180F281E02D208531852093EE2E2C
:101B50003093EF2E80938C2E0895CF92DF92EF92E8
:101B6000FF926A017B016091EE2E7091EF2E625F11
:101B70007F4F0E947F0441E0C701B6010E94C50962
:101B8000FF90EF90DF90CF900895CF92DF92EF9289
:101B9000FF920F931F9368017901E091EE2EF0916F
:101BA000EF2E706846875787608B718B6091EE2EA1
:101BB0007091EF2E625F7F4F0E945E0441E0C7018B
:101BC000B6010E94C5091F910F91FF90EF90DF9021
:101BD000CF900895CF92DF92EF92FF92CF936A0158
:101BE0007B01C22F6091EE2E7091EF2E625F7F4FCE
:101BF0000E945E04CC2321F0CC24CA94DC2C760114
:101C00004C2FC701B6010E94C509CF91FF90EF90FC
:101C1000DF90CF9008950F931F93CF93DF93DC0154
:101C20001796ED91FC911897C085D1858E01025FC2
:101C30001F4FC8010E94BC048091802E811116C0E4
:101C40000C501109C8010E94BC048A8D90918C2E01
:101C5000981710F480938C2EBBE08B9FC001112449
:101C6000B8018E53914D0E945E0405C0B8018DE904
:101C70009EE20E945E04E091EE2EF091EF2E9A8D8E
:101C8000828D891720F481E08093892E01C080E045
:101C9000DF91CF911F910F9108950F931F93CF93D1
:101CA000DF937068FC014083518362837383C08536
:101CB000D1850E94BC048E010E5F1F4FC8010E9497
:101CC000BC048A8D90918C2E981710F480938C2EE2
:101CD000FBE08F9FC0011124B8018E53914D0E94EB
:101CE0005E04E091EE2EF091EF2E9A8D828D891791
:101CF00018F481E08093892EDF91CF911F910F918D
:101D000008952091882EFC01208340918D2E5091C2
:101D10008E2E60918F2E7091902E4183528363831B
:101D200074830895CF92DF92EF92FF920F931F93E7
:101D3000CF93DF93DB01F091A200FF93F87FF09344
:101D4000A20040918D2E50918E2E60918F2E709119
:101D5000902E0D911D912D913C9113970F3FCFEF38
:101D60001C072C073C0769F1FC01C180D280E3808D
:101D7000F480E091882EEC01F881FE1729F04C15D3
:101D80005D056E057F05F8F44C195D096E097F0944
:101D9000401751076207730768F4FD01041B150B18
:101DA000260B370B00831183228333830E94810E1D
:101DB00080E00AC01D921D921D921C92139781E033
:101DC00003C080E001C081E0FF91F093A200DF91A9
:101DD000CF911F910F91FF90EF90DF90CF900895DA
:101DE00081E08093892E089580918B2E882331F095
:101DF0008091802E882321F080E0089581E008956D
:101E000082E00895CF92DF92EF92FF92E091EE2E62
:101E1000F091EF2E6685778580899189E091EE2E8D
:101E2000F091EF2EA091EE2EB091EF2E5A962C91BC
:101E3000C12CD12C76016894C2F8C21AD108E108ED
:101E4000F108C686D786E08AF18AFF90EF90DF908E
:101E5000CF9008954F925F926F927F928F929F9250
:101E6000AF92BF92CF92DF92EF92FF920F931F93A8
:101E700049015A01F091A200FF93F87FF093A2006C
:101E8000E091EE2EF091EF2E23A5223041F1E0916A
:101E9000EE2EF091EF2E47A050A461A472A4DC01B5
:101EA000CB0180959095A095B09584219521A62190
:101EB000B72187A390A7A1A7B2A7E091EE2EF0913A
:101EC000EF2E81E083A7C114D104E104F10439F0BD
:101ED00041E0C701B6010E94C5090E94A705FF9114
:101EE000F093A200F091A200FF93F87FF093A2007C
:101EF0000115110569F0E091EE2EF091EF2E87A10A
:101F000090A5A1A5B2A5F80180839183A283B38394
:101F1000E091EE2EF091EF2E83A58230B1F4E091A6
:101F2000EE2EF091EF2E87A190A5A1A5B2A58094E9
:101F30009094A094B09488229922AA22BB2287A2CE
:101F400090A6A1A6B2A681E001C080E0E091EE2EAD
:101F5000F091EF2E13A6FF91F093A2001F910F9125
:101F6000FF90EF90DF90CF90BF90AF909F908F90B9
:101F70007F906F905F904F900895CF92DF92EF9295
:101F8000FF920F931F93CF93DF93DC01F091A20098
:101F9000FF93F87FF093A2000115110559F0979671
:101FA000CD90DD90ED90FC909A97F801C082D1829F
:101FB000E282F3829B968C919B9792E09B969C93F6
:101FC0009B972230D1F018F4213031F036C0233005
:101FD00029F1243051F131C097960D911D912D9129
:101FE0003C919A97402B512B622B732B97964D93D4
:101FF0005D936D937C939A9720C097964D915D91D8
:102000006D917C919A974F5F5F4F6F4F7F4F97967F
:102010004D935D936D937C939A970FC097964D93D4
:102020005D936D937C939A9708C0823059F197968F
:102030004D935D936D937C939A97813029F5ED01D3
:102040008D010E5F1F4FC8010E94BC048A8D9091C4
:102050008C2E981710F480938C2EFBE08F9FC0017C
:102060001124B8018E53914D0E945E04E091EE2E32
:10207000F091EF2E9A8D828D891740F40E94A7056A
:1020800081E005C080E003C081E001C081E0FF91F4
:10209000F093A200DF91CF911F910F91FF90EF90ED
:1020A000DF90CF900895CF92DF92EF92FF920F933F
:1020B0001F93FC01428353836483758382879387D4
:1020C0000417150726073707C0F00C191D092E093C
:1020D0003F0986859785A089B189081719072A07BE
:1020E0003B0700F5BF016E5F7F4F8091F82E909106
:1020F000F92E0E947F0480E018C00C151D052E05E6
:102100003F0528F44C155D056E057F0568F4BF0199
:102110006E5F7F4F8091FA2E9091FB2E0E947F047C
:1021200080E003C081E001C081E01F910F91FF902A
:10213000EF90DF90CF900895F091A200FF93F87F89
:10214000F093A2008091F62E9091F72E892BE9F45E
:1021500087E09FE20E9449048CEF9EE20E944904BE
:1021600087E09FE28093FA2E9093FB2E8CEF9EE205
:102170008093F82E9093F92E40E069E085E00E946C
:10218000AC078093F62E9093F72EFF91F093A20068
:102190000895EF92FF920F930E949C108091F62E6B
:1021A0009091F72E892B91F00F2EF4EFEF2EFEE297
:1021B000FF2EF02D03E020E030E048EC50E066E038
:1021C00070E28CED91E10E94460A01C080E00F911F
:1021D000FF90EF9008958F929F92AF92BF92CF920F
:1021E000DF92EF92FF920F931F93CF93DF93CDB7C0
:1021F000DEB72997CDBFDEBFE091F62EF091F72E26
:10220000309789F169832A833B834C835D838E8376
:102210009F836630FCF40E94F40E823069F400E083
:10222000A7019601BE016F5F7F4F8091F62E9091BE
:10223000F72E0E94DD0718C000E020E030E0A90181
:10224000BE016F5F7F4F8091F62E9091F72E0E9416
:10225000DD070AC020E0A801BE016F5F7F4FCF01FC
:102260000E94830801C080E02996CDBFDEBFDF91C8
:10227000CF911F910F91FF90EF90DF90CF90BF9083
:10228000AF909F908F9008952F923F924F925F92C0
:102290006F927F928F929F92AF92BF92CF92DF9276
:1022A000EF92FF920F931F93CF93DF931C010E9435
:1022B0009C0B2B013C018091F02E9091F12EA0916E
:1022C000F22EB091F32E481659066A067B0608F0E6
:1022D00054C03CC00780F085E02D80809180A280B2
:1022E000B380C085D1858E010E5F1F4FC8010E944B
:1022F000BC04ED89FE89CE0119958A89813031F5BA
:102300008E859F85A889B989880D991DAA1DBB1D39
:1023100088169906AA06BB0670F48A839B83AC8351
:10232000BD83CA87DB87B8018091FA2E9091FB2E7E
:102330000E947F040BC0C12CD12C760100E010E07C
:10234000A501940160E0CE010E94EB10E091FA2E0D
:10235000F091FB2E80818111BDCF8091F82E90915C
:10236000F92E8093FA2E9093FB2EE093F82EF093A3
:10237000F92E81E0F101808302C0F10110824092C8
:10238000F02E5092F12E6092F22E7092F32EC30135
:10239000B201DF91CF911F910F91FF90EF90DF90ED
:1023A000CF90BF90AF909F908F907F906F905F90F5
:1023B0004F903F902F900895CF93DF93CDB7DEB726
:1023C0002E97CDBFDEBFCE0101961C01A82EB32CE7
:1023D000E091FA2EF091FB2E8081882309F403C14D
:1023E0000780F085E02D40805180628073800E94DC
:1023F000960BC1010E9444116B877C878D879E8755
:10240000898181115EC08B859C85AD85BE858415D3
:102410009505A605B705E8F10E94810CE091FA2E1A
:10242000F091FB2E0780F085E02D80849184C4011B
:1024300002960E94BC04D40152968C91529781302E
:1024400001F51E964D915D916D917C915197440DD2
:10245000551D661D771D730162010B851C852D8539
:102460003E85C4010E945310882359F0C12CD12C01
:10247000760100E010E0A301920160E0C4010E9437
:10248000EB10D4015596ED91FC915697C401199526
:102490009CC020E0B301A2018B859C85AD85BE85E3
:1024A000481B590B6A0B7B0B8091F62E9091F72EEF
:1024B0000E947A090E94810C811187C00E94A705A1
:1024C00084C00E94810C81C0898188236CF44E8174
:1024D0005F8168857985EA81FB818C819D81199571
:1024E000898188230CF471C08E809F80D4011C9652
:1024F0008D919C911D97892B21F0C40102960E9419
:10250000BC04CE010A960E9444118B019C01898172
:10251000082E000C990BAA0BBB0B8A30910508F012
:1025200054C0FC018827E250FF4F8F4F0C94B2211A
:10253000CA80DB80EC80FD80F40146855785608988
:1025400071894C0D5D1D6E1D7F1DC4010E945310CD
:102550008823D9F1D4015596ED91FC915697C40189
:102560001995F4018289813081F54A815B816C8102
:102570007D8186859785A089B1899A01AB01280F55
:10258000391F4A1F5B1FC12CD12C760100E010E0DF
:1025900060E0C4010E94EB1018C04A815B816C812D
:1025A0007D81D4011E964D935D936D937C935197DD
:1025B000400F511F621F731F68017901C4010E94FF
:1025C000531003C0C4010E94480420E030E0A90178
:1025D0006A2D7B2D8091F62E9091F72E0E94C808CF
:1025E000811172CFF5CE0E94960BC1010E94441159
:1025F0006B877C878D879E878981811162CFE0916F
:10260000F82EF091F92E808121E0811120E0412CFB
:10261000512C32013FCF0F931F93CF93DF93CDB750
:10262000DEB72997CDBFDEBFEEEFE9838A839B83B8
:102630006C837D832E833F834887598720E0A801E0
:10264000BE016F5F7F4F8091F62E9091F72E0E9412
:1026500083082996CDBFDEBFDF91CF911F910F91E7
:102660000895E0E5F0E0808181608083818180FFD2
:10267000FDCF80E00E9445028EE10E94350260E0BD
:1026800080E00E943F0243E060E080E40E94260276
:10269000E0E5F0E0808188608083818183FFFDCF69
:1026A00064E080EC0E943002E0E5F0E0808180612F
:1026B000808360E080E00E943F02E0E5F0E08181FD
:1026C00084FFFDCF84E00E94450287E00E9435022E
:1026D0000895CF93DF93CDB7DEB7A597CDBFDEBF0B
:1026E000BB24B394AA24A3940F2EF3E26F2EF0E23E
:1026F0007F2EF02D0F2EFFE58F2EF0E29F2EF02D76
:102700000F2EF3E84F2EF0E25F2EF02D0F2EFEE09D
:102710002F2EF0E23F2EF02D0F2EF8ECCF2ED12CE5
:10272000E12CF12CF02D8E010F5F1F4F2FEF3FEFAB
:10273000A90160E070E0CB010E942A0F22E0B216EE
:1027400009F445C02B1530F0BB2081F081E0B816AC
:1027500019F1E2CF94E0B91609F4B2C0B91608F441
:1027600067C025E0B21609F4C9C0D6CF898181FDC2
:1027700004C0982F9170B92E03C06894BB24B1F89F
:1027800082FF04C00F2EF3E0BF2EF02D83FFC4CFD5
:102790006894BB24B2F8C0CF83E88D838BEA8E8324
:1027A00087E38F8385E888873F922F921F921F923D
:1027B0001F92AF920E94D4170F900F900F900F901E
:1027C0000F900F900F2EF5E0BF2EF02DA5CF2FE22A
:1027D0002D83AE8283E28F8395E4988787E689878D
:1027E00089E88A878BEA8B878DEC8C878FEE8D87C3
:1027F00083E68E8788E68F879DE2988B898B89E6B2
:102800008A8B85E68B8B82E78C8B7F926F921F92EF
:102810001F921F92AF920E94D4170F900F900F90AB
:102820000F900F900F900F2EF5E0BF2EF02D74CF6C
:102830008FE58D835DE45E8325E62F8399E6988797
:102840003EE639878DE28A874EE44B8741E64C8726
:102850004DE64D872E878F87988B43E7498B64E73A
:102860006A8B8B8B61E56C8B61E46D8B5E8B8F8BE0
:1028700056E5588F298F22E72A8F4B8F9C8F9FE632
:102880009D8F3E8F91E39F8F2EE228A390E399A323
:102890002AA39BA38CA388E390E29F938F931F921C
:1028A0001F921F92AF920E94D4170F900F900F901B
:1028B0000F900F900F900F2EF5E0BF2EF02D2CCF24
:1028C00081E78D8382E1EDE4F0E2DE01169601906E
:1028D0000D928A95E1F79F928F921F921F921F92FD
:1028E000AF920E94D4170F900F900F900F900F90FF
:1028F0000F900F2EF5E0BF2EF02D0ECF8D8182951B
:10290000869587701F928F9384E790E29F938F93B1
:102910001F921F921F9282E08F930E94D4178D8185
:102920008F711F928F935F924F921F921F921F92EF
:1029300083E08F930E94D417CE0105960E943C1F1E
:10294000CDBFDEBFB12CE8CE0E944B010E945601E4
:1029500080E00E94FB01813069F400E010E023E098
:1029600041E050E060E070E0809141309091423071
:102970000E94BD0F81E00E94FB01813069F400E0FC
:1029800010E023E042E050E060E070E080914130F0
:10299000909142300E94BD0F82E00E94FB01813085
:1029A00069F400E010E023E044E050E060E070E013
:1029B00080914130909142300E94BD0F83E00E948F
:1029C000FB01813069F400E010E023E048E050E0D2
:1029D00060E070E080914130909142300E94BD0FE4
:1029E0006AE070E080E090E00E94030DAFCF0895B0
:1029F000EF92FF920F93CF930E944E1FC82F0E9419
:102A000031130E944D16E12CF12C02E020E030E061
:102A10004CE251E060E070E08AE79DE10E94460AE6
:102A20000F2EF1E4EF2EF0E3FF2EF02D20E030E04A
:102A30004CE251E060E070E089E693E10E94460AD2
:102A40000F2EFFE3EF2EF0E3FF2EF02D20E030E01D
:102A500048EC50E062E970E284EA94E10E94460AA0
:102A60000E94C9171F92CF938DE990E29F938F9395
:102A70001F921F921F921F920E94D4170E945B0BFD
:102A80008DB79EB708968DBF9EBF80E090E0CF9136
:102A90000F91FF90EF9008951F920F920FB60F9233
:102AA00011240BB60F922F933F934F935F936F9325
:102AB0007F938F939F93AF93BF93EF93FF93CF93A6
:102AC000DF931F92CDB7DEB719829E012F5F3F4F74
:102AD00041E050E060E070E08091453090914630F8
:102AE0000E94150460E080E09BE00E945A02109270
:102AF000060B0F90DF91CF91FF91EF91BF91AF91B6
:102B00009F918F917F916F915F914F913F912F9105
:102B10000F900BBE0F900FBE0F901F901895CF9285
:102B2000DF92EF92FF920F936B017C0182E0C81657
:102B3000D104E104F10408F44EC0E0E0FBE081E0E0
:102B4000868310A211A260E080E09BE00E946002F8
:102B50008EEFC8168FEFD806E104F10470F4F694F6
:102B6000E794D794C794C092260BD092270B65E0C8
:102B700080E09BE00E945A0219C080E4C81682E4FB
:102B8000D8068FE0E806F10488F4689414F8F69407
:102B9000E794D794C7941694D1F7C092260BD0929D
:102BA000270B67E080E09BE00E945A020F2EF4EFB3
:102BB000CF2EDD24D394E12CF12CF02D00E021E088
:102BC00041E050E060E070E0809145309091463007
:102BD0000E948B0211C0E0E0FBE081E0868310A23E
:102BE00011A260E080E09BE00E946002C12CD12C29
:102BF00076016894C1F8B3CF0F91FF90EF90DF900A
:102C0000CF9008958295807FE0E0F6E09481282FB0
:102C10002F60922394839481892B848308951F933A
:102C2000CF93DF93C0E6D6E014E01D8361E070E04F
:102C300080E090E00E948F151E83DF91CF911F915D
:102C40000895CF93C82F82958F700E940216E0E6F8
:102C5000F6E081E0868382E086830E940F168C2F47
:102C60008F700E9402160E940F16CF910895CF9385
:102C7000C82F82958F700E940216E0E6F6E081E090
:102C8000858382E086830E940F168C2F8F700E94AE
:102C900002160E940F16CF910895EF92FF920F93A4
:102CA000E0E0F6E080E1818380E2818380E481835B
:102CB00080E88183A0E6B6E081E011968C931197BD
:102CC00082E011968C93119784E011968C93119762
:102CD00084818F70848314968C911497887F1496C6
:102CE0008C9340E066E188E00E94AC07809343301B
:102CF000909344300E947602809345309093463002
:102D0000E12CF12C01E020E030E04EE551E063EBF6
:102D100070E28BEE96E10E94460A0F91FF90EF90D1
:102D200008958130910579F01CF4892B39F019C090
:102D30008230910569F0039781F013C080E8860F17
:102D40000E9421160EC080EC860F0E94211609C039
:102D500084E9860F0E94211604C084ED860F0E942C
:102D6000211667E270E080E090E00E948F150895E0
:102D70000E9437166BE270E080E090E00E948F15B1
:102D800008950F931F93CF93DF93FC0180818111EE
:102D90000AC011C08991882371F00E94B8160C17DF
:102DA0001D07C1F708C08F010E94B816E8012196DF
:102DB0000C5E1F4FEFCFDF91CF911F910F910895C0
:102DC000CF93DF93EA010E949116CE010E94C116B3
:102DD000DF91CF910895CF93DF93CDB7DEB7C6567D
:102DE000D109CDBFDEBF5E0141E5A40EB11CFE01DD
:102DF000319620E208C02193E817F907E1F7FC01BA
:102E0000A816B90619F0CF014496F5CF60E47CE925
:102E100080E090E00E948F1583E00E94021668E82F
:102E200073E180E090E00E948F150E940F1660EA27
:102E300070E080E090E00E948F150E940F1660EA1B
:102E400070E080E090E00E948F150E940F1660EA0B
:102E500070E080E090E00E948F1582E00E940216F0
:102E60000E940F1688E20E94211680E10E9421161E
:102E70008CE00E94211686E00E94211610E26E016D
:102E800051E5C50ED11C0F2EF4E14F2EF02D0F2E63
:102E9000F6E18F2E912CF02D5C2C0D2D68EC70E05E
:102EA00080E090E00E94030D40E050E0BA01809184
:102EB0004530909146300E945003672B682B692B58
:102EC00009F449C042E050E060E070E08091453094
:102ED000909146300E945003FE01319608C0119334
:102EE000E817F907E1F7FC018A159B05A1F1CF016D
:102EF0004496F5CF2FEF3FEFA901652D702F8091FC
:102F00004330909144300E94C808882321F1F60193
:102F10002181822F90E04497F4F482818823D9F0B4
:102F2000908130E0D901499EA00DB11D112441E0EE
:102F300050E04C0F5D1FA40FB51F3396A401421B38
:102F4000530B9A012C0D3D1D8D93E217F30719F0D9
:102F500081918111F9CF80914330909144300E944A
:102F60006E098111C7CFCE0101967C01612C712CB5
:102F7000A70160E070E0C3010E94E0169FEF691AAC
:102F8000790AE4E1EE0EF11CF4E06F16710481F7AA
:102F900085CF42E050E060E070E080914530909154
:102FA00046300E94800308952F923F924F925F9285
:102FB0006F927F928F929F92AF92BF92CF92DF9249
:102FC000EF92FF920F931F93CF93DF93CDB7DEB7AE
:102FD0006D97CDBFDEBF2BA92B8FAFA9B8AD7E01FA
:102FE00039E3E30EF11C2AE33FE2E6E2FFE211924D
:102FF000E217F307E1F70F2EF2E1AF2EFFE2BF2E4B
:10300000F02D26E23FE2F5011192E217F307E1F716
:10301000812C912C0F2EF6E2CF2EFFE2DF2EF02D29
:10302000FCC2853209F0E8C22D0182E0480E511C35
:1030300011968C91853609F4DBC138F48336C1F0E2
:1030400008F048C0853251F0E7C28337F9F088377D
:1030500009F468C0863609F0DFC28CC0F401EE5E68
:10306000F04D95E29083AFEF8A1A9A0AD201D5C249
:10307000F401EE5EF04DD7018C918083BFEF8B1A87
:103080009B0AF70132967F01D201C7C2A7014E5FAA
:103090005F4FD7018D919C919C01B401F401EE5ECC
:1030A000F04D00E010E006C0D901FD909D01F192C5
:1030B0000F5F1F4FDC010D900020E9F71197A81B4F
:1030C000B90B0A171B0780F34D01860E971E7A0174
:1030D000D201A3C287010E5F1F4F4AE0B601F7017C
:1030E000808191810E94CA219401D401AE5EB04DCD
:1030F00046E25FE280E090E005C0FA016191AF0135
:103100006D930196F60101900020E9F73197E652A0
:10311000FF428E179F0788F34F01820E931E78019E
:10312000D2017BC287010E5F1F4F40E1B601D7017C
:103130008D919C910E94CA219401F401EE5EF04DA4
:1031400046E25FE280E090E005C0DA016D91AD01FA
:1031500061930196D6010D900020E9F71197A652D0
:10316000BF428A179B0788F34D01820E931E780198
:10317000D20153C21701B4E02B0E311CD7018D913F
:103180009D910D90BC91A02D8F8B988FA98FBA8F98
:1031900020E030E0A901BC01CD010E94E11F8111B6
:1031A00005C020E3F6012083118204C120E030E055
:1031B000A9016F89788D898D9A8D0E94E11F8823DE
:1031C0009CF4EDE2D601EC938F89988DA98DBA8D90
:1031D000B0588F8B988FA98FBA8F0F2EF7E26F2E72
:1031E000FFE27F2EF02D01C0360120E030E040E804
:1031F0005FE36F89788D898D9A8D0E9440218823A5
:103200000CF444C200E010E020E030E040E251E481
:103210006F89788D898D9A8D0E94E61F6F8B788FCC
:10322000898F9A8F0F5F1F4F20E030E040E85FE307
:103230000E944021882344F72DEC3CEC4CEC5DE3EC
:103240006F89788D898D9A8D0E94E11F88231CF0EB
:103250001AC000E010E020E030E040E251E46F8965
:10326000788D898D9A8D0E9445216F8B788F898FFB
:103270009A8F015011092DEC3CEC4CEC5DE30E945F
:10328000E11F882344F310161106ACF57301D30136
:10329000A00FB11FAC8FBD8F3D016F89788D898DD7
:1032A0009A8D20E030E040E251E40E9445216F8B8E
:1032B000788F898F9A8F0E94582020E3260FF7017C
:1032C00021937F01072E000C880B990B0E94902000
:1032D0009B01AC016F89788D898D9A8D0E94741F36
:1032E000E614F704F1F66F8B788F898F9A8F0115AA
:1032F000110589F4DBC1C801E0E3D301EC9373014C
:10330000F2E0EF0EF11C2EE211962C9399236CF053
:1033100000E010E01FC0EC8CFD8C3FEFE31AF30AD5
:10332000EEE2AC8DBD8DEC9312C000E010E0FFEF3B
:10333000EF1AFF0AF701319720E3208301970F5F0F
:103340001F4F992324F4043011058CF331C004304D
:10335000110574F5370184E090E0801B910BE80EB5
:10336000F91E87016F89788D898D9A8D20E030E074
:1033700040E251E40E9445216F8B788F898F9A8FAC
:103380000E94582020E3260FD3012D933D01072EE4
:10339000000C880B990B0E9490209B01AC016F8957
:1033A000788D898D9A8D0E94741F60167106F1F6D2
:1033B000F70110829401F401EE5EF04D46E25FE207
:1033C00080E090E005C0DA016D91AD016193019656
:1033D000D6010D900020E9F71197A652BF428A1737
:1033E0009B0788F34D01820E931E7101D20115C116
:1033F0001701B4E02B0E311CD7018D919D910D90DA
:10340000BC91A02D8F8B988FA98FBA8F20E030E0D0
:10341000A901BC01CD010E94E11F811105C020E37B
:10342000F60120831182CAC020E030E0A9016F8933
:10343000788D898D9A8D0E94E11F88239CF4EDE29E
:10344000D601EC938F89988DA98DBA8DB0588F8B4A
:10345000988FA98FBA8F0F2EF7E26F2EFFE27F2E83
:10346000F02D01C0360120E030E040E85FE36F89D5
:10347000788D898D9A8D0E9440218823DCF000E0B0
:1034800010E020E030E040E251E46F89788D898DD2
:103490009A8D0E94E61F6F8B788F898F9A8F0F5FAE
:1034A0001F4F20E030E040E85FE30E944021882386
:1034B00044F702C000E010E02DEC3CEC4CEC5DE386
:1034C0006F89788D898D9A8D0E94E11F8823C4F4BD
:1034D00020E030E040E251E46F89788D898D9A8D4B
:1034E0000E9445216F8B788F898F9A8F0150110927
:1034F0002DEC3CEC4CEC5DE30E94E11F882344F38F
:1035000020E030E040E251E46F89788D898D9A8D1A
:103510000E9445216F8B788F898F9A8F0E94582047
:1035200020E3260FD3012C93072E000C880B990B58
:103530000E9490209B01AC016F89788D898D9A8DB6
:103540000E94741FF8013197EC8FFD8FEEE2D301DA
:103550001196EC9383010E5F1F4F7301F6E0EF0E9F
:10356000F11C20E030E040E251E40E9445216F8BE5
:10357000788F898F9A8F0E94582020E3260FD801D8
:103580002D938D01072E000C880B990B0E94902023
:103590009B01AC016F89788D898D9A8D0E94741F73
:1035A0000E151F05F1F625E6F3012683B301695FC9
:1035B0007F4F4AE08C8D9D8D0E94CA219401F401B9
:1035C000EE5EF04D46E25FE280E090E005C0DA0199
:1035D0006D91AD0161930196D6010D900020E9F740
:1035E0001197A652BF428A179B0788F34D01820E9E
:1035F000931E7101D20111C08A3029F0F401EE5EF0
:10360000F04D808304C0F401EE5EF04D10821196FF
:10361000EFEF8E1A9E0A01C0D2018C91811101CD6B
:103620008DA99EA9880D991D44973CF084E190E0F6
:103630004C012DA93EA9821A930AFE013396CE01B0
:103640004796DF011D92A817B907E1F73B8D398333
:103650008DA98A83181419045CF4CE01880D991D74
:103660000396D5012D915D0121938E179F07C9F710
:1036700000E02FEF3FEFA901BE016F5F7F4F809108
:103680004330909144300E94DD071BC02DEC3CEC90
:103690004CEC5DE36F89788D898D9A8D0E94E11FD6
:1036A00088230CF4D6CD80E090E026CE20E3EC8D8C
:1036B000FD8D20837F0132E0E30EF11C8EE28183D9
:1036C00046CE6D96CDBFDEBFDF91CF911F910F919A
:1036D000FF90EF90DF90CF90BF90AF909F908F9032
:1036E0007F906F905F904F903F902F900895CF9371
:1036F000DF93CDB7DEB7A297CDBFDEBFFE01329616
:1037000081E2DF011D928A95E9F710E0B12CA12C2E
:1037100000E0C12CD12CEE24E394F12C88248A946F
:10372000113041F128F0123059F11330C1F13EC08F
:10373000A11008C0EE2009F441C0AA24A394D12C02
:10374000E12C3CC0EE20D1F120E030E0A901BE0127
:103750006E5F7F4F80914B3090914C300E94C80833
:10376000813031F58A818F71982E11E0A12CD12CF6
:10377000E12C24C0EE2011F112E0D82CE12C1EC067
:10378000EE20E1F09C14C0F0E2E0F0E0EC0FFD1F51
:10379000EC0DF11DD080BD24C394E12C0FC0EE20B0
:1037A00069F0DB2C10E0B12CE12C08C010E006C061
:1037B000A12CD12CE12C02C013E0C12CB1E0BF152B
:1037C00020F4D982EE24E394F12C40E050E0BA01D9
:1037D00080914730909148300E94500362FF69C049
:1037E00044E050E060E070E08091473090914830D4
:1037F0000E9450030160898183708130E1F030F0D4
:10380000823071F1833009F440C053C040E150E090
:1038100060E070E080914730909148300E948003D2
:1038200040EE50E060E070E0809147309091483089
:103830000E9450033EC040E250E060E070E08091A2
:103840004730909148300E94800340ED50E060E0A6
:1038500070E080914730909148300E94500329C019
:1038600040E450E060E070E0809147309091483053
:103870000E94800340EB50E060E070E080914730B0
:10388000909148300E94500314C040E850E060E03E
:1038900070E080914730909148300E94800340E76B
:1038A00050E060E070E080914730909148300E9495
:1038B000500340E050E0BA018091493090914A3085
:1038C0000E94500362FF6CC044E050E060E070E092
:1038D0008091493090914A300E9450030260898162
:1038E0008C708430F9F018F4882339F059C088308E
:1038F00071F18C3009F440C053C040E051E060E009
:1039000070E08091493090914A300E94800340E0FD
:103910005EE060E070E08091493090914A300E9412
:1039200050033EC040E052E060E070E080914930DA
:1039300090914A300E94800340E05DE060E070E0DA
:103940008091493090914A300E94500329C040E054
:1039500054E060E070E08091493090914A300E94DC
:10396000800340E05BE060E070E08091493090913E
:103970004A300E94500314C040E058E060E070E01C
:103980008091493090914A300E94800340E057E096
:1039900060E070E08091493090914A300E9450037D
:1039A000802F8370833031F4F394898182958F70F6
:1039B000898300E061E070E080E090E00E94030D08
:1039C000AFCEE0E2F3E08CE0808383E4818398E093
:1039D00092831382808181608083E0E2F6E084E05C
:1039E000818391830895E0E0F1E0108280E4808398
:1039F000808186FDFDCFE0E0F1E08CE88083168ACF
:103A000081898160818B85E2808B49ED428B838B3C
:103A100020E430E0248B358B6AEF7FE2608F718F7A
:103A2000128E68E3648F93E0958F168E16A251A1D3
:103A3000516051A380A342A383A324A335A3AAEB7F
:103A4000BFE2A0A7B1A712A664A795A716A616AABB
:103A500051A9516051AB80AB42AB83AB24AB35ABCA
:103A60006AE77FE260AF71AF12AE6AE364AF95AF11
:103A700016AE10924601A1E4B1E05C9151605C93F6
:103A8000A0E4B1E08C9340934201809343012093E2
:103A90004401309345012AE33FE2209348013093EB
:103AA000490110924A0160934C0190934D0110928C
:103AB0004E0180898068808B80A1806880A380A966
:103AC000806880AB8C9180688C93089561E080E081
:103AD00099E00E945A0263E080E099E00E9460024F
:103AE00088EE93E0809326099093270980ED8093D8
:103AF000800108950E94E11C0E94661D0E94F31C33
:103B00000E94760280934730909348300E9476025C
:103B10008093493090934A3040E060E281E00E9417
:103B2000AC0780934B3090934C300F2EFDE4EF2E7A
:103B3000F0E3FF2EF02D02E020E030E048E552E017
:103B400060E070E087E79BE10E94460A68EE73E060
:103B500080E090E00E94030DF9CFCF93DF93D82F40
:103B6000C92F80914730909148300E947103603294
:103B7000C1F018F4603131F040C0603409F16038B0
:103B800071F13BC0EEE7F2E2AD2FBC2F2EEB32E23B
:103B900081919191985F8D939D932E173F07C1F767
:103BA0002CC0EEE3F2E2AD2FBC2F2EE732E2819182
:103BB0009191985F8D939D932E173F07C1F71DC07C
:103BC000EEEFF1E2AD2FBC2F2EE332E28191919125
:103BD000985F8D939D932E173F07C1F70EC0EEEBB4
:103BE000F1E2AD2FBC2F2EEF31E281919191985FE0
:103BF0008D939D93E217F307C1F744E050E060E036
:103C000070E080914730909148300E948003DF91AE
:103C1000CF9108950F931F93CF93DF931F921F921D
:103C2000CDB7DEB7082F192F8091493090914A30D7
:103C30000E94710369837A83809100208F5F809353
:103C4000002089819A81811522E09207E1F020F419
:103C50008115914049F043C0811524E0920711F18C
:103C60008115984071F13BC0EEE7F1E2A02FB12F32
:103C70002EEB31E281919191985F8D939D932E1758
:103C80003F07C1F72CC0EEE3F1E2A02FB12F2EE7E2
:103C900031E281919191985F8D939D932E173F070B
:103CA000C1F71DC0EEEFF0E2A02FB12F2EE331E2FD
:103CB00081919191985F8D939D932E173F07C1F746
:103CC0000EC0EEEBF0E2A02FB12F2EEF30E281918B
:103CD0009191985F8D939D93E217F307C1F744E0AC
:103CE00050E060E070E08091493090914A300E944D
:103CF00080030F900F90DF91CF911F910F91089546
:103D00001F920F920FB60F9211240BB60F922F93A2
:103D10003F934F935F936F937F938F939F93AF9353
:103D2000BF93EF93FF93E0E0F1E081898061818BA5
:103D30008AEF9FE20E94AD1DFF91EF91BF91AF917D
:103D40009F918F917F916F915F914F913F912F91B3
:103D50000F900BBE0F900FBE0F901F9018951F92E3
:103D60000F920FB60F9211240BB60F922F933F9321
:103D70004F935F936F937F938F939F93AF93BF9373
:103D8000EF93FF93E0E0F1E081A1806181A38AEBF2
:103D90009FE20E94AD1DFF91EF91BF91AF919F9166
:103DA0008F917F916F915F914F913F912F910F90E4
:103DB0000BBE0F900FBE0F901F9018951F920F9281
:103DC0000FB60F9211240BB60F922F933F934F9380
:103DD0005F936F937F938F939F93AF93BF93EF9373
:103DE000FF93E0E0F1E081A9806181AB8AE79FE287
:103DF0000E940A1EFF91EF91BF91AF919F918F9109
:103E00007F916F915F914F913F912F910F900BBEDA
:103E10000F900FBE0F901F9018951F920F920FB624
:103E20000F9211240BB60F922F933F934F935F93F2
:103E30006F937F938F939F93AF93BF93EF93FF9372
:103E4000E1E4F1E08081806180838AE39FE20E9467
:103E50000A1EFF91EF91BF91AF919F918F917F913A
:103E60006F915F914F913F912F910F900BBE0F90EB
:103E70000FBE0F901F9018950F93E0914B30F0916B
:103E80004C30309749F0BC0100E02AE030E040E0DF
:103E900050E0CF010E94DD070F91089580917800D6
:103EA00085FF05C080E28093780081E008958091CD
:103EB000780080FF05C081E08093780082E008955B
:103EC0008091780084FF05C080E18093780083E0D2
:103ED00008958091780081FF05C082E0809378008A
:103EE00084E0089582E008955058BB27AA270E94D5
:103EF0008C1F0C9406210E94F82038F00E94FF20AD
:103F000020F039F49F3F19F426F40C94F5200EF4B8
:103F1000E095E7FB0C94EF20E92F0E94172158F35E
:103F2000BA17620773078407950720F079F4A6F59E
:103F30000C9439210EF4E0950B2EBA2FA02D0B0115
:103F4000B90190010C01CA01A0011124FF27591BDE
:103F500099F0593F50F4503E68F11A16F040A22FE4
:103F6000232F342F4427585FF3CF46953795279555
:103F7000A795F0405395C9F77EF41F16BA0B620B54
:103F8000730B840BBAF09150A1F0FF0FBB1F661F9B
:103F9000771F881FC2F70EC0BA0F621F731F841FDE
:103FA00048F4879577956795B795F7959E3F08F004
:103FB000B0CF9395880F08F09927EE0F97958795C6
:103FC00008950E94CB2008F481E008950E94FA1F12
:103FD0000C9406210E94FF2058F00E94F82040F027
:103FE00029F45F3F29F00C94EF2051110C943A21F1
:103FF0000C94F5200E94172168F39923B1F35523FF
:1040000091F3951B550BBB27AA27621773078407EB
:1040100038F09F5F5F4F220F331F441FAA1FA9F381
:1040200035D00E2E3AF0E0E832D091505040E6956F
:10403000001CCAF72BD0FE2F29D0660F771F881FD0
:10404000BB1F261737074807AB07B0E809F0BB0BC3
:10405000802DBF01FF2793585F4F3AF09E3F5105D7
:1040600078F00C94EF200C943A215F3FE4F3983EF3
:10407000D4F3869577956795B795F7959F5FC9F7C0
:10408000880F911D9695879597F90895E1E0660F41
:10409000771F881FBB1F621773078407BA0720F0BA
:1040A000621B730B840BBA0BEE1F88F7E095089523
:1040B0000E945F206894B1110C943A2108950E94E7
:1040C0001F2188F09F5798F0B92F9927B751B0F06A
:1040D000E1F0660F771F881F991F1AF0BA95C9F78C
:1040E00014C0B13091F00E943921B1E008950C94D0
:1040F0003921672F782F8827B85F39F0B93FCCF383
:10410000869577956795B395D9F73EF49095809508
:10411000709561957F4F8F4F9F4F0895E89409C028
:1041200097FB3EF490958095709561957F4F8F4FEA
:104130009F4F9923A9F0F92F96E9BB279395F69500
:10414000879577956795B795F111F8CFFAF4BB0F7E
:1041500011F460FF1BC06F5F7F4F8F4F9F4F16C0E2
:10416000882311F096E911C0772321F09EE8872F6C
:10417000762F05C0662371F096E8862F70E060E028
:104180002AF09A95660F771F881FDAF7880F9695A1
:10419000879597F90895990F0008550FAA0BE0E845
:1041A000FEEF16161706E807F907C0F012161306F9
:1041B000E407F50798F0621B730B840B950B39F439
:1041C0000A2661F0232B242B252B21F408950A269F
:1041D00009F4A140A6958FEF811D811D089597F9DF
:1041E0009F6780E870E060E008959FEF80EC08959D
:1041F00000240A94161617061806090608950024C6
:104200000A9412161306140605060895092E03943F
:10421000000C11F4882352F0BB0F40F4BF2B11F4B3
:1042200060FF04C06F5F7F4F8F4F9F4F089557FD12
:104230009058440F551F59F05F3F71F04795880F14
:1042400097FB991F61F09F3F79F0879508951216AB
:1042500013061406551FF2CF4695F1DF08C0161657
:1042600017061806991FF1CF869571056105089408
:104270000895E894BB2766277727CB0197F908951F
:104280000E94CB2008F48FEF08950E9458210C94CF
:1042900006210E94F82038F00E94FF2020F095238C
:1042A00011F00C94EF200C94F52011240C943A2179
:1042B0000E94172170F3959FC1F3950F50E0551F91
:1042C000629FF001729FBB27F00DB11D639FAA276B
:1042D000F00DB11DAA1F649F6627B00DA11D661FBA
:1042E000829F2227B00DA11D621F739FB00DA11DDB
:1042F000621F839FA00D611D221F749F3327A00D95
:10430000611D231F849F600D211D822F762F6A2F30
:1043100011249F5750409AF0F1F088234AF0EE0F95
:10432000FF1FBB1F661F771F881F91505040A9F7C2
:104330009E3F510580F00C94EF200C943A215F3F92
:10434000E4F3983ED4F3869577956795B795F795FE
:10435000E7959F5FC1F7FE2B880F911D9695879576
:1043600097F90895EE0FFF1F881F8BBF0790F691F6
:10437000E02D1994FB01DC0102C001900D92415027
:104380005040D8F70895DC0101C06D934150504072
:10439000E0F70895BB274A3031F4992322F4BDE2B7
:1043A000909581959F4F0C94D621BB27FB015527F3
:1043B000AA27880F991FAA1FA41710F0A41B839582
:1043C0005051B9F7A05DAA3308F0A95DA1930097F9
:1043D00079F7B111B1931192CB010C94EF21DC016B
:1043E000FC01672F71917723E1F7329704C07C912C
:1043F0006D9370836291AE17BF07C8F30895F89468
:02440000FFCFEC
:104402000149444C4500546D722053766300446167
:1044120074613A202020202020736D616C6C202072
:10442200202000446174613A2020202020206D6900
:1044320064646C6520202000446174613A2020206D
:1044420020202062696720202020202000546573EC
:1044520074206572666F6C677265696368210044D7
:104462006174613A202020202020737472696E6783
:1044720020202000436F6D6D616E643A202020255C
:104482006420004461746142797465733A20256442
:104492002000427574746F6E5461736B0051414D0C
:1044A20020342047656E657261746F7220523A2023
:1044B200256400646973705570646174650000005E
:1044C200DB016E037B04D9047B046E03DB01000075
:1044D20025FE92FC85FB27FB85FB92FC25FE000056
:1044E200DB016E037B04D9047B046E03DB01000055
:1044F20025FE92FC85FB27FB85FB92FC25FE000036
:10450200640192025C03A3035C0392026401000053
:104512009CFE6EFDA4FC5DFCA4FC6EFD9CFE0000F6
:10452200640192025C03A3035C0392026401000033
:104532009CFE6EFDA4FC5DFCA4FC6EFD9CFE0000D6
:10454200ED00B7013D026D023D02B701ED00000032
:1045520013FF49FEC3FD93FDC3FD49FE13FF000097
:10456200ED00B7013D026D023D02B701ED00000012
:1045720013FF49FEC3FD93FDC3FD49FE13FF000077
:104582007700DB001F0136011F01DB00770000000E
:1045920089FF25FFE1FECAFEE1FE25FF89FF00003B
:1045A2007700DB001F0136011F01DB0077000000EE
:1045B20089FF25FFE1FECAFEE1FE25FF89FF00001B
:1045C200F200DB01B2026E0308047B04C104D904C9
:1045D200C1047B0408046E03B202DB01F200000096
:1045E2000EFF25FE4EFD92FCF8FB85FB3FFB27FBF1
:1045F2003FFB85FBF8FB92FC4EFD25FE0EFF000003
:10460200B60064010502920206035C039103A30350
:1046120091035C030603920205026401B6000000E6
:104622004AFF9CFEFBFD6EFDFAFCA4FC6FFC5DFCE8
:104632006FFCA4FCFAFC6EFDFBFD9CFE4AFF000031
:104642007900ED005901B70104023D0261026D02D9
:1046520061023D020402B7015901ED007900000038
:1046620087FF13FFA7FE49FEFCFDC3FD9FFD93FDDF
:104672009FFDC3FDFCFD49FEA7FE13FF87FF00005F
:104682003D007700AC00DB0002011F013001360162
:1046920030011F010201DB00AC0077003D00000089
:1046A200C3FF89FF54FF25FFFEFEE1FED0FECAFED6
:0E46B200D0FEE1FEFEFE25FF54FF89FFC3FF90
:00000001FF
